:020000040800F2
:10000000F80A002025030008F17500089D6D00081E
:10001000ED750008FD1500085D9400080000000063
:10002000000000000000000000000000D57A000879
:100030007517000800000000617600082D7B00089D
:100040003F0300083F0300083F0300083F03000888
:100050003F0300083F0300083F0300083F03000878
:100060003F0300083F0300083F030008351600085F
:10007000451600083F0300083F0300083F0300083F
:100080003F030008000000003F0300083F03000892
:100090003F0300083F0300083F0300083F03000838
:1000A0003F0300083F0300083F0300083F03000828
:1000B0003F030008BD7B00083F0300083F03000822
:1000C0003F0300083F0300083F0300083F03000808
:1000D0003F030008ED930008259400083F03000843
:1000E0003F0300083F0300083F0300083F030008E8
:1000F0003F0300083F0300083F0300080000000022
:10010000000000003F030008000000003F0300085B
:100110003F030008000000003F0300083F03000801
:100120003F0300083F0300083F0300083F030008A7
:100130003F03000800000000000000003F0300082B
:100140003F0300083F03000800000000000000001B
:10015000000000000000000000000000000000009F
:100160000000000000000000000000003F03000845
:100170003F03000800000000000000000000000035
:10018000000000003F030008000000000000000025
:10019000000000000000000000000000000000005F
:1001A00000000000000000003F0300083F030008BB
:1001B0003F0300083F0300083F0300080000000061
:1001C000000000003F0300080000000000000000E5
:1001D0003F0300083F03000800F002F800F092F827
:1001E0000AA090E8000C82448344AAF10107DA4592
:1001F00001D100F087F8AFF2090EBAE80F0013F052
:10020000010F18BFFB1A43F00103184740B8000064
:1002100060B80000103A24BF78C878C1FAD85207F5
:1002200024BF30C830C144BF04680C607047000070
:100230000023002400250026103A28BF78C1FBD8EF
:10024000520728BF30C148BF0B6070476E2900F0CD
:100250000982702900F04B8366290BF07E826529A4
:100260000BF07B8267290BF0788261290BF0778293
:1002700003681B0A28BF41F08001692900F0B6819C
:10028000642900F0B381752900F0B0816F2900F076
:10029000D982782900F01783E92900F07382E429D4
:1002A00000F07082F52900F06D82EF2900F0D6820F
:1002B000F82900F016830368DB0928BF41F08001AC
:1002C000632901F01B80732901F02080E32901F0EC
:1002D0002B80F32901F03080002070471FB50BF010
:1002E0002AFA01F083F80400002000210AF0D4FD6E
:1002F000401C6060002000210AF0B8FDE0601FBDD6
:1003000010B510BD01F044F81146FFF7E7FF09F002
:10031000D3F901F021F903B4FFF7F2FF03BC01F0B8
:1003200065F900000948804709480047FEE7FEE7F5
:10033000FEE7FEE7FEE7FEE7FEE7FEE7FEE7FEE795
:1003400004480549054A064B70470000A97B000890
:10035000D9010008F8040020F80A0020F80600205F
:10036000F806002053EA020C00F069802DE9F04BFA
:100370004FF00006002B1FBFB3FA83F503FA05F414
:1003800024FA05F65E4012BF1643B2FA82F502FA6D
:1003900005F4C5F120051EBF22FA05FC44EA0C0451
:1003A000203556EA044C4FEA144418BF641C4FF041
:1003B00000084FF00009904271EB030C39D300297B
:1003C00019BFB1FA81F701FA07F6B0FA80F700FA1F
:1003D00007F6C7F120071EBF20FA07FC46EA0C0605
:1003E0002037B6FBF4FCA7EB0507103F07F01F0B07
:1003F000CBF120062CFA06F60CFA0BFB44BFB346F1
:100400000026202FA4BF5E464FF0000B5BEA060CCF
:1004100008BF4FF0010B19EB0B0948EB0608ABFBCB
:10042000027C06FB02CC0BFB03CCC01B71EB0C0166
:10043000C1E70B46024641464846BDE8F08B13B57E
:10044000084318BF4FF0FF300146AFF30080BDE80E
:100450001C4070470FB41CB5084B06AA7B44694684
:100460000090059800F017F904460020694600F056
:1004700025F920461CBC5DF814FB00005D0200005D
:1004800010B5431C02E010F8011B71B18107FAD1CD
:100490004FF0013202C88C1A8C4314EAC211F9D011
:1004A000C01A0A0603D0C01E10BDC01A10BD0A042F
:1004B00001D0801E10BD0902FCD0401E10BD4FF0BF
:1004C000000200B5134694469646203922BFA0E8A4
:1004D0000C50A0E80C50B1F12001BFF4F7AF0907B0
:1004E00028BFA0E80C5048BF0CC05DF804EB8900A1
:1004F00028BF40F8042B08BF704748BF20F8022BE4
:1005000011F0804F18BF00F8012B704770477047FB
:10051000704710B500F0BAFA006810BD10B5044677
:1005200000F0B4FA046010BD70B504468569006837
:10053000C10601D5302600E02026C00707D070BDD7
:10054000D4E9012130469047206A401C20626D1E8C
:10055000F6D570BD70B5044685690078C00707D12F
:1005600070BDD4E9012120209047206A401C206200
:100570006D1EF6D570BD09684A0501D540B27047B9
:10058000C905FCD500B2704709684A0501D5C0B25B
:100590007047C905FCD580B2704770B50C4605465A
:1005A000012A05D02878800600D5EA69002302E0F8
:1005B000012305E05B1C934202D2E05C0028F9D1E4
:1005C000A869E618C01AA861286A18442862284653
:1005D000FFF7AAFF04E0D5E9012114F8010B9047C9
:1005E000B442F8D32846FFF7B5FF70BD2DE9F041BE
:1005F0000646002410687529314616A510D0FFF76D
:10060000BAFF002802DA404213A507E031688A07E2
:1006100001D512A502E0490704D511A5012401E086
:10062000FFF7B2FF00210A2206F1240709E0B0FB20
:10063000F2FCB0FBF2F302FB1C0030307854184699
:10064000491C0028F3D123462A463046BDE8F04134
:1006500000F065BA000000002D0000002B00000033
:100660002000000011680268006A530501D5087077
:100670000AE0D30501D5088006E0130603D5C217AA
:10068000C1E9000200E008600120704701694A1CCE
:1006900002610878704700B58FB0CDE901310021C3
:1006A000059105497944CDE903101146684600F0EB
:1006B00029F90FB000BD0000E5FFFFFF0A6802F84E
:1006C000010B0A60704700002DE9FF5F15468A465E
:1006D0000446DFF8AC80F8440027D8E900103E4615
:1006E000CDE9001010E03AF816106A4602A800F0B2
:1006F00027FE411C07D02178890603D5E269391805
:1007000091420DD80744761C2078800602D5E06916
:10071000B84205DDAE42E6DB3AF816000028E2D129
:10072000A069C01BA0612046FFF7FEFED8E90010BB
:10073000CDE90010002017E03AF818106A4602A828
:1007400000F0FEFDB0F1FF3F81460BD000250DF11A
:10075000080B05E0D4E901211BF8050090476D1C4A
:100760004D45F7D308F10100B0428046E4DB206A32
:10077000384420622046FFF7EDFEBDE8FF9F0000F1
:10078000CAB100002DE9F0418046D21D22F00702D7
:100790000025D2E90002F52915A614D0011E72F138
:1007A000000106DA0023D0EB030063EB020211A67E
:1007B00008E0D8F800108B0701D50FA602E0490722
:1007C00001D50EA601251146002408F1240704E0F6
:1007D00000F060F930323A55641C50EA0102F7D15A
:1007E0002B46324621464046BDE8F04100F097B91D
:1007F000000000002D0000002B0000002000000081
:1008000030B4002100F1240408E002F00705D2080A
:10081000303542EA4372DB086554491C52EA03054D
:10082000F3D10468002310A2250708D504F02004A2
:100830000C4304D0C46901230CA2641EC46130BC03
:1008400000F06DB910B5044621461068FFF79CFE14
:1008500002462046BDE810400023D1E7D21D22F019
:100860000701D1E90023CBE70000000030000000C1
:10087000F0B40D460188090502D5214C7C4402E004
:100880001F4C7C440E34002100F1240608E002F0E5
:100890000F071209E75D42EA03721B097754491CEE
:1008A00052EA0307F3D102780023120704D5702D12
:1008B00006D009B1022311342246F0BC00F02FB952
:1008C00001231034F8E770B504460D462146106840
:1008D000FFF75AFE024629462046BDE87040002335
:1008E000C6E7D21D22F00703D3E90023C0E703685F
:1008F000126843F0200303600823C3610023B7E7B5
:100900002CB000002DE9F05F894604464FF0000A44
:10091000DFF874B1FB44C0F820A02046E1688847A6
:10092000002874D0252806D0D4E901219047206AF8
:10093000401C2062F1E700265F462046E1688847B8
:100940002028054607DB312D05D2781910F8200C38
:1009500008B10643F1E7B00701D526F00406C4F854
:100960001CA00027C4F818A02A2D09D028460AF098
:1009700075FA38B304EB8708303DC8F8185019E011
:1009800059F8041B204604EB87029161E16888470F
:10099000012F054618D1E069002820DA26F020064C
:1009A0001DE0D8F8180000EB800005EB400030385F
:1009B000C8F818002046E168884705460AF04EFA54
:1009C0000028EED1012F0AD02E2D08D12046E16853
:1009D00088477F1C0546022F46F02006C4DBA0692D
:1009E000002803DA404246F00106A061F00701D07A
:1009F00026F010066C2D0BD0682D09D04C2D39D067
:100A00006A2D35D0742D35D07A2D33D016E038E0EC
:100A1000E1682F4620468847B842054609D16C2F29
:100A200026D04FF48060E16806432046884705469B
:100A300004E06C2F1AD04FF4807006430DB3A5F17B
:100A40004100192802D8203546F400664A46294656
:100A5000204626604E46FFF7F9FB80B101280BD0F7
:100A6000F61D26F0070000F1080956E74020E4E7EC
:100A70008020D8E70020D6E706F104094DE7284694
:100A800052E7206ABDE8F09FBCAF00000048704705
:100A90001000002030B5B0F10A0271F100034FEAF6
:100AA000900E4EEA817EB0EB0E0061EB91014FEAB1
:100AB000101E4EEA017E10EB0E0041EB11114FEAC1
:100AC000102E4EEA016E10EB0E0041EB11214FEAA1
:100AD000104E4EEA014E10EB0E0041EB1141401852
:100AE00041F100014FEAD00040EA41704FEAD101E4
:100AF0004FEA810444EA907410EB800544EB010452
:100B00006D1944EB0404521BA3414FF0000348BF8E
:100B10000A3200D530BD401C41F1000130BD2DE945
:100B2000F0470D4699469246044600F124080168B4
:100B3000880604D5E06921F01001216000E0012061
:100B4000A84201DD471B00E00027A1697A1902EBEA
:100B50000900081AA0612078C00602D42046FFF7D9
:100B6000E3FC002608E0D4E901211AF806009047CA
:100B7000206A401C761C20624E45F4DB2078C006BB
:100B80000AD52046FFF7D0FC06E0D4E90121302049
:100B90009047206A401C2062381EA7F10107F4DC50
:100BA00007E0D4E9012118F805009047206A401CAD
:100BB0002062281EA5F10105F3DC2046FFF7CAFCE0
:100BC0002078000602D50220BDE8F0870120FBE76F
:100BD0002DE9FF4F0C461E464FF0FF378BB0D2E990
:100BE0000001DDF860800A908A46C1F30A5505B914
:100BF0003D46002108464FF00000BAF1000F00F416
:100C0000400005DA00EB80004FF4400101EA50009B
:100C10004FEA9059B9F1010F00DDB9460A9850EA40
:100C20004A000ED044F61050A5F2FF3545432F146C
:100C3000B8F1000F1ED07542291E1EDDC9F1000259
:100C40001CE0B8F1010F4FF0000001D0302103E0AB
:100C5000F24305E02154401CB042FBDB3046002249
:100C6000002121540B99C1F80880C1E900200FB080
:100C7000BDE8F08FBD1B6D1CDEE74A4600DA694215
:100C800006A800F0F7FB06AB93E8070003AB83E888
:100C9000070050460A9908F022FE8DE80700A0F5EB
:100CA00000501F3800900398002D0ADD42F21F010A
:100CB0004A460844002303A90390684609F08CF8CB
:100CC00009E0A0F500504A461F38002303A903900D
:100CD000684609F096F88DE807000004000C03D080
:100CE0004FF0FF30410800E01046B8F1000F03D08C
:100CF0000022009215461EE0751E05D4FFF7CAFEBD
:100D0000303262556D1EF9D5B3460122084302D038
:100D100000227F1C04E02078302801D100227F1EB1
:100D2000002A099784D01DE0112D07DAFFF7B2FEE3
:100D3000303262556D1C50EA0102F5D1084302D0F1
:100D40000098C8B10EE00021681E05E0235C625CDB
:100D500063542254401E491C8142F7DBAB46A81B5A
:100D6000401E0990002004F80B000B98099AC0F867
:100D70000880C0E9002B7AE711264FF0000857E7FA
:100D80002DE9F04F88460446D21D22F0070191B0AC
:100D9000D1E90001CDE90A0109F06AF902460B9890
:100DA000C00F01D02D2007E02068810701D52B203E
:100DB00002E0202101EAC000032A099001D0072A9D
:100DC00005DB03464146204600F014FB0BE120788A
:100DD000800601D5E06900E00620B8F1650F814684
:100DE00006D0B8F1660F18D0B8F1670F70D131E0B6
:100DF0000020B9F1110F009001DB112301E009F18E
:100E000001030AAA01A90CA8FFF7E2FEDDE90C70B4
:100E1000002609F10105834647E001204B4600907A
:100E20004FF000470AAA01A90CA8FFF7D1FEDDE99F
:100E30000DB00C995D46002610B909F101000D189E
:100E4000B9EB050003D4C0F1FF3609F10105A5EBAC
:100E500009002BE0B9F1010F01DA4FF00109002080
:100E6000B9F1110F0090484601DD112300E003465F
:100E70000AAA01A90CA8FFF7ABFEDDE90C704D46EC
:100E800000268346207800070AD4AB4500DA5D4689
:100E900001A8012D04DD411911F8011C302907D0EA
:100EA0004F4502DA17F1040F04DA012082460FE001
:100EB0006D1EEEE7002F02DCED1B3E4403E0781CC4
:100EC000A84200DD7D1CB81B00F1010A4FF000476D
:100ED0002078000703D4AA4501DB4FF0FF3A002138
:100EE000B7F1004F0DF143088DF8431024D00220D4
:100EF0002B23002F01DA7F422D230A21021EA0F1AD
:100F0000010000DC5FB197FBF1FC97FBF1F201FB04
:100F10001C7C17460CF1300C08F801CDEEE7A8F167
:100F2000010003702188090501D5452100E06521F4
:100F3000A0F1010800F8011C09980FA9A1EB08070E
:100F4000FF1D00B10120411901EBEA70A16938448D
:100F5000081A401EA0612078C00602D42046FFF780
:100F6000E3FA099828B1D4E901219047206A401C8E
:100F700020622078C00622D52046FFF7D5FA1EE071
:100F8000002E04DBB34502DD01A8805D00E03020C7
:100F9000D4E901219047206A401C2062761CAAF106
:100FA00001005FEA000A0AD100F020FAC068016877
:100FB000405CD4E901219047206A401C2062281E31
:100FC000A5F10105DCDC07E0D4E9012118F8010BEB
:100FD0009047206A401C2062381EA7F10107F3DC0D
:100FE0002046FFF7B7FA032011B041E62DE9F04F94
:100FF00004460D46D21D22F0070089B0D0E90097C3
:101000004846394609F034F80246F80F01D02D233E
:1010100007E02068810701D52B2302E0202101EAA7
:10102000C0038DF820300BB1012000E00020032A1E
:10103000824601D0072A04DB2946204600F0DAF96F
:101040003FE12078800601D40D2500E0E569C7F373
:101050000A560D2D49DA00214FEA175B08464FF07A
:101060000000002F00F4400007DA00EB80004FF48E
:10107000400100EBD07001EA60008115012901DD1B
:101080004FF0FF3100224FEA850CBCF1180F06D358
:101090001346ACF118004FF08052C24003E04FF409
:1010A000801323FA0CF30CF10C0CBCF1200F04D3C9
:1010B000ACF1200C09FA0CF001E007FA0CF0002961
:1010C0004FF0004801DD18B90FE00ED140450CD3B8
:1010D00019EB02095F4121B9404502D19F4329EA3A
:1010E0000209BBEB175F00D0761C2088000502D5F3
:1010F0007B48784402E07A487844193808AA3023BB
:1011000002F80A30037C0AF10101002E0AF1020AFA
:1011100053546A4602DC4FF0300101E04FF03101D8
:101120004FF001088DF8001002D0A6F2FF3603E060
:1011300059EA470100D06B4E002D02DC21780907E7
:1011400004D54FF002082E218DF80110C44600216D
:101150000BE0C7F303433F01C35C491C6D1E02F85B
:101160000830052908F1010801DA002DF1DC002121
:101170000CE000EB1973491C1B786D1E082902F85E
:1011800008304FEA091908F1010801DA002DF0DCF6
:1011900021688B0602D516E0A8F10108E04505DDBF
:1011A00002EB080313F8013C302BF5D0B8F1000F27
:1011B00009DD02EB080313F8013C2E2B03D10907CC
:1011C00001D4A8F10108002D05DD3E2102F8081028
:1011D0006D1E08F10108407C002E02F8080008F19D
:1011E000010804DA2D20764202F8080002E02B20E4
:1011F00002F808000A214FF47A70864208F10108CB
:101200000BDB96FBF0F3303302F8083096FBF0F37B
:1012100008F1010800FB136601E0642E0CDB64207A
:1012200096FBF0F3303302F8083096FBF0F308F148
:10123000010800FB136601E00A2E06DB96FBF1F0C5
:10124000303002F8080008F1010896FBF1F001FBCC
:101250001060303002F80800A16908F1010808EBBD
:10126000050202EB0A00081AA0612078C00602D429
:101270002046FFF759F9216A08AE01EB0A00206207
:1012800004E0D4E9012116F8010B9047BAF1010AF4
:10129000F7D22078C00602D52046FFF745F96E4602
:1012A00009E016F8010B3E280FD0D4E90121904740
:1012B000206A401C2062B8F10108F2D22046FFF7F4
:1012C00049F909B00320BDE8F08F206A2844206264
:1012D00003E0D4E90121302090476D1EEBD3F8E7FD
:1012E00025A8000002FCFFFF10B5436913B1AFF35E
:1012F000008001E0FFF751F9012010BD127800F1E4
:1013000024010A7000224A700122EDE711684FF0B3
:10131000FF32E9E710B5436913B1AFF3008001E094
:10132000FFF7D2F9012010BD128800F12401828458
:101330000022C2840122EDE711684FF0FF32E9E795
:101340002DE9F04116460C46054600F047F80368C3
:1013500093F80101012807D0FF2C12D8185D80B145
:1013600001202C70BDE8F081D3F8070132462146F8
:1013700003F20713C7182846BC46BDE8F041002316
:1013800060474FF0FF30EDE7004870471000002045
:101390007546FFF7F9FFAE4605006946534620F053
:1013A0000700854618B020B5FEF7CAFFBDE820400B
:1013B0004FF000064FF000074FF000084FF0000B11
:1013C000AC46ACE8C009ACE8C009ACE8C009ACE880
:1013D000C00921F007018D467047000010B500F0EC
:1013E00005F8001D10BD00BFB19A0000004870470D
:1013F000300000202DE9F0411F4604460326016815
:10140000072A01F4006004DB08B116A505E016A563
:1014100003E008B115A500E015A521F0100020603B
:10142000A069C01EA0610FB1401EA0612046FFF759
:101430007BF84FB1D4E9012138469047206A401C1F
:101440002062C01C206206E0206AFAE7D4E901218C
:1014500015F8010B9047761EF8D22046FFF77AF870
:10146000BDE8F0814E414E006E616E00494E46006F
:10147000696E66002DE9F047814616468AB0354808
:1014800078440DC88DE80D0032487844801C03ACC8
:101490000DC884E80D0041F69B300844372190FBCD
:1014A000F1F290FBF1F5A5F1800501FB12041B3C64
:1014B00002D56442012000E00020DFF898A08046B9
:1014C0000027FA44AAF1BE0A0EE0E0070AD032462D
:1014D000684607EB470101230AEB810108F091FC04
:1014E0008DE8070064107F1C002CEED1194F7F445B
:1014F000AE3F19E0E80715D007EB04100DF1180A0C
:1015000090E80E008AE80E00C068F04201D19819F8
:1015100008903246012306A903A808F072FC03AB29
:1015200083E807006D10641C002DE3D14FF0010328
:1015300032466946B8F1000F03A802D008F04CFC0F
:1015400001E008F05EFCC9E90001C9F808200AB012
:10155000BDE8F08728A5000010B50446AFF3008071
:101560002046BDE81040FEF7D6BE00000000000097
:1015700030B44FF0013C50F8042B51F8043BCCFA46
:1015800052F4D51A20D1FCB950F8042B51F8043B81
:10159000CCFA52F4D51A17D1B4B950F8042B51F83B
:1015A000043BCCFA52F4D51A0ED16CB950F8042B86
:1015B00051F8043BCCFA52F4D51A05D1002CDAD0FC
:1015C00030BC4FF00000704729BAB1FA81F111F038
:1015D0001801D1F120008440F2D1CA40CB4012F072
:1015E000FF0213F0FF0330BCD01A704701491820E6
:1015F000ABBEFEE72600020070470000FFE7FEE7F3
:1016000084B002900191009202980199884203DA15
:10161000FFE7019803900AE002980099884203DDF1
:10162000FFE70098039002E002980390FFE7039819
:1016300004B0704780B540F2E400C2F2000001F04F
:101640009DF980BD80B540F24410C2F2000001F067
:1016500095F980BD84B003900398006840F207417B
:10166000C4F20201884206D8FFE740F60000C4F247
:101670000200009005E040F62000C4F20200009055
:10168000FFE7009802900398007808384CF6CD41A7
:10169000CCF6CC41A0FB01100009019002980399FF
:1016A0004A6C22F0030210448864039940F68000DB
:1016B000C4F20200C864019800F01F0101208840B4
:1016C0000399086504B0704782B0019001980079D1
:1016D0000090009940F6FC00C4F2020000EB81008B
:1016E00001994865019940F64010C4F202008865EE
:1016F0000098013800F01F01012088400199C86559
:1017000002B0704784B00390029101920093039855
:10171000C16C006D48600398406D28B1FFE70398E5
:10172000816DC06D4860FFE70398016C406C00F06C
:101730001F020120904048600098039909684860A2
:1017400003988068102809D1FFE701980399096878
:101750008860029803990968C86008E002980399B4
:1017600009688860019803990968C860FFE704B0B8
:10177000704700007047000081B0EFF3108072B630
:101780000090FFE7FEE7000080B58CB08DED081AF1
:10179000CDED070A8DED060ACDED052A8DED042A63
:1017A000CDED031A9DED060ADDED070A9DED081A41
:1017B000DDED031A9DED042ADDED052A00F018FF8A
:1017C000B5EE400AF1EE10FA23DAFFE79DED060AC6
:1017D000DDED070A9DED081ADDED031A9DED042AE3
:1017E000DDED052A00F0BEFE8DED021ACDED010AF9
:1017F0008DED000A9DED000ADDED010A9DED021A56
:1018000000F0CCFF8DED0B1ACDED0A0A8DED090A23
:1018100014E09DED060ADDED070A9DED081ADDEDE9
:10182000031A9DED042ADDED052A00F09BFE8DEDE7
:101830000B1ACDED0A0A8DED090AFFE79DED090AA5
:10184000DDED0A0A9DED0B1A0CB080BD85B000904D
:10185000009B9869D9691A6A5B6A049303920291A2
:1018600001909DED010ADDED020A9DED031ADDED0B
:10187000041A05B07047000080B588B007904BF699
:10188000C41EC0F6000EDEF80000DEF80410DEF81C
:101890000820DEF80C30DEF810C0DEF814E0CDF8D9
:1018A00018E0CDF814C004930392029101900798B8
:1018B00001A900F0D7F8079800F002F808B080BD41
:1018C00080B58EB00D900D9A4FF07E50099000209B
:1018D0000A900B900C9009990A9BDDF82CC0DDF85A
:1018E00030E0C2F824E0C2F820C0D36191610D9AC3
:1018F0000690079008900699079BDDF820C0C2F873
:1019000030C0D36291620D9A012182F834100D9A91
:101910000021C4F2201191630D9981F840000D9AC5
:101920000390049005900399049BDDF814C0C2F85D
:101930004CC0936451640D9A0090019002900099FC
:10194000019BDDF808C0C2F858C0536511650D99B8
:1019500081F85C000D9908660D9A516951660D99E0
:1019600081F868000D99C8660D99486908670EB03E
:1019700080BD000080B590B00F908DED0E0A0F98DD
:1019800090ED060A90ED073A90ED081A90ED092ABD
:1019900023EE013A20EE020A30EE030A21EE013A6C
:1019A000B6EE001A8DED011A31EE431A22EE022A2C
:1019B00071EE420A08F088FB8DED0D0A9DED0D0ACF
:1019C0008DED020A9DED0E0A00F0CAFB9DED011A95
:1019D000B0EE402A9DED020A30EE420A20EE010AE6
:1019E0008DED0C0A9DED0C0A08F0C4FC8DED080A83
:1019F000002009900A909DED0C0A09F095F8B0EED0
:101A0000401A9FED170A30EE410A8DED0B0A0F9830
:101A100003909DED080ADDED090A9DED0A1ADDED42
:101A20000B1A90ED062AD0ED072A90ED083AD0ED7A
:101A3000093A00F005FC0399CDED071A8DED061A61
:101A4000CDED050A8DED040A0498059A069BDDF894
:101A50001CC0C1F824C00B62CA61886110B080BD8F
:101A60000000008080B586B005900491049800784D
:101A7000059908700498406805994860049890EDAD
:101A8000020AB5EE400AF1EE10FA05D1FFE79FED2C
:101A90004C0A8DED030A09E0049890ED020A9FEDCF
:101AA000471A20EE010A8DED030AFFE79DED030AB8
:101AB000059880ED020A049890ED030AB5EE400AFD
:101AC000F1EE10FA05D1FFE79FED3D0A8DED020A18
:101AD00011E0049890ED030A00F042FB09F024F8AD
:101AE000B6EE001A20EE010AF0EE000A08F0EAFC59
:101AF0008DED020AFFE79DED020A059880ED030ACD
:101B0000049890ED040AB5EE400AF1EE10FA05D102
:101B1000FFE79FED2B0A8DED010A11E0049890ED8F
:101B2000040A00F01DFB08F0FFFFB6EE001A20EEDD
:101B3000010AF0EE000A08F0C5FC8DED010AFFE78E
:101B40009DED010A059880ED040A04984069059905
:101B50004861059948694866059948690867049885
:101B600090ED010AB5EE400AF1EE10FA04D0FFE75D
:101B70000498406948B9FFE705994FF6FF70C7F62A
:101B80007F70C86005990861FFE7059890F83400F8
:101B9000C00720B9FFE7059948688863FFE7059803
:101BA00090ED011AB2EE040A30EE410AB0EE081AC6
:101BB00080EE010A80ED0F0A06B080BD48E17A3F51
:101BC000FFFF7F7F80B5CAB08DED491ACDED480A81
:101BD0008DED470ACDED462A8DED452ACDED441A0F
:101BE0008DED434ACDED423A8DED413A4090CDED39
:101BF0003F4A40994498459A469B0B63CA62886263
:101C00009DED470AB0EEC00A409890ED021AB4EE7E
:101C1000410AF1EE10FA1ADCFFE79DED480AB0EE3A
:101C2000C00A409890ED021AB4EE410AF1EE10FAA3
:101C30000DDCFFE79DED490AB0EEC00A409890ED3B
:101C4000021AB4EE410AF1EE10FA1CDDFFE7409BE8
:101C50009869D9691A6A5B6A3E933D923C913B90C0
:101C60004098FFF72DFE40993B983C9A3D9BDDF84C
:101C7000F8C0C1F824C00B62CA6188614099012094
:101C800081F84000FFE7409890F83400C00768B33F
:101C9000FFE7409890ED0E0A90ED0F1A9DED3F2A58
:101CA00021EE021A30EE410A80ED0E0A409890EDC6
:101CB000011A90ED0E0AB4EE410AF1EE10FA09DBBA
:101CC000FFE7409890ED010AB5EE400AF1EE10FAF8
:101CD0000BD1FFE74099486888634099002081F85C
:101CE0003400409981F84000FFE7FFE7409804F096
:101CF00009FF8DED3A1ACDED390A8DED380A002035
:101D00003790369035904099012081F85C009DED28
:101D1000440ADDED450A9DED461A00F0C3FC00289B
:101D200079D1FFE7409804909DED440ADDED450A26
:101D30009DED461A00F032FD8DED311ACDED300AE1
:101D40008DED2F0A9DED2F0ADDED300A9DED311A44
:101D5000DDED381A9DED392ADDED3A2AFFF714FD45
:101D600004998DED341ACDED330A8DED320A329897
:101D7000339A349BCB648A644864409890F834006A
:101D8000C00790B9FFE7409890ED110AD0ED120A14
:101D900090ED131A00F0B2FC409890ED031AB4EEE7
:101DA000410AF1EE10FA09DCFFE74099002081F8C2
:101DB0005C004099086E0938086604E04099086E96
:101DC00001300866FFE74099086E496E884207DDDA
:101DD000FFE7409900204866409981F85C0003E0E5
:101DE000409948694866FFE740984269006E0021C3
:101DF000FFF706FC40990866409890F85C00C00721
:101E000040B9FFE7409A506C916CD26C3792369192
:101E10003590FFE7FFE700202E902D902C90409901
:101E2000012081F868009DED410ADDED420A9DED3B
:101E3000431A00F037FC002840F09780FFE74098F5
:101E400004F0E8FE8DED2B1ACDED2A0A8DED290A5E
:101E5000409803909DED380ADDED390A9DED3A1A60
:101E6000DDED411A9DED422ADDED432A00F07AFBBB
:101E70008DED221ACDED210A8DED200A9DED200A6F
:101E8000DDED210A9DED221A00F088FC8DED251A6A
:101E9000CDED240A8DED230A9DED230ADDED240A04
:101EA0009DED251ADDED291A9DED2A2ADDED2B2A5F
:101EB000FFF76AFC03998DED281ACDED270A8DED09
:101EC000260A2698279A289B8B654A6508654098BC
:101ED00090F83400C00790B9FFE7409890ED140ADD
:101EE000D0ED150A90ED161A00F008FC409890ED20
:101EF000041AB4EE410AF1EE10FA09DCFFE740994A
:101F0000002081F868004099C86E0938C86604E06E
:101F10004099C86E0130C866FFE74099C86E096FE6
:101F2000884207DDFFE7409900200867409981F863
:101F3000680003E0409948690867FFE740984269F4
:101F4000C06E0021FFF75CFB4099C866409890F88E
:101F50006800C00740B9FFE7409A106D516D926D5F
:101F60002E922D912C90FFE7FFE7B6EE000A00F0CD
:101F7000F7F8F0EE401A9DED470ADDED480A9DEDB9
:101F8000491A00F0E1FB8DED1F1ACDED1E0A8DED13
:101F90001D0A9DED350ADDED360A9DED371ADDEDA2
:101FA0002C1A9DED2D2ADDED2E2A00F0ADFA8DEDD7
:101FB000161ACDED150A8DED140A4098D0ED0E1AC3
:101FC0009DED140ADDED150A9DED161A00F0BCFB1F
:101FD0008DED191ACDED180A8DED170A9DED1D0A2C
:101FE000DDED1E0A9DED1F1ADDED171A9DED182A75
:101FF000DDED192A00F088FA8DED1C1ACDED1B0AD3
:102000008DED1A0A40980190DDED3F1A9DED1A0AF8
:10201000DDED1B0A9DED1C1A00F096FB01988DED7D
:102020000B1ACDED0A0A8DED090A90ED060AD0EDE6
:10203000070A90ED081AD0ED091A9DED092ADDED89
:102040000A2A9DED0B3A00F097F90198CDED0F1A91
:102050008DED0E1ACDED0D0A8DED0C0A90ED060AF0
:10206000D0ED070A90ED081AD0ED091A9DED0C2A63
:10207000DDED0D2A9DED0E3ADDED0F3A00F0A4F8EE
:102080000199CDED131A8DED121ACDED110A8DEDDA
:10209000100A1098119A129BDDF84CC0C1F824C0A8
:1020A0000B62CA6188614098029090ED060AD0EDFB
:1020B000070A90ED081AD0ED091A00F0D7F9029935
:1020C000CDED081A8DED071ACDED060A8DED050A46
:1020D0000598069A079BDDF820C0C1F824C00B6262
:1020E000CA6188614AB080BD80B58CB08DED0B1A95
:1020F000CDED0A0A8DED090ACDED082A8DED072AEE
:10210000CDED061A05908DED043A05980021019158
:1021100002910391DDED044A9DED090ADDED0A0A05
:102120009DED0B1ADDED061A9DED072ADDED082A5F
:102130009DED013ADDED023A9DED034AFFF742FDC8
:10214000059890F83400C00730B1FFE705989FED7F
:10215000030AFFF70FFCFFE70CB080BD0000000092
:1021600081B08DED000A9DED000A9FED031A20EE6F
:10217000010A01B0704700BF35FA8E3C82B08DED88
:10218000010A01980090009941F21240C5F61F70B3
:10219000A0EB610000909DED000A9DED011A9FEDFE
:1021A000082A21EE021A21EE001A21EE001A9FEDF4
:1021B000052A31EE021A20EE010A02B0704700BF74
:1021C00012D336BFFF51D83F8CB0CDED071A8DED3D
:1021D000061ACDED050A8DED040ACDED033A8DED1D
:1021E000023ACDED012A8DED002A9DED040A9DED08
:1021F000001A30EE010A8DED080A9DED050A9DEDED
:10220000011A30EE010A8DED090A9DED060A9DEDD9
:10221000021A30EE010A8DED0A0A9DED070A9DEDC6
:10222000031A30EE010A8DED0B0A9DED080ADDED73
:10223000090A9DED0A1ADDED0B1A0CB0704700007B
:102240008CB0CDED071A8DED061ACDED050A8DED9A
:10225000040ACDED033A8DED023ACDED012A8DED64
:10226000002A9DED040A9DED055A9DED063A9DED6F
:10227000071A9DED006A9DED017A9DED024A9DEDE4
:10228000032A25EE075A20EE060A30EE450A23EE11
:10229000043A30EE430A21EE021A30EE410A8DED87
:1022A000080A9DED007A9DED016A9DED022A9DEDE3
:1022B000034A9DED043A9DED055A9DED060A9DEDFC
:1022C000071A25EE075A23EE063A33EE053A20EEBA
:1022D000040A30EE030A21EE021A30EE410A8DEDB7
:1022E000090A9DED004A9DED012A9DED026A9DEDD2
:1022F000037A9DED043A9DED055A9DED061A9DED7C
:10230000070A25EE075A23EE063A33EE453A21EE48
:10231000041A31EE031A20EE020A30EE010A8DEDA6
:102320000A0A9DED002A9DED014A9DED027A9DED80
:10233000036A9DED041A9DED055A9DED063A9DED4B
:10234000070A25EE075A21EE061A31EE051A23EE8A
:10235000043A31EE431A20EE020A30EE010A8DED06
:102360000B0A9DED080ADDED090A9DED0A1ADDED67
:102370000B1A0CB0704700008BB0CDED061A8DED36
:10238000051ACDED040A8DED030A8DED023ACDED6F
:10239000012A8DED002A9DED043A9DED050A9DED83
:1023A000061A9DED004A9DED015A9DED022A20EE90
:1023B000450A23EE043A30EE430A21EE021A30EECB
:1023C000410A8DED070A9DED004A9DED012A9DED24
:1023D000025A9DED030A9DED053A9DED061A23EE86
:1023E000053A20EE040A30EE030A21EE021A30EE1E
:1023F000410A8DED080A9DED002A9DED014A9DEDF3
:10240000025A9DED031A9DED043A9DED060A23EE56
:10241000053A21EE041A31EE431A20EE020A30EE9C
:10242000010A8DED090A9DED002A9DED015A9DEDF1
:10243000024A9DED030A9DED043A9DED051A23EE37
:10244000053A20EE040A30EE030A21EE021A30EEBD
:10245000410A8DED0A0A9DED070ADDED080A9DEDA2
:10246000091ADDED0A1A0BB07047000080B58AB07A
:10247000CDED051A8DED041ACDED030A8DED020A9E
:102480009DED022A9DED033A9DED041A9DED050A8E
:1024900023EE033A22EE022A32EE032A21EE011A3B
:1024A00031EE021A20EE000A30EE010AFFF766FE56
:1024B0008DED010A9DED020A9DED011A20EE010A43
:1024C0008DED060A9DED030A9DED011A20EE010A2D
:1024D0008DED070A9DED040A9DED011A20EE010A1B
:1024E0008DED080A9DED050A9DED011A20EE010A09
:1024F0008DED090A9DED060ADDED070A9DED081A2E
:10250000DDED091A0AB080BD89B08DED051ACDED5B
:10251000040A8DED030ACDED022A8DED012ACDEDE1
:10252000001A9DED030A9DED001A30EE010A8DEDB3
:10253000060A9DED040A9DED011A30EE010A8DEDAB
:10254000070A9DED050A9DED021A30EE010A8DED98
:10255000080A9DED060ADDED070A9DED081A09B08F
:102560007047000089B08DED051ACDED040A8DEDA0
:10257000030ACDED022A8DED012ACDED001A9DED65
:10258000013A9DED022A9DED040A9DED051A21EE0A
:10259000031A20EE020A30EE410A8DED060A9DED87
:1025A000031A9DED050A9DED002A9DED023A21EEEC
:1025B000031A20EE020A30EE410A8DED070A9DED66
:1025C000003A9DED012A9DED030A9DED041A21EECE
:1025D000031A20EE020A30EE410A8DED080A9DED45
:1025E000060ADDED070A9DED081A09B070470000E4
:1025F00080B58AB08DED091ACDED080A8DED070A78
:10260000CDED062A8DED052ACDED041A9DED070AC4
:10261000DDED080A9DED091ADDED041A9DED052A90
:10262000DDED062A00F010F88DED031ACDED020A5B
:102630008DED010A9DED010ADDED020A9DED031A03
:1026400000F0D8F80AB080BD89B08DED051ACDED47
:10265000040A8DED030ACDED022A8DED012ACDEDA0
:10266000001A9DED030A9DED001A20EE010A8DED82
:10267000060A9DED040A9DED011A20EE010A8DED7A
:10268000070A9DED050A9DED021A20EE010A8DED67
:10269000080A9DED060ADDED070A9DED081A09B04E
:1026A0007047000084B08DED031ACDED020A8DED68
:1026B000010A9DED010A0020B5EE400AF1EE10FA84
:1026C000009015D1FFE79DED020A0020B5EE400A0B
:1026D000F1EE10FA00900BD1FFE79DED030A002008
:1026E000B5EE400AF1EE10FA08BF01200090FFE7B6
:1026F000009800F0010004B07047000080B586B07B
:102700008DED051ACDED040A8DED030ADDED031AFA
:102710009DED042ADDED052AB0EE610AF0EE420AD5
:10272000B0EE621AFFF790FF8DED021ACDED010AAF
:102730008DED000A9DED000ADDED010A9DED021A06
:1027400000F058F806B080BD87B08DED031ACDEDCE
:10275000020A8DED010ACDED001A9DED010A9DEDF5
:10276000001A20EE010A8DED040A9DED020A9DED8E
:10277000001A20EE010A8DED050A9DED030A9DED7C
:10278000001A20EE010A8DED060A9DED040ADDED2A
:10279000050A9DED061A07B07047000080B588B0A5
:1027A0008DED041ACDED030A8DED020A9DED020AAE
:1027B000DDED030A9DED041AFFF7A0FFFFF7DEFC35
:1027C0008DED010ADDED011A9DED020ADDED030A32
:1027D0009DED041AFFF7B8FF8DED071ACDED060A3F
:1027E0008DED050A9DED050ADDED060A9DED071A42
:1027F00008B080BD83B08DED021ACDED010A8DEDDC
:10280000000A9DED000A9DED012A9DED021A30EEB1
:10281000020A30EE010A03B07047000082B0019056
:1028200000208DF80300019890F82500022807D0B9
:10283000FFE701990420C86301208DF803002DE013
:1028400001980168086820F00E0008600198816C0A
:10285000086820F48070086001980168086820F01A
:10286000010008600198016C406C00F01F0201201B
:10287000904048600198C16C006D48600198406DBF
:1028800058B1FFE70198416D086820F48070086036
:102890000198816DC06D4860FFE7FFE70199012055
:1028A00081F82500FFE70199002081F82400FFE767
:1028B0009DF8030002B0704780B582B001900020FF
:1028C0008DF80300019890F82500022811D0FFE749
:1028D00001990420C8630199012081F82500FFE7D0
:1028E0000199002081F82400FFE701208DF8030002
:1028F0003FE001980168086820F00E000860019828
:102900000168086820F0010008600198816C08687F
:1029100020F4807008600198016C406C00F01F0288
:102920000120904048600198C16C006D486001989A
:10293000406D58B1FFE70198416D086820F4807040
:1029400008600198816DC06D4860FFE70199012022
:1029500081F82500FFE70199002081F82400FFE7B6
:102960000198806B20B1FFE70198816B8847FFE7F2
:10297000FFE79DF8030002B080BD000080B584B081
:1029800003900398006C0068029003980068006848
:10299000019002980399496C01F01F01C84040075B
:1029A000002825D5FFE79DF80400400700281FD523
:1029B000FFE70398006800688006002807D4FFE757
:1029C00003980168086820F004000860FFE7039896
:1029D000016C406C00F01F02042090404860039896
:1029E000006B20B1FFE70398016B8847FFE76EE0BB
:1029F00002980399496C01F01F01C8408007002824
:102A00002FD5FFE79DF804008007002829D5FFE7B0
:102A1000039800680068800600280BD4FFE703983D
:102A20000168086820F00A0008600399012081F815
:102A30002500FFE70398016C406C00F01F020220A4
:102A400090404860FFE70399002081F82400FFE7E9
:102A50000398C06A20B1FFE70398C16A8847FFE77F
:102A600034E002980399496C01F01F01C840000747
:102A7000002829D5FFE79DF804000007002823D58A
:102A8000FFE703980168086820F00E0008600398CB
:102A9000026C406C00F01F01012000FA01F151604E
:102AA0000399C863039981F82500FFE70399002083
:102AB00081F82400FFE70398406B20B1FFE70398FB
:102AC000416B8847FFE700E0FFE7FFE7FFE704B05F
:102AD00080BD000080B584B00290029820B9FFE765
:102AE00001208DF80F009CE00298006840F2074139
:102AF000C4F20201884218D8FFE7029908684FF62D
:102B0000F872CBF6FD7210444CF6CD42CCF6CC42B6
:102B1000A0FB02026FF0030000EA920048640299F1
:102B20000020C4F20200086418E0029908684FF619
:102B3000F832CBF6FD7210444CF6CD42CCF6CC42C6
:102B4000A0FB02026FF0030000EA920048640299C1
:102B500040F20040C4F202000864FFE7029902203C
:102B600081F825000298006800680190019847F6F6
:102B7000F0718843019002998868D1F80CC00B6904
:102B80004A6940EA0C00184310438A691043CA6935
:102B90001043096A01430198084301900198029982
:102BA000096808600298FEF755FD02988068B0F544
:102BB000804F04D1FFE7029900204860FFE70299A7
:102BC0000879896C08600298C16C006D48600298B1
:102BD000406888B1FFE70298406804280CD8FFE7F6
:102BE0000298FEF771FD0298416D0020086002987E
:102BF000816DC06D486007E0029900204865029928
:102C000088650299C865FFE702990020C863029AA7
:102C1000012182F82510029981F824008DF80F0017
:102C2000FFE79DF80F0004B080BD000080B586B0BE
:102C3000049003910292019300208DF80300FFE7B6
:102C4000049890F82400012804D1FFE702208DF8B1
:102C5000170065E00499012081F82400FFE7FFE7F1
:102C6000049890F8250001284BD1FFE70499022031
:102C700081F8250004990020C86304980168086859
:102C800020F00100086004980399029A019BFEF766
:102C900039FD0498006B38B1FFE7049801680868B3
:102CA00040F00E0008600CE004980168086820F00D
:102CB0000400086004980168086840F00A00086091
:102CC000FFE70498806C0068C003002807D5FFE781
:102CD0000498816C086840F480700860FFE70498ED
:102CE000406D38B1FFE70498416D086840F480708A
:102CF0000860FFE704980168086840F00100086078
:102D000009E0FFE70499002081F82400FFE7022092
:102D10008DF80300FFE79DF803008DF81700FFE72B
:102D20009DF8170006B080BD80B584B0039000F018
:102D3000E7F90290039801900198013048B1FFE74C
:102D400040F20400C2F200000168019808440190BA
:102D5000FFE7FFE700F0D4F90299401A0199884291
:102D600001D2FFE7F6E704B080BD00008BB00A9007
:102D7000099100200890FFE7099800680899C84069
:102D8000002800F0A581FFE709980068089A012152
:102D90009140084007900798002800F09581FFE7D0
:102DA0000998406800F00300012807D0FFE7099860
:102DB000406800F0030002282FD1FFE70A988068DE
:102DC000069008984100032000FA01F10698884314
:102DD00006900998C0680899490000FA01F1069820
:102DE0000843069006980A9988600A9840680690F9
:102DF0000899012000FA01F1069888430690099885
:102E00004068C0F30010089900FA01F106980843E1
:102E1000069006980A994860FFE70998406800F014
:102E20000300032818D0FFE70A98C06806900898A6
:102E30004100032000FA01F10698884306900998A2
:102E400080680899490000FA01F106980843069045
:102E500006980A99C860FFE70998406800F00300E7
:102E6000022826D1FFE70A9808996FF0030202EAC8
:102E700051010844006A0690089800F0070081009C
:102E80000F2000FA01F1069888430690099800691E
:102E9000089901F00701890000FA01F1069808433A
:102EA000069006980A99089B02EA530211440862A8
:102EB000FFE70A980068069008984100032000FA8E
:102EC00001F10698884306900998406800F00300D5
:102ED0000899490000FA01F10698084306900698FF
:102EE0000A990860099880798007002800F0EB8033
:102EF000FFE7FFE741F26000C4F20200016841F021
:102F000001010160006800F0010005900598FFE7ED
:102F1000089820F003000821C4F2010140580690EF
:102F2000089800F0030081000F2000FA01F10698D4
:102F3000884306900A98B0F1904F03D1FFE7002034
:102F4000049042E00A9840F20041C4F60001884231
:102F500003D1FFE70120039034E00A9840F6000116
:102F6000C4F60001884203D1FFE70220029026E068
:102F70000A9840F60041C4F60001884203D1FFE7F9
:102F80000320019018E00A9841F20001C4F6000104
:102F9000884203D1FFE7042000900AE00A9941F239
:102FA0000042C4F600020620914208BF05200090AE
:102FB000FFE700980190FFE701980290FFE7029871
:102FC0000390FFE703980490FFE70498089901F045
:102FD0000301890000FA01F106980843069006985B
:102FE000089921F003010822C4F20102885040F23E
:102FF0000840C4F2010000680690079906988843CB
:10300000069009988079C006002805D5FFE7079942
:10301000069808430690FFE7069840F20841C4F27C
:103020000101086040F20C40C4F201000068069003
:1030300007990698884306900998807980060028A9
:1030400005D5FFE70799069808430690FFE706981D
:1030500040F20C41C4F20101086040F20440C4F2A5
:103060000100006806900799069888430690099821
:1030700080798007002805D5FFE70799069808435F
:103080000690FFE7069840F20441C4F2010108608F
:1030900040F20040C4F201000068069007990698CB
:1030A0008843069009988079C00728B1FFE70799FF
:1030B000069808430690FFE7069840F20041C4F2E4
:1030C00001010860FFE7FFE708980130089053E628
:1030D0000BB0704782B00190ADF802108DF801205E
:1030E0009DF8010028B1FFE7BDF802000199886151
:1030F00004E0BDF8020001998862FFE702B0704762
:1031000040F2F440C2F200000068704740F2040050
:10311000C2F20000026840F2F441C2F20001086805
:10312000104408607047000080B582B000208DF820
:103130000700032000F09AF80F2000F00DF820B1EE
:10314000FFE701208DF8070002E000F049F8FFE7F3
:103150009DF8070002B080BD80B582B001900020CC
:103160008DF8030040F20400C2F20000006878B35A
:10317000FFE740F20000C2F20000006840F20401E4
:10318000C2F200010A684FF47A71B1FBF2F1B0FBB0
:10319000F1F001F07FFFB0B9FFE701980F280DD8DB
:1031A000FFE701994FF0FF30002200F047F8019847
:1031B00040F20801C2F20001086003E001208DF82E
:1031C0000300FFE703E001208DF80300FFE703E0C1
:1031D00001208DF80300FFE79DF8030002B080BDD9
:1031E00080B582B0FFE741F26000C4F202000168DE
:1031F00041F001010160006800F0010001900198B8
:10320000FFE7FFE741F25800C4F20200016841F015
:1032100080510160006800F0805000900098FFE746
:1032200000F006F902B080BD80B582B08DF80700CD
:103230009DF9070006F014F902B080BD80B586B094
:103240008DF817000491039206F022F902909DF97F
:103250001700019002980499039A04F0CBF90146F3
:10326000019806F01DF906B080BD000080B582B05F
:103270000190019806F036F902B080BD85B0039048
:10328000039800285ED1FFE747F20000C4F2000077
:10329000006800F4C060B0F5806F49D1FFE747F2E5
:1032A0008001C4F20001086820F48070086047F2D1
:1032B0000002C4F200021168012060F34A2111608B
:1032C00040F20001C2F200010968322251434DF67A
:1032D0008362C4F21B32A1FB022100EB91400290F9
:1032E000FFE747F21400C4F200000168002049051E
:1032F0000029019006D5FFE70298002818BF012099
:103300000190FFE70198C00720B1FFE7029801385C
:103310000290E6E747F21400C4F20000006840059E
:10332000002804D5FFE703208DF813007CE008E0B7
:1033300047F28001C4F20001086820F48070086040
:10334000FFE76DE00398B0F5007F5ED1FFE747F23D
:103350000000C4F20000006800F4C060B0F5806FA7
:1033600049D1FFE747F28001C4F20001086840F448
:103370008070086047F20002C4F200021168012068
:1033800060F34A21116040F20001C2F200010968B5
:10339000322251434DF68362C4F21B32A1FB02215B
:1033A00000EB91400290FFE747F21400C4F20000E6
:1033B0000168002049050029009006D5FFE7029822
:1033C000002818BF01200090FFE70098C00720B137
:1033D000FFE7029801380290E6E747F21400C4F2D2
:1033E000000000684005002804D5FFE703208DF8A1
:1033F000130019E008E047F28001C4F200010868F8
:1034000040F480700860FFE709E047F20001C4F271
:1034100000010868022262F34A200860FFE7FFE724
:1034200000208DF81300FFE79DF8130005B07047EA
:1034300047F20801C4F20001086840F480400860C7
:103440007047000080B586B0059000208DF80B0015
:103450008DF80A00059880780007002840F1B580B3
:10346000FFE700208DF8090041F25800C4F2020085
:103470000068C000002813D4FFE7FFE741F25800BE
:10348000C4F20200016841F080510160006800F060
:10349000805001900198FFE701208DF80900FFE7B7
:1034A00047F20001C4F20001086840F4807008602F
:1034B000FFF726FE0390FFE747F20000C4F200008A
:1034C0000068C00500280CD4FFE7FFF719FE039938
:1034D000401A032804D3FFE703208DF80B0000E017
:1034E000EAE79DF80B0000285BD1FFE741F290006E
:1034F000C4F20200006800F4407004900498C8B15F
:10350000FFE704980599096C884213D0FFE741F260
:103510009001C4F20201086820F440700490086829
:1035200040F480300860086820F480300860049817
:103530000860FFE79DF81000C007E0B1FFE7FFF764
:10354000DFFD0390FFE741F29000C4F20200006843
:10355000800700280ED4FFE7FFF7D2FD0399401A39
:1035600041F28931884204D3FFE703208DF80B0034
:1035700000E0E8E7FFE79DF80B0060B9FFE741F2E4
:103580009001C4F20201086820F44070059A126CA0
:103590001043086004E09DF80B008DF80A00FFE777
:1035A00004E09DF80B008DF80A00FFE79DF8090084
:1035B000012809D1FFE741F25801C4F2020108686D
:1035C00020F080500860FFE7FFE705980078C0070B
:1035D00060B1FFE741F28801C4F20201086820F0FF
:1035E0000300059A526810430860FFE705980078C9
:1035F000800700280CD5FFE741F28801C4F20201E0
:10360000086820F00C00059A926810430860FFE7F4
:1036100005980078400700280CD5FFE741F28801A3
:10362000C4F20201086820F03000059AD268104305
:103630000860FFE705980078000700280CD5FFE731
:1036400041F28801C4F20201086820F0C000059A26
:10365000126910430860FFE705980078800600288B
:103660000CD5FFE741F28801C4F20201086820F49A
:103670004060059A526910430860FFE7059800789A
:10368000400600280CD5FFE741F28801C4F2020190
:10369000086820F44050059A926910430860FFE7DB
:1036A00005980078000600280CD5FFE741F2880154
:1036B000C4F20201086820F44040059AD269104320
:1036C0000860FFE705984078C00760B1FFE741F266
:1036D0008801C4F20201086820F44030059A126A99
:1036E00010430860FFE705984078800700280CD554
:1036F000FFE741F28801C4F20201086820F440208B
:10370000059A526A10430860FFE705984078400721
:1037100000281BD5FFE741F28801C4F202010868C6
:1037200020F44010059A926A104308600598806A58
:10373000B0F5801F09D1FFE741F20C01C4F202018C
:10374000086840F480100860FFE7FFE705984078BC
:10375000000700281BD5FFE741F28801C4F20201EF
:10376000086820F44000059AD26A10430860059862
:10377000C06AB0F5800F09D1FFE741F20C01C4F235
:103780000201086840F480100860FFE7FFE7059831
:103790004078C00600281BD5FFE741F28801C4F23B
:1037A0000201086820F04070059A126B104308600F
:1037B0000598006BB0F1807F09D1FFE741F20C0161
:1037C000C4F20201086840F480100860FFE7FFE7D8
:1037D00005984078800600281BD5FFE741F2880154
:1037E000C4F20201086820F04060059A526B104351
:1037F00008600598406BB0F1006F09D1FFE741F216
:103800000C01C4F20201086840F480100860FFE770
:10381000FFE705984078400600281BD5FFE741F2F6
:103820008801C4F20201086820F04060059A926B9A
:10383000104308600598806BB0F1006F09D1FFE775
:1038400041F20C01C4F20201086840F480100860E3
:10385000FFE7FFE705984078000600281BD5FFE743
:1038600041F28801C4F20201086820F04050059A34
:10387000D26B104308600598C06BB0F1805F09D12E
:10388000FFE741F20C01C4F20201086840F4803005
:103890000860FFE7FFE79DF80A0006B080BD000062
:1038A00080B586B00490039100200090049820B960
:1038B000FFE701208DF8170081E1039842F2000133
:1038C000C4F20201096801F00F01884216D9FFE72E
:1038D00042F20000C4F20200016821F00F01039AD5
:1038E00011430160006800F00F000399884204D082
:1038F000FFE701208DF8170061E1FFE704980078E9
:10390000C007002800F0A380FFE704984068032860
:1039100039D1FFE741F20000C4F2020000688001E3
:10392000002804D4FFE701208DF8170047E103F0D9
:1039300099FE019001984BF20141C0F2C4418842C6
:1039400020D3FFE741F20800C4F20200006810F043
:10395000F00F0AD0FFE7049800788007002810D500
:10396000FFE70498806860B9FFE741F20801C4F2FC
:1039700002010868082262F30710086080200090A6
:10398000FFE7FFE738E00498406802280ED1FFE720
:1039900041F20000C4F2020000688003002804D451
:1039A000FFE701208DF8170009E10DE041F200006A
:1039B000C4F2020000684005002804D4FFE701209B
:1039C0008DF81700FBE0FFE700F02CF9019001985B
:1039D0004BF20141C0F2C44188420CD3FFE741F2EF
:1039E0000801C4F202010868082262F307100860A7
:1039F00080200090FFE7FFE741F20801C4F20201D6
:103A0000086820F00300049A526810430860FFF72A
:103A100077FB0290FFE741F20800C4F20200006861
:103A200000F00C0004994968B0EB810F0ED0FFE75D
:103A3000FFF766FB0299401A41F28931884204D3AC
:103A4000FFE703208DF81700B9E0E4E7FFE70498EB
:103A50000078800700282CD5FFE7049800784007FD
:103A6000002809D5FFE741F20801C4F20201086805
:103A700040F4E0600860FFE7049800780007002841
:103A80000BD5FFE741F20801C4F20201086840F4D7
:103A9000E06020F460500860FFE741F20801C4F2E2
:103AA0000201086820F0F000049A92681043086050
:103AB0000DE00098802809D1FFE741F20801C4F227
:103AC0000201086820F0F0000860FFE7FFE70398B4
:103AD00042F20001C4F20201096801F00F018842BC
:103AE00028D2FFE742F20001C4F20201086820F088
:103AF0000F00039A10430860FFF702FB0290FFE7F4
:103B000042F20000C4F20200006800F00F000399C6
:103B100088420ED0FFE7FFF7F3FA0299401A41F20C
:103B20008931884204D3FFE703208DF8170046E06F
:103B3000E6E7FFE704980078400700280CD5FFE788
:103B400041F20801C4F20201086820F4E060049A1E
:103B5000D26810430860FFE7049800780007002847
:103B60000DD5FFE741F20801C4F20201086820F414
:103B70006050049A126940EAC2000860FFE700F052
:103B800051F841F20801C4F202010968C9B20A09F8
:103B90004BF6F411C0F60001895C01F01F01C8402A
:103BA00040F20001C2F20001086040F20800C2F2D7
:103BB00000000068FFF7D0FA8DF81700FFE79DF8C6
:103BC000170006B080BD000040F20000C2F2000005
:103BD0000068704780B5FFF7F7FF41F20801C4F2B3
:103BE00002010968C1F302224BF60421C0F600016C
:103BF000895C01F01F01C84080BD000080B5FFF75F
:103C0000E3FF41F20801C4F202010968C1F3C222D4
:103C10004BF60421C0F60001895C01F01F01C84089
:103C200080BD000086B041F20800C4F202000068C6
:103C300000F00C00042806D1FFE742F20040C0F279
:103C4000F400019069E041F20800C4F2020000684B
:103C500000F00C00082806D1FFE747F64000C0F24C
:103C60007D10019058E041F20800C4F202000068A3
:103C700000F00C000C284BD1FFE741F20C00C4F21D
:103C80000200016801F0030104910068C1B2012043
:103C900000EB1110029004980090022815D0FFE765
:103CA0000098032812D1FFE7029947F64000C0F2BE
:103CB0007D10B0FBF1F041F20C01C4F20201096881
:103CC000C1F306214843059011E0FFE7029942F253
:103CD0000040C0F2F400B0FBF1F041F20C01C4F27C
:103CE00002010968C1F3062148430590FFE741F24C
:103CF0000C00C4F20200006800F0C061022000EB7A
:103D00001160039005980399B0FBF1F0019002E077
:103D100000200190FFE7FFE7FFE7019806B070473A
:103D2000B0B588B00690069820B9FFE701208DF85D
:103D30001F00CCE306980078C007002800F09B80A5
:103D4000FFE741F20800C4F20200006800F00C0036
:103D5000049041F20C00C4F20200006800F003007D
:103D6000039004980C2804D1FFE70398032804D09B
:103D7000FFE70498082812D1FFE741F20000C4F2DF
:103D8000020000688003002808D5FFE70698406815
:103D900020B9FFE701208DF81F0098E36AE0FFE7F4
:103DA00006984068B0F5803F09D1FFE741F2000175
:103DB000C4F20201086840F48030086020E00698F0
:103DC0004068B0F5A02F0DD1FFE741F20001C4F229
:103DD0000201086840F480200860086840F48030E0
:103DE00008600CE041F20001C4F20201086820F40E
:103DF00080300860086820F480200860FFE7FFE753
:103E0000FFE706984068D0B1FFE7FFF779F9059022
:103E1000FFE741F20000C4F20200006880030028BE
:103E20000CD4FFE7FFF76CF90599401A652804D315
:103E3000FFE703208DF81F0049E3EAE719E0FFF7E9
:103E40005FF90590FFE741F20000C4F2020000684C
:103E5000800300280CD5FFE7FFF752F90599401AB7
:103E6000652804D3FFE703208DF81F002FE3EAE75E
:103E7000FFE7FFE7FFE7069800788007002840F19A
:103E80009F80FFE741F20800C4F20200006800F0E2
:103E90000C00049041F20C00C4F20200006800F033
:103EA0000300039004980C2804D1FFE7039802282C
:103EB00004D0FFE7049804282CD1FFE741F200006A
:103EC000C4F2020000684005002808D5FFE7069804
:103ED000C06820B9FFE701208DF81F00F7E241F22A
:103EE0000401C4F20201086820F0FE40069A12693B
:103EF00040EA0260086040F20800C2F20000006878
:103F0000FFF72AF920B1FFE701208DF81F00DEE25C
:103F1000FFE754E00698C06870B3FFE741F2000184
:103F2000C4F20201086840F480700860FFF7E8F806
:103F30000590FFE741F20000C4F20200006840056E
:103F400000280CD4FFE7FFF7DBF80599401A032897
:103F500004D3FFE703208DF81F00B8E2EAE741F23F
:103F60000401C4F20201086820F0FE40069A1269BA
:103F700040EA0260086021E041F20001C4F202015F
:103F8000086820F480700860FFF7BAF80590FFE732
:103F900041F20000C4F202000068400500280CD580
:103FA000FFE7FFF7ADF80599401A032804D3FFE7B0
:103FB00003208DF81F008AE2EAE7FFE7FFE7FFE74B
:103FC000069800780007002849D5FFE70698406961
:103FD00010B3FFE741F29401C4F20201086840F017
:103FE00001000860FFF78CF80590FFE741F29400AC
:103FF000C4F202000068800700280CD4FFE7FFF736
:104000007FF80599401A032804D3FFE703208DF8B1
:104010001F005CE2EAE721E041F29401C4F20201F0
:10402000086820F001000860FFF76AF80590FFE7D4
:1040300041F29400C4F202000068800700280CD509
:10404000FFE7FFF75DF80599401A032804D3FFE75F
:1040500003208DF81F003AE2EAE7FFE7FFE7069842
:1040600000784007002840F1C680FFE700208DF867
:104070000B0041F25800C4F202000068C0000028A2
:1040800013D4FFE7FFE741F25800C4F202000168D1
:1040900041F080510160006800F08050019001986B
:1040A000FFE701208DF80B00FFE747F20000C4F2A4
:1040B00000000068C005002822D4FFE747F2000195
:1040C000C4F20001086840F480700860FFF718F837
:1040D0000590FFE747F20000C4F200000068C00549
:1040E00000280CD4FFE7FFF70BF80599401A0328C6
:1040F00004D3FFE703208DF81F00E8E1EAE7FFE7BC
:10410000FFE706988068012809D1FFE741F2900196
:10411000C4F20201086840F0010008601FE0069840
:10412000806805280DD1FFE741F29001C4F2020139
:10413000086840F004000860086840F0010008606A
:104140000CE041F29001C4F20201086820F0010085
:104150000860086820F004000860FFE7FFE7FFE759
:1041600006988068E0B1FFE7FEF7CAFF0590FFE719
:1041700041F29000C4F202000068800700280ED4CB
:10418000FFE7FEF7BDFF0599401A41F289318842E9
:1041900004D3FFE703208DF81F0098E1E8E71BE058
:1041A000FEF7AEFF0590FFE741F29000C4F2020077
:1041B0000068800700280ED5FFE7FEF7A1FF0599EC
:1041C000401A41F28931884204D3FFE703208DF879
:1041D0001F007CE1E8E7FFE79DF80B00012809D10B
:1041E000FFE741F25801C4F20201086820F0805054
:1041F0000860FFE7FFE7069800788006002849D5A9
:10420000FFE70698806910B3FFE741F29801C4F216
:104210000201086840F001000860FEF771FF059098
:10422000FFE741F29800C4F202000068800700280E
:104230000CD4FFE7FEF764FF0599401A032804D366
:10424000FFE703208DF81F0041E1EAE721E041F29A
:104250009801C4F20201086820F001000860FEF72E
:104260004FFF0590FFE741F29800C4F2020000689A
:10427000800700280CD5FFE7FEF742FF0599401A9A
:10428000032804D3FFE703208DF81F001FE1EAE7AE
:10429000FFE7FFE70698C069002800F01481FFE7F8
:1042A00041F20800C4F20200006800F00C000C2883
:1042B00000F0B080FFE70698C06902287CD1FFE7D4
:1042C00041F20001C4F20201086820F08070086029
:1042D000FEF716FF0590FFE741F20000C4F202006E
:1042E0000068800100280CD5FFE7FEF709FF05995B
:1042F000401A032804D3FFE703208DF81F00E6E0EF
:10430000EAE741F20C01C4F20201086848F20C022B
:10431000C0F29F121040DDF818C0DCF82020DCF855
:104320002450DCF828E0DCF82C306FF00F0404EBAC
:104330000514224342EA0E22DCF8304040F2000E1F
:10434000CFF6E07E0EEA045EAEF5001E42EA0E02F3
:10435000DCF834E04FF07E4C0CEA0E6C0CF17E4C35
:1043600042EA0C0242EAC3621043086041F20002D2
:10437000C4F20202106840F080701060086840F0DB
:1043800080700860FEF7BCFE0590FFE741F2000078
:10439000C4F202000068800100280CD4FFE7FEF799
:1043A000AFFE0599401A032804D3FFE703208DF8D8
:1043B0001F008CE0EAE72CE041F20001C4F20201A8
:1043C000086820F080700860FEF79AFE0590FFE70D
:1043D00041F20000C4F202000068800100280CD500
:1043E000FFE7FEF78DFE0599401A032804D3FFE787
:1043F00003208DF81F006AE0EAE741F20C01C4F2E5
:10440000020108684FF6FC72CFF6EE6210400860B9
:10441000FFE757E00698C069012804D1FFE70120B3
:104420008DF81F0053E041F20C00C4F20200006856
:104430000390039800F003000699096A88423BD173
:10444000FFE7039800F0F00006994A6A6FF00F0149
:1044500001EB021188422FD1FFE7039800F4FE40E0
:104460000699896AB0EB012F26D1FFE7039800F087
:1044700078400699C96AB0EBC16F1DD1FFE7039878
:1044800000F4C00006990A6B0021CFF6E07101EA42
:104490000251A1F5001188420ED1FFE7039800F008
:1044A000C06006994A6B4FF07E4101EA026101F15A
:1044B0007E41884204D0FFE701208DF81F0006E00E
:1044C000FFE7FFE7FFE700208DF81F00FFE79DF8FB
:1044D0001F0008B0B0BD000080B584B00290029803
:1044E00020B9FFE701208DF80F0097E00298406A9D
:1044F00060B9FFE702984068B0F5827F01D1FFE71D
:1045000003E002990020C861FFE705E0029900205E
:10451000086102994861FFE70299002088620298C9
:1045200090F85D0040B9FFE70299002081F85C0037
:10453000029800F077F8FFE70299022081F85D0009
:1045400002980168086820F0400008600298C0687E
:10455000B0F5E06F03D9FFE70020019003E04FF4CE
:1045600080500190FFE70298C068B0F5706F0AD0E4
:10457000FFE70298C068B0F5E06F04D0FFE702994A
:1045800000208862FFE7029A009211685068D2F812
:1045900008C0136900F482700CF4044C604403F00A
:1045A00002031844536903F001031844936903F4A8
:1045B00000731844D36903F038031844136A03F0F6
:1045C00080031844926A02F4005210430860029B70
:1045D000588B00F004001968DA68D3F824C05B6BCC
:1045E0000CF0100C604403F00803184402F47062ED
:1045F0001044019A02F48052104448600298016805
:10460000C86920F40060C861029900200866029A17
:10461000012182F85D108DF80F00FFE79DF80F0073
:1046200004B080BD80B588B007900020069005904A
:104630000490039002900798006843F20001C4F2CE
:10464000010188422DD1FFE7FFE741F26000C4F28B
:104650000200016841F480510160006800F480505C
:1046600001900198FFE7FFE741F24C00C4F202001D
:10467000016841F001010160006800F00100009054
:104680000098FFE7E02002900220039000200490B1
:104690000590052006904FF0904002A9FEF766FBBA
:1046A000FFE708B080BD000080B588B00690059196
:1046B000ADF812200393069890F85D00012804D00D
:1046C000FFE702208DF81F002FE1059820B1FFE7DA
:1046D000BDF8120020B9FFE701208DF81F0024E18A
:1046E00006984068B0F5827F16D1FFE7069880688B
:1046F00090B9FFE70699042081F85D000698059AB5
:10470000BDF812300399EC46CCF80010114600F0C9
:104710008DFA8DF81F0008E1FEF7F2FC0290FFE72A
:10472000069890F85C00012804D1FFE702208DF87C
:104730001F00FAE00699012081F85C00FFE7FFE71F
:104740000699042081F85D00069900200866059905
:10475000069A1164BDF81210069AA2F84410BDF82A
:104760001210069AA2F8461006998863069988875F
:104770000699C8870699C864069908650698C068AE
:10478000B0F5E06F07D9FFE706980168486820F4A4
:104790008050486006E006980168486840F4805000
:1047A0004860FFE706988068B0F5004F0DD1FFE73D
:1047B00006980168086820F04000086006980168C3
:1047C000086820F480400860FFE7069800680068E9
:1047D00000F04000402807D0FFE70698016808680D
:1047E00040F040000860FFE70698C068B0F5E06F51
:1047F0003DD8FFE7FFE70698B0F84600B0B3FFE703
:10480000069800688068C00788B1FFE706980068CE
:10481000007B0699096C08700699086C01300864E1
:104820000699B1F846000138A1F846001DE0FEF7F0
:1048300067FC0299401A0399884204D3FFE7039862
:10484000013018B9FFE7039870B9FFE70699012016
:1048500081F85D00FFE70699002081F85C00FFE722
:1048600003208DF81F0060E0FFE7C4E73CE0FFE7AE
:104870000698B0F84600B0B3FFE706980068806875
:10488000C00788B1FFE706980068C0680699096C00
:1048900008800699086C023008640699B1F8460051
:1048A0000138A1F846001DE0FEF72AFC0299401AE3
:1048B0000399884204D3FFE70398013018B9FFE752
:1048C000039870B9FFE70699012081F85D00FFE7C2
:1048D0000699002081F85C00FFE703208DF81F0097
:1048E00023E0FFE7C4E7FFE706980399029A02F086
:1048F00007FF20B1FFE7069920200866FFE7069929
:10490000012081F85D00FFE70699002081F85C0036
:10491000FFE70698006E20B1FFE701208DF81F0029
:1049200003E000208DF81F00FFE79DF81F0008B08E
:1049300080BD000080B588B006900591ADF81220CA
:104940000393FEF7DDFB0290BDF81200ADF8060000
:10495000069890F85D00012804D0FFE702208DF84A
:104960001F005FE1059820B1FFE7BDF8120020B9F4
:10497000FFE701208DF81F0054E1FFE7069890F84B
:104980005C00012804D1FFE702208DF81F0049E1F7
:104990000699012081F85C00FFE7FFE706990320F4
:1049A00081F85D000699002008660599069A9163D2
:1049B000BDF81210069A9187BDF81210069AD18799
:1049C000069908640699A1F844000699A1F84600E2
:1049D000069908650699C86406988068B0F5004F86
:1049E0000DD1FFE706980168086820F040000860D4
:1049F00006980168086840F480400860FFE7069860
:104A00000068006800F04000402807D0FFE70698E3
:104A10000168086840F040000860FFE70698C06839
:104A2000B0F5E06F51D9FFE70698406828B1FFE77D
:104A3000BDF8060001280ED1FFE706980168806BDB
:104A40000088C8600699886B023088630699C88F11
:104A50000138C887FFE7FFE70698C08FA0B3FFE7DC
:104A6000069800688068800700280ED5FFE7069842
:104A70000168806B0088C8600699886B0230886383
:104A80000699C88F0138C8871DE0FEF739FB0299E7
:104A9000401A0399884204D3FFE70398013018B9FC
:104AA000FFE7039870B9FFE70699012081F85D00E0
:104AB000FFE70699002081F85C00FFE703208DF8EE
:104AC0001F00AFE0FFE7C7E779E00698406828B12C
:104AD000FFE7BDF80600012822D1FFE70698C08F46
:104AE00002280ED3FFE706980168806B0088C86033
:104AF0000699886B023088630699C88F0238C88788
:104B00000DE006980168806B007808730699886B41
:104B1000013088630699C88F0138C887FFE7FFE72F
:104B2000FFE70698C08F002848D0FFE70698006886
:104B300080688007002822D5FFE70698C08F0228EA
:104B40000ED3FFE706980168806B0088C86006995D
:104B5000886B023088630699C88F0238C8870DE0D9
:104B600006980168806B007808730699886B01309D
:104B700088630699C88F0138C887FFE71DE0FEF7F4
:104B8000BFFA0299401A0399884204D3FFE70398B9
:104B9000013018B9FFE7039870B9FFE706990120C3
:104BA00081F85D00FFE70699002081F85C00FFE7CF
:104BB00003208DF81F0035E0FFE7B2E7FFE7069816
:104BC0000399029A02F0FEFD20B1FFE7069920202A
:104BD0000866FFE70698806870B9FFE7FFE70020E6
:104BE000009006980068C068009006980068806889
:104BF00000900098FFE7FFE70699012081F85D002B
:104C0000FFE70699002081F85C00FFE70698006E38
:104C100020B1FFE701208DF81F0003E000208DF890
:104C20001F00FFE79DF81F0008B080BD80B58CB065
:104C3000DDF838C00A9009910892ADF81E300120C5
:104C40000290FEF75DFA03900A9890F85D008DF8E7
:104C500013000A9840680590BDF81E00ADF81C00CE
:104C6000BDF81E00ADF81A009DF81300012812D0FF
:104C7000FFE70598B0F5827F09D1FFE70A988068C1
:104C800028B9FFE79DF81300042804D0FFE70220AD
:104C90008DF82F00FAE1099838B1FFE7089820B1A4
:104CA000FFE7BDF81E0020B9FFE701208DF82F00B7
:104CB000ECE1FFE70A9890F85C00012804D1FFE7D7
:104CC00002208DF82F00E1E10A99012081F85C00B3
:104CD000FFE7FFE70A9890F85D00042805D0FFE79A
:104CE0000A99052081F85D00FFE70A99002008660F
:104CF00008990A9A1164BDF81E100A9AA2F8461083
:104D0000BDF81E100A9AA2F8441009990A9A9163F4
:104D1000BDF81E100A9AD187BDF81E100A9A918715
:104D20000A99C8640A9908650A98C068B0F5E06FE6
:104D300005D8FFE7BDF81A00022807D3FFE70A9855
:104D40000168486820F48050486006E00A980168CD
:104D5000486840F480504860FFE70A98006800689F
:104D600000F04000402807D0FFE70A980168086873
:104D700040F040000860FFE70A98C068B0F5E06FB7
:104D800040F28580FFE70A98406828B1FFE7BDF848
:104D90001C0001280ED1FFE70A980168806B00888B
:104DA000C8600A99886B023088630A99C88F0138F5
:104DB000C887FFE7FFE70A98C18F0120019041B93A
:104DC000FFE70A98B0F84600002818BF01200190BC
:104DD000FFE70198C007002858D0FFE70A9800684D
:104DE00080688007002818D5FFE70A98C08FA0B117
:104DF000FFE70298012810D1FFE70A980168806B4D
:104E00000088C8600A99886B023088630A99C88F45
:104E10000138C88700200290FFE70A980068806880
:104E2000C007C0B1FFE70A98B0F8460098B1FFE7A5
:104E30000A980068C0680A99096C08800A99086C89
:104E4000023008640A99B1F846000138A1F846001A
:104E500001200290FFE7FEF753F90399401A0E99DB
:104E6000884212D3FFE70E98013070B1FFE70A992C
:104E7000012081F85D00FFE70A99002081F85C00BD
:104E8000FFE703208DF82F0000E194E7D4E00A98B3
:104E9000406828B1FFE7BDF81C00012822D1FFE7D8
:104EA0000A98C08F02280ED3FFE70A980168806B2A
:104EB0000088C8600A99886B023088630A99C88F95
:104EC0000238C8870DE00A980168806B0078087383
:104ED0000A99886B013088630A99C88F0138C8879E
:104EE000FFE7FFE7FFE70A98C18F0120009041B973
:104EF000FFE70A98B0F84600002818BF012000908C
:104F0000FFE70098C007002800F09580FFE70A98A7
:104F100000688068800700282CD5FFE70A98C08FBA
:104F200040B3FFE70298012824D1FFE70A98C08F19
:104F300002280ED3FFE70A980168806B0088C860DA
:104F40000A99886B023088630A99C88F0238C8872B
:104F50000DE00A980168806B007808730A99886BE5
:104F6000013088630A99C88F0138C887FFE700209D
:104F70000290FFE70A9800688068C007E8B3FFE77F
:104F80000A98B0F84600C0B3FFE70A98B0F84600A8
:104F900002281ED3FFE70A980068C0680A99096CC6
:104FA00008800A99086C023008640A99B1F8460032
:104FB0000238A1F846000A98B0F84600012807D840
:104FC000FFE70A980168486840F480504860FFE7AE
:104FD00010E00A980068007B0A99096C08700A9929
:104FE000086C013008640A99B1F846000138A1F84C
:104FF0004600FFE701200290FFE7FEF781F80399E2
:10500000401A0E99884204D3FFE70E98013018B970
:10501000FFE70E9870B9FFE70A99012081F85D005B
:10502000FFE70A99002081F85C00FFE703208DF874
:105030002F002BE057E7FFE70A980E99039A02F03A
:10504000C1FB68B1FFE70A9920200866FFE70A99CB
:10505000002081F85C00FFE701208DF82F0015E0AB
:105060000A99012081F85D00FFE70A99002081F884
:105070005C00FFE70A98006E20B1FFE701208DF881
:105080002F0003E000208DF82F00FFE79DF82F0090
:105090000CB080BD80B582B00190019802F01CFD7B
:1050A00002B080BD81B0009001B0704781B0009027
:1050B00001B0704781B0009001B0704781B000909E
:1050C00001B0704781B0009001B0704781B000908E
:1050D00001B0704785B003900291FFE7039890F804
:1050E0003C00012804D1FFE702208DF813008CE07A
:1050F0000399012081F83C00FFE7FFE703990220B4
:1051000081F83D00039800684068019003980068AA
:10511000806800900398006842F60041C4F20101E3
:10512000884209D0FFE70398006843F20041C4F2C7
:10513000010188420AD1FFE7019820F47000019034
:1051400002984168019808430190FFE701984FF6E3
:105150008F71CFF6FF5108400190029801680198C5
:105160000843019001980399096848600398006812
:1051700042F60041C4F2010188422AD0FFE70398B9
:105180000068B0F1804F24D0FFE70398006840F238
:105190000041C4F2000188421BD0FFE70398006879
:1051A00040F60001C4F20001884212D0FFE70398E4
:1051B000006843F20041C4F20101884209D0FFE7D0
:1051C0000398006844F20001C4F2010188420ED144
:1051D000FFE7009820F08000009002988168009816
:1051E000084300900098039909688860FFE70399D5
:1051F000012081F83D00FFE70399002081F83C0081
:10520000FFE700208DF81300FFE79DF8130005B0BD
:105210007047000081B0009001B0704780B582B047
:105220000090009820B9FFE701208DF8070045E0C5
:10523000009890F83D0040B9FFE70099002081F800
:105240003C00009800F03EF8FFE70099022081F84A
:105250003D00009951F8040B02F0CCFC00990120AC
:1052600081F84800FFE70099012081F83E0000998D
:1052700081F83F00009981F84000009981F84100D1
:10528000009981F84200009981F84300FFE7FFE7A9
:105290000099012081F84400009981F845000099A7
:1052A00081F84600009981F84700FFE70099012046
:1052B00081F83D0000208DF80700FFE79DF807000A
:1052C00002B080BD80B584B003900398006840F2BE
:1052D0000041C4F20001884219D1FFE7FFE741F223
:1052E0005800C4F20200016841F002010160006848
:1052F00000F0020002900298FFE71D2001900022BA
:105300001146FDF79BFF0198FDF78EFFFFE704B004
:1053100080BD000083B00190019890F83D00012805
:1053200004D0FFE701208DF80B0060E00199022016
:1053300081F83D0001980168C86840F00100C8602C
:105340000198006842F60041C4F2010188422AD067
:10535000FFE701980068B0F1804F24D0FFE7019883
:10536000006840F20041C4F2000188421BD0FFE710
:105370000198006840F60001C4F20001884212D092
:10538000FFE70198006843F20041C4F2010188423E
:1053900009D0FFE70198006844F20001C4F201015E
:1053A000884219D1FFE70198006880680721C0F2A0
:1053B000010108400090009806280CD0FFE70098F3
:1053C000B0F5803F07D0FFE701980168086840F01A
:1053D00001000860FFE706E001980168086840F0F6
:1053E00001000860FFE700208DF80B00FFE79DF843
:1053F0000B0003B07047000080B586B004900391A5
:1054000000208DF80B00FFE7049890F83C0001287D
:1054100004D1FFE702208DF81700D3E004990120A2
:1054200081F83C00FFE7FFE70499022081F83D0086
:10543000049800688068019001984FF68871CFF653
:10544000CE7108400190019820F47F4001900198AE
:10545000049909688860039800680090002800F0AB
:105460009780FFE70098102800F09280FFE70098EF
:10547000202800F08D80FFE70098302800F0888019
:10548000FFE70098402876D0FFE70098502858D0D2
:10549000FFE70098602861D0FFE7009870282CD0C3
:1054A000FFE70098B0F5805F26D0FFE70098B0F5E1
:1054B000005F37D0FFE70098B0F1101F68D0FFE71A
:1054C00000982021C0F21001884261D0FFE70098C7
:1054D0003021C0F2100188425AD0FFE700984021E5
:1054E000C0F21001884253D0FFE700987021C0F24B
:1054F000100188424CD052E055E004980068039BAC
:105500005A689968DB6802F05DFC0498006880685E
:105510000190019840F07700019001980499096882
:10552000886040E004980068039B5A689968DB68CB
:1055300002F048FC04980168886840F48040886064
:1055400031E004980068039A5168D26803F012F8B9
:1055500004980068502102F04FFC24E00498006891
:10556000039A5168D26803F02DF80498006860210E
:1055700002F042FC17E004980068039A5168D26870
:1055800002F0F8FF04980068402102F035FC0AE0C0
:10559000049800680399096802F02EFC03E00120DA
:1055A0008DF80B00FFE70499012081F83D00FFE72B
:1055B0000499002081F83C00FFE79DF80B008DF86E
:1055C0001700FFE79DF8170006B080BD81B000907E
:1055D00001B0704780B584B0039003980068C0683C
:1055E000029003980068006901909DF8040080070C
:1055F000002824D5FFE79DF80800800700281DD566
:10560000FFE7039801686FF0020008610399012029
:105610000877039800688069800720B1FFE7039846
:10562000FFF7D4FF06E0039800F082F9039800F03A
:10563000C9FAFFE7039900200877FFE7FFE79DF825
:1056400004004007002825D5FFE79DF80800400723
:1056500000281ED5FFE7039801686FF00400086179
:1056600003990220087703980068806910F4407F4E
:1056700004D0FFE70398FFF7A9FF06E0039800F0C6
:1056800057F9039800F09EFAFFE703990020087786
:10569000FFE7FFE79DF804000007002824D5FFE797
:1056A0009DF80800000700281DD5FFE70398016852
:1056B0006FF00800086103990420087703980068D8
:1056C000C069800720B1FFE70398FFF77FFF06E07E
:1056D000039800F02DF9039800F074FAFFE703999E
:1056E00000200877FFE7FFE79DF80400C0060028C8
:1056F00025D5FFE79DF80800C00600281ED5FFE766
:10570000039801686FF0100008610399082008777A
:1057100003980068C06910F4407F04D0FFE7039845
:10572000FFF754FF06E0039800F002F9039800F039
:1057300049FAFFE7039900200877FFE7FFE79DF8A4
:105740000400C00778B1FFE79DF80800C00748B122
:10575000FFE7039801686FF001000861039800F00B
:1057600065FBFFE7FFE7019800F08000802806D086
:10577000FFE79DF805008006002810D5FFE79DF89B
:1057800008000006002809D5FFE7039801686FF4B8
:10579000025008610398FFF789FCFFE7FFE79DF8D7
:1057A0000500C00780B1FFE79DF80800000600284B
:1057B00009D5FFE7039801686FF4807008610398CA
:1057C000FFF770FCFFE7FFE79DF8040040060028A4
:1057D00010D5FFE79DF808004006002809D5FFE72F
:1057E000039801686FF040000861039800F022FB05
:1057F000FFE7FFE79DF804008006002810D5FFE7CB
:105800009DF808008006002809D5FFE70398016885
:105810006FF0200008610398FFF74CFCFFE7FFE7FB
:105820009DF80600C006002810D5FFE79DF80A0085
:10583000C006002809D5FFE7039801686FF48010BF
:1058400008610398FFF73EFCFFE7FFE79DF80600BD
:105850008006002810D5FFE79DF80A008006002882
:1058600009D5FFE7039801686FF4001008610398F9
:10587000FFF724FCFFE7FFE79DF80600400600283D
:1058800010D5FFE79DF80A004006002809D5FFE77C
:10589000039801686FF4800008610398FFF716FC15
:1058A000FFE7FFE79DF806000006002810D5FFE798
:1058B0009DF80A000006002809D5FFE70398016853
:1058C0006FF4000008610398FFF7A4FCFFE7FFE70F
:1058D00004B080BD80B588B0079000200690059088
:1058E00004900390029007980068B0F1804F1DD19A
:1058F000FFE7FFE741F24C00C4F20200016841F00B
:1059000001010160006800F0010001900198FFE7CB
:10591000012002900221039100210491059106903B
:105920004FF0904002A9FDF721FAFFE708B080BDD3
:1059300081B0009001B0704780B586B004900391AB
:10594000029200208DF80700FFE7049890F83C00D1
:10595000012804D1FFE702208DF81700C0E0049968
:10596000012081F83C00FFE7FFE70298009014282F
:1059700000F2A7800099DFE801F00BA4A4A424A4FE
:10598000A4A43EA4A4A457A4A4A471A4A4A48A007B
:1059900004980068039902F047FA0498016888693E
:1059A00040F00800886104980168886920F00400CC
:1059B00088610398026904980168886910438861C6
:1059C00083E004980068039902F0D8FA049801680B
:1059D000886940F40060886104980168886920F44F
:1059E000806088610398026904980168886940EAC8
:1059F0000220886169E004980068039902F076FB50
:105A000004980168C86940F00800C86104980168FA
:105A1000C86920F00400C86103980269049801680D
:105A2000C8691043C86150E004980068039902F007
:105A300015FC04980168C86940F40060C8610498C6
:105A40000168C86920F48060C861039802690498FD
:105A50000168C86940EA0220C86136E0049800681D
:105A6000039902F0B3FC04980168086D40F0080047
:105A7000086504980168086D20F004000865039823
:105A8000026904980168086D104308651DE00498D8
:105A90000068039902F004FD04980168086D40F461
:105AA0000060086504980168086D20F4806008654E
:105AB0000398026904980168086D40EA02200865AD
:105AC00003E001208DF80700FFE7FFE704990020BD
:105AD00081F83C00FFE79DF807008DF81700FFE70D
