:020000040800F2
:10000000F808002079020008393F00080939000883
:10001000353F00087104000879590008000000000D
:100020000000000000000000000000001D44000867
:100030007504000800000000A93F0008754400088E
:10004000930200089302000893020008930200083C
:10005000930200089302000893020008930200082C
:10006000930200089302000893020008930200081C
:10007000930200089302000893020008930200080C
:100080009302000800000000930200089302000899
:1000900093020008930200089302000893020008EC
:1000A00093020008930200089302000893020008DC
:1000B0009302000805450008930200089302000817
:1000C00093020008930200089302000893020008BC
:1000D00093020008930200089302000893020008AC
:1000E000930200089302000893020008930200089C
:1000F0009302000893020008930200080000000029
:1001000000000000930200080000000093020008B5
:100110009302000800000000930200089302000808
:10012000930200089302000893020008930200085B
:100130009302000800000000000000009302000885
:100140009302000893020008000000000000000075
:10015000000000000000000000000000000000009F
:1001600000000000000000000000000093020008F2
:1001700093020008000000000000000000000000E2
:1001800000000000930200080000000000000000D2
:10019000000000000000000000000000000000005F
:1001A0000000000000000000930200089302000815
:1001B0009302000893020008930200080000000068
:1001C0000000000093020008000000000000000092
:1001D000930200089302000800F002F800F03CF8D7
:1001E0000AA090E8000C82448344AAF10107DA4592
:1001F00001D100F031F8AFF2090EBAE80F0013F0A8
:10020000010F18BFFB1A43F001031847905C000070
:10021000B05C0000103A24BF78C878C1FAD8520701
:1002200024BF30C830C144BF04680C607047000070
:100230000023002400250026103A28BF78C1FBD8EF
:10024000520728BF30C148BF0B6070471FB505F08B
:10025000F7FD1FBD10B510BD00F0D0F81146FFF737
:10026000F5FF05F0F3FB00F0EEF803B4FFF7F2FF43
:1002700003BC00F0F5F80000094880470948004732
:10028000FEE7FEE7FEE7FEE7FEE7FEE7FEE7FEE746
:10029000FEE7FEE704480549054A064B70470000A3
:1002A000F1440008D9010008F8020020F8080020F5
:1002B000F8040020F804002053EA020C00F06980E2
:1002C0002DE9F04B4FF00006002B1FBFB3FA83F56A
:1002D00003FA05F424FA05F65E4012BF1643B2FA9B
:1002E00082F502FA05F4C5F120051EBF22FA05FCCD
:1002F00044EA0C04203556EA044C4FEA144418BF73
:10030000641C4FF000084FF00009904271EB030CA1
:1003100039D3002919BFB1FA81F701FA07F6B0FA0B
:1003200080F700FA07F6C7F120071EBF20FA07FC86
:1003300046EA0C062037B6FBF4FCA7EB0507103F96
:1003400007F01F0BCBF120062CFA06F60CFA0BFB7C
:1003500044BFB3460026202FA4BF5E464FF0000BDB
:100360005BEA060C08BF4FF0010B19EB0B0948EBD9
:100370000608ABFB027C06FB02CC0BFB03CCC01BCC
:1003800071EB0C01C1E70B46024641464846BDE809
:10039000F08B13B5084318BF4FF0FF300146AFF3A1
:1003A0000080BDE81C4070474FF0000200B51346C6
:1003B00094469646203922BFA0E80C50A0E80C5085
:1003C000B1F12001BFF4F7AF090728BFA0E80C5036
:1003D00048BF0CC05DF804EB890028BF40F8042B2F
:1003E00008BF704748BF20F8022B11F0804F18BF9C
:1003F00000F8012B7047704770477047754600F052
:100400002BF8AE4605006946534620F007008546A6
:1004100018B020B5FFF73EFFBDE820404FF00006C2
:100420004FF000074FF000084FF0000BAC46ACE86F
:10043000C009ACE8C009ACE8C009ACE8C00921F0CB
:1004400007018D46704710B50446AFF30080204683
:10045000BDE81040FFF709BF0048704710000020BA
:1004600001491820ABBEFEE72600020070470000DD
:10047000FFE7FEE77047000081B0EFF3108072B62F
:100480000090FFE7FEE7000080B584B0039000F025
:10049000E7F90290039801900198013048B1FFE715
:1004A00040F20400C2F20000016801980844019083
:1004B000FFE7FFE700F0D4F90299401A019988425A
:1004C00001D2FFE7F6E704B080BD00008BB00A90D0
:1004D000099100200890FFE7099800680899C84032
:1004E000002800F0A581FFE709980068089A01211B
:1004F0009140084007900798002800F09581FFE799
:100500000998406800F00300012807D0FFE7099828
:10051000406800F0030002282FD1FFE70A988068A6
:10052000069008984100032000FA01F106988843DC
:1005300006900998C0680899490000FA01F10698E8
:100540000843069006980A9988600A9840680690C1
:100550000899012000FA01F106988843069009984D
:100560004068C0F30010089900FA01F106980843AA
:10057000069006980A994860FFE70998406800F0DD
:100580000300032818D0FFE70A98C068069008986F
:100590004100032000FA01F106988843069009986B
:1005A00080680899490000FA01F10698084306900E
:1005B00006980A99C860FFE70998406800F00300B0
:1005C000022826D1FFE70A9808996FF0030202EA91
:1005D00051010844006A0690089800F00700810065
:1005E0000F2000FA01F106988843069009980069E7
:1005F000089901F00701890000FA01F10698084303
:10060000069006980A99089B02EA53021144086270
:10061000FFE70A980068069008984100032000FA56
:1006200001F10698884306900998406800F003009D
:100630000899490000FA01F10698084306900698C7
:100640000A990860099880798007002800F0EB80FB
:10065000FFE7FFE741F26000C4F20200016841F0E9
:1006600001010160006800F0010005900598FFE7B6
:10067000089820F003000821C4F2010140580690B8
:10068000089800F0030081000F2000FA01F106989D
:10069000884306900A98B0F1904F03D1FFE70020FD
:1006A000049042E00A9840F20041C4F600018842FA
:1006B00003D1FFE70120039034E00A9840F60001DF
:1006C000C4F60001884203D1FFE70220029026E031
:1006D0000A9840F60041C4F60001884203D1FFE7C2
:1006E0000320019018E00A9841F20001C4F60001CD
:1006F000884203D1FFE7042000900AE00A9941F202
:100700000042C4F600020620914208BF0520009076
:10071000FFE700980190FFE701980290FFE7029839
:100720000390FFE703980490FFE70498089901F00D
:100730000301890000FA01F1069808430690069823
:10074000089921F003010822C4F20102885040F206
:100750000840C4F201000068069007990698884393
:10076000069009988079C006002805D5FFE707990B
:10077000069808430690FFE7069840F20841C4F245
:100780000101086040F20C40C4F2010000680690CC
:100790000799069888430690099880798006002872
:1007A00005D5FFE70799069808430690FFE70698E6
:1007B00040F20C41C4F20101086040F20440C4F26E
:1007C00001000068069007990698884306900998EA
:1007D00080798007002805D5FFE707990698084328
:1007E0000690FFE7069840F20441C4F20101086058
:1007F00040F20040C4F20100006806900799069894
:100800008843069009988079C00728B1FFE70799C7
:10081000069808430690FFE7069840F20041C4F2AC
:1008200001010860FFE7FFE708980130089053E6F0
:100830000BB0704782B00190ADF802108DF8012026
:100840009DF8010028B1FFE7BDF802000199886119
:1008500004E0BDF8020001998862FFE702B070472A
:1008600040F2F420C2F200000068704740F2040039
:10087000C2F20000026840F2F421C2F200010868EE
:10088000104408607047000080B582B000208DF8E9
:100890000700032000F09AF80F2000F00DF820B1B7
:1008A000FFE701208DF8070002E000F049F8FFE7BC
:1008B0009DF8070002B080BD80B582B00190002095
:1008C0008DF8030040F20400C2F20000006878B323
:1008D000FFE740F20000C2F20000006840F20401AD
:1008E000C2F200010A684FF47A71B1FBF2F1B0FB79
:1008F000F1F001F07FFFB0B9FFE701980F280DD8A4
:10090000FFE701994FF0FF30002200F047F801980F
:1009100040F20801C2F20001086003E001208DF8F6
:100920000300FFE703E001208DF80300FFE703E089
:1009300001208DF80300FFE79DF8030002B080BDA1
:1009400080B582B0FFE741F26000C4F202000168A6
:1009500041F001010160006800F001000190019880
:10096000FFE7FFE741F25800C4F20200016841F0DE
:1009700080510160006800F0805000900098FFE70F
:1009800000F006F902B080BD80B582B08DF8070096
:100990009DF9070004F0F2FF02B080BD80B586B07B
:1009A0008DF817000491039205F000F802909DF96C
:1009B0001700019002980499039A03F0BFFA0146C8
:1009C000019804F0FBFF06B080BD000080B582B046
:1009D0000190019805F014F802B080BD85B0039035
:1009E000039800285ED1FFE747F20000C4F2000040
:1009F000006800F4C060B0F5806F49D1FFE747F2AE
:100A00008001C4F20001086820F48070086047F299
:100A10000002C4F200021168012060F34A21116053
:100A200040F20001C2F200010968322251434DF642
:100A30008362C4F21B32A1FB022100EB91400290C1
:100A4000FFE747F21400C4F20000016800204905E6
:100A50000029019006D5FFE70298002818BF012061
:100A60000190FFE70198C00720B1FFE70298013825
:100A70000290E6E747F21400C4F200000068400567
:100A8000002804D5FFE703208DF813007CE008E080
:100A900047F28001C4F20001086820F48070086009
:100AA000FFE76DE00398B0F5007F5ED1FFE747F206
:100AB0000000C4F20000006800F4C060B0F5806F70
:100AC00049D1FFE747F28001C4F20001086840F411
:100AD0008070086047F20002C4F200021168012031
:100AE00060F34A21116040F20001C2F2000109687E
:100AF000322251434DF68362C4F21B32A1FB022124
:100B000000EB91400290FFE747F21400C4F20000AE
:100B10000168002049050029009006D5FFE70298EA
:100B2000002818BF01200090FFE70098C00720B1FF
:100B3000FFE7029801380290E6E747F21400C4F29A
:100B4000000000684005002804D5FFE703208DF869
:100B5000130019E008E047F28001C4F200010868C0
:100B600040F480700860FFE709E047F20001C4F23A
:100B700000010868022262F34A200860FFE7FFE7ED
:100B800000208DF81300FFE79DF8130005B07047B3
:100B900047F20801C4F20001086840F48040086090
:100BA0007047000080B586B0059000208DF80B00DE
:100BB0008DF80A00059880780007002840F1B5807C
:100BC000FFE700208DF8090041F25800C4F202004E
:100BD0000068C000002813D4FFE7FFE741F2580087
:100BE000C4F20200016841F080510160006800F029
:100BF000805001900198FFE701208DF80900FFE780
:100C000047F20001C4F20001086840F480700860F7
:100C1000FFF726FE0390FFE747F20000C4F2000052
:100C20000068C00500280CD4FFE7FFF719FE039900
:100C3000401A032804D3FFE703208DF80B0000E0DF
:100C4000EAE79DF80B0000285BD1FFE741F2900036
:100C5000C4F20200006800F4407004900498C8B127
:100C6000FFE704980599096C884213D0FFE741F229
:100C70009001C4F20201086820F4407004900868F2
:100C800040F480300860086820F4803008600498E0
:100C90000860FFE79DF81000C007E0B1FFE7FFF72D
:100CA000DFFD0390FFE741F29000C4F2020000680C
:100CB000800700280ED4FFE7FFF7D2FD0399401A02
:100CC00041F28931884204D3FFE703208DF80B00FD
:100CD00000E0E8E7FFE79DF80B0060B9FFE741F2AD
:100CE0009001C4F20201086820F44070059A126C69
:100CF0001043086004E09DF80B008DF80A00FFE740
:100D000004E09DF80B008DF80A00FFE79DF809004C
:100D1000012809D1FFE741F25801C4F20201086835
:100D200020F080500860FFE7FFE705980078C007D3
:100D300060B1FFE741F28801C4F20201086820F0C7
:100D40000300059A526810430860FFE70598007891
:100D5000800700280CD5FFE741F28801C4F20201A8
:100D6000086820F00C00059A926810430860FFE7BD
:100D700005980078400700280CD5FFE741F288016C
:100D8000C4F20201086820F03000059AD2681043CE
:100D90000860FFE705980078000700280CD5FFE7FA
:100DA00041F28801C4F20201086820F0C000059AEF
:100DB000126910430860FFE7059800788006002854
:100DC0000CD5FFE741F28801C4F20201086820F463
:100DD0004060059A526910430860FFE70598007863
:100DE000400600280CD5FFE741F28801C4F2020159
:100DF000086820F44050059A926910430860FFE7A4
:100E000005980078000600280CD5FFE741F288011C
:100E1000C4F20201086820F44040059AD2691043E8
:100E20000860FFE705984078C00760B1FFE741F22E
:100E30008801C4F20201086820F44030059A126A61
:100E400010430860FFE705984078800700280CD51C
:100E5000FFE741F28801C4F20201086820F4402053
:100E6000059A526A10430860FFE7059840784007EA
:100E700000281BD5FFE741F28801C4F2020108688F
:100E800020F44010059A926A104308600598806A21
:100E9000B0F5801F09D1FFE741F20C01C4F2020155
:100EA000086840F480100860FFE7FFE70598407885
:100EB000000700281BD5FFE741F28801C4F20201B8
:100EC000086820F44000059AD26A1043086005982B
:100ED000C06AB0F5800F09D1FFE741F20C01C4F2FE
:100EE0000201086840F480100860FFE7FFE70598FA
:100EF0004078C00600281BD5FFE741F28801C4F204
:100F00000201086820F04070059A126B10430860D7
:100F10000598006BB0F1807F09D1FFE741F20C0129
:100F2000C4F20201086840F480100860FFE7FFE7A0
:100F300005984078800600281BD5FFE741F288011C
:100F4000C4F20201086820F04060059A526B104319
:100F500008600598406BB0F1006F09D1FFE741F2DE
:100F60000C01C4F20201086840F480100860FFE739
:100F7000FFE705984078400600281BD5FFE741F2BF
:100F80008801C4F20201086820F04060059A926B63
:100F9000104308600598806BB0F1006F09D1FFE73E
:100FA00041F20C01C4F20201086840F480100860AC
:100FB000FFE7FFE705984078000600281BD5FFE70C
:100FC00041F28801C4F20201086820F04050059AFD
:100FD000D26B104308600598C06BB0F1805F09D1F7
:100FE000FFE741F20C01C4F20201086840F48030CE
:100FF0000860FFE7FFE79DF80A0006B080BD00002B
:1010000080B586B00490039100200090049820B928
:10101000FFE701208DF8170081E1039842F20001FB
:10102000C4F20201096801F00F01884216D9FFE7F6
:1010300042F20000C4F20200016821F00F01039A9D
:1010400011430160006800F00F000399884204D04A
:10105000FFE701208DF8170061E1FFE704980078B1
:10106000C007002800F0A380FFE704984068032829
:1010700039D1FFE741F20000C4F2020000688001AC
:10108000002804D4FFE701208DF8170047E102F0A3
:101090008DFF019001984BF20141C0F2C44188429A
:1010A00020D3FFE741F20800C4F20200006810F00C
:1010B000F00F0AD0FFE7049800788007002810D5C9
:1010C000FFE70498806860B9FFE741F20801C4F2C5
:1010D00002010868082262F307100860802000906F
:1010E000FFE7FFE738E00498406802280ED1FFE7E9
:1010F00041F20000C4F2020000688003002804D41A
:10110000FFE701208DF8170009E10DE041F2000032
:10111000C4F2020000684005002804D4FFE7012063
:101120008DF81700FBE0FFE700F02CF90190019823
:101130004BF20141C0F2C44188420CD3FFE741F2B7
:101140000801C4F202010868082262F3071008606F
:1011500080200090FFE7FFE741F20801C4F202019E
:10116000086820F00300049A526810430860FFF7F3
:1011700077FB0290FFE741F20800C4F2020000682A
:1011800000F00C0004994968B0EB810F0ED0FFE726
:10119000FFF766FB0299401A41F28931884204D375
:1011A000FFE703208DF81700B9E0E4E7FFE70498B4
:1011B0000078800700282CD5FFE7049800784007C6
:1011C000002809D5FFE741F20801C4F202010868CE
:1011D00040F4E0600860FFE704980078000700280A
:1011E0000BD5FFE741F20801C4F20201086840F4A0
:1011F000E06020F460500860FFE741F20801C4F2AB
:101200000201086820F0F000049A92681043086018
:101210000DE00098802809D1FFE741F20801C4F2EF
:101220000201086820F0F0000860FFE7FFE703987C
:1012300042F20001C4F20201096801F00F01884284
:1012400028D2FFE742F20001C4F20201086820F050
:101250000F00039A10430860FFF702FB0290FFE7BC
:1012600042F20000C4F20200006800F00F0003998F
:1012700088420ED0FFE7FFF7F3FA0299401A41F2D5
:101280008931884204D3FFE703208DF8170046E038
:10129000E6E7FFE704980078400700280CD5FFE751
:1012A00041F20801C4F20201086820F4E060049AE7
:1012B000D26810430860FFE7049800780007002810
:1012C0000DD5FFE741F20801C4F20201086820F4DD
:1012D0006050049A126940EAC2000860FFE700F01B
:1012E00051F841F20801C4F202010968C9B20A09C1
:1012F00045F65A61C0F60001895C01F01F01C84043
:1013000040F20001C2F20001086040F20800C2F29F
:1013100000000068FFF7D0FA8DF81700FFE79DF88E
:10132000170006B080BD000040F20000C2F20000CD
:101330000068704780B5FFF7F7FF41F20801C4F27B
:1013400002010968C1F3022245F66A61C0F6000194
:10135000895C01F01F01C84080BD000080B5FFF727
:10136000E3FF41F20801C4F202010968C1F3C2229D
:1013700045F66A61C0F60001895C01F01F01C840B2
:1013800080BD000086B041F20800C4F2020000688F
:1013900000F00C00042806D1FFE742F20040C0F242
:1013A000F400019069E041F20800C4F20200006814
:1013B00000F00C00082806D1FFE747F64000C0F215
:1013C0007D10019058E041F20800C4F2020000686C
:1013D00000F00C000C284BD1FFE741F20C00C4F2E6
:1013E0000200016801F0030104910068C1B201200C
:1013F00000EB1110029004980090022815D0FFE72E
:101400000098032812D1FFE7029947F64000C0F286
:101410007D10B0FBF1F041F20C01C4F20201096849
:10142000C1F306214843059011E0FFE7029942F21B
:101430000040C0F2F400B0FBF1F041F20C01C4F244
:1014400002010968C1F3062148430590FFE741F214
:101450000C00C4F20200006800F0C061022000EB42
:101460001160039005980399B0FBF1F0019002E040
:1014700000200190FFE7FFE7FFE7019806B0704703
:10148000B0B588B00690069820B9FFE701208DF826
:101490001F00CCE306980078C007002800F09B806E
:1014A000FFE741F20800C4F20200006800F00C00FF
:1014B000049041F20C00C4F20200006800F0030046
:1014C000039004980C2804D1FFE70398032804D064
:1014D000FFE70498082812D1FFE741F20000C4F2A8
:1014E000020000688003002808D5FFE706984068DE
:1014F00020B9FFE701208DF81F0098E36AE0FFE7BD
:1015000006984068B0F5803F09D1FFE741F200013D
:10151000C4F20201086840F48030086020E00698B8
:101520004068B0F5A02F0DD1FFE741F20001C4F2F1
:101530000201086840F480200860086840F48030A8
:1015400008600CE041F20001C4F20201086820F4D6
:1015500080300860086820F480200860FFE7FFE71B
:10156000FFE706984068D0B1FFE7FFF779F90590EB
:10157000FFE741F20000C4F2020000688003002887
:101580000CD4FFE7FFF76CF90599401A652804D3DE
:10159000FFE703208DF81F0049E3EAE719E0FFF7B2
:1015A0005FF90590FFE741F20000C4F20200006815
:1015B000800300280CD5FFE7FFF752F90599401A80
:1015C000652804D3FFE703208DF81F002FE3EAE727
:1015D000FFE7FFE7FFE7069800788007002840F163
:1015E0009F80FFE741F20800C4F20200006800F0AB
:1015F0000C00049041F20C00C4F20200006800F0FC
:101600000300039004980C2804D1FFE703980228F4
:1016100004D0FFE7049804282CD1FFE741F2000032
:10162000C4F2020000684005002808D5FFE70698CC
:10163000C06820B9FFE701208DF81F00F7E241F2F2
:101640000401C4F20201086820F0FE40069A126903
:1016500040EA0260086040F20800C2F20000006840
:10166000FFF72AF920B1FFE701208DF81F00DEE225
:10167000FFE754E00698C06870B3FFE741F200014D
:10168000C4F20201086840F480700860FFF7E8F8CF
:101690000590FFE741F20000C4F202000068400537
:1016A00000280CD4FFE7FFF7DBF80599401A032860
:1016B00004D3FFE703208DF81F00B8E2EAE741F208
:1016C0000401C4F20201086820F0FE40069A126983
:1016D00040EA0260086021E041F20001C4F2020128
:1016E000086820F480700860FFF7BAF80590FFE7FB
:1016F00041F20000C4F202000068400500280CD549
:10170000FFE7FFF7ADF80599401A032804D3FFE778
:1017100003208DF81F008AE2EAE7FFE7FFE7FFE713
:10172000069800780007002849D5FFE70698406929
:1017300010B3FFE741F29401C4F20201086840F0DF
:1017400001000860FFF78CF80590FFE741F2940074
:10175000C4F202000068800700280CD4FFE7FFF7FE
:101760007FF80599401A032804D3FFE703208DF87A
:101770001F005CE2EAE721E041F29401C4F20201B9
:10178000086820F001000860FFF76AF80590FFE79D
:1017900041F29400C4F202000068800700280CD5D2
:1017A000FFE7FFF75DF80599401A032804D3FFE728
:1017B00003208DF81F003AE2EAE7FFE7FFE706980B
:1017C00000784007002840F1C680FFE700208DF830
:1017D0000B0041F25800C4F202000068C00000286B
:1017E00013D4FFE7FFE741F25800C4F2020001689A
:1017F00041F080510160006800F080500190019834
:10180000FFE701208DF80B00FFE747F20000C4F26C
:1018100000000068C005002822D4FFE747F200015D
:10182000C4F20001086840F480700860FFF718F8FF
:101830000590FFE747F20000C4F200000068C00511
:1018400000280CD4FFE7FFF70BF80599401A03288E
:1018500004D3FFE703208DF81F00E8E1EAE7FFE784
:10186000FFE706988068012809D1FFE741F290015F
:10187000C4F20201086840F0010008601FE0069809
:10188000806805280DD1FFE741F29001C4F2020102
:10189000086840F004000860086840F00100086033
:1018A0000CE041F29001C4F20201086820F001004E
:1018B0000860086820F004000860FFE7FFE7FFE722
:1018C00006988068E0B1FFE7FEF7CAFF0590FFE7E2
:1018D00041F29000C4F202000068800700280ED494
:1018E000FFE7FEF7BDFF0599401A41F289318842B2
:1018F00004D3FFE703208DF81F0098E1E8E71BE021
:10190000FEF7AEFF0590FFE741F29000C4F202003F
:101910000068800700280ED5FFE7FEF7A1FF0599B4
:10192000401A41F28931884204D3FFE703208DF841
:101930001F007CE1E8E7FFE79DF80B00012809D1D3
:10194000FFE741F25801C4F20201086820F080501C
:101950000860FFE7FFE7069800788006002849D571
:10196000FFE70698806910B3FFE741F29801C4F2DF
:101970000201086840F001000860FEF771FF059061
:10198000FFE741F29800C4F20200006880070028D7
:101990000CD4FFE7FEF764FF0599401A032804D32F
:1019A000FFE703208DF81F0041E1EAE721E041F263
:1019B0009801C4F20201086820F001000860FEF7F7
:1019C0004FFF0590FFE741F29800C4F20200006863
:1019D000800700280CD5FFE7FEF742FF0599401A63
:1019E000032804D3FFE703208DF81F001FE1EAE777
:1019F000FFE7FFE70698C069002800F01481FFE7C1
:101A000041F20800C4F20200006800F00C000C284B
:101A100000F0B080FFE70698C06902287CD1FFE79C
:101A200041F20001C4F20201086820F080700860F1
:101A3000FEF716FF0590FFE741F20000C4F2020036
:101A40000068800100280CD5FFE7FEF709FF059923
:101A5000401A032804D3FFE703208DF81F00E6E0B7
:101A6000EAE741F20C01C4F20201086848F20C02F4
:101A7000C0F29F121040DDF818C0DCF82020DCF81E
:101A80002450DCF828E0DCF82C306FF00F0404EB75
:101A90000514224342EA0E22DCF8304040F2000EE8
:101AA000CFF6E07E0EEA045EAEF5001E42EA0E02BC
:101AB000DCF834E04FF07E4C0CEA0E6C0CF17E4CFE
:101AC00042EA0C0242EAC3621043086041F200029B
:101AD000C4F20202106840F080701060086840F0A4
:101AE00080700860FEF7BCFE0590FFE741F2000041
:101AF000C4F202000068800100280CD4FFE7FEF762
:101B0000AFFE0599401A032804D3FFE703208DF8A0
:101B10001F008CE0EAE72CE041F20001C4F2020170
:101B2000086820F080700860FEF79AFE0590FFE7D5
:101B300041F20000C4F202000068800100280CD5C8
:101B4000FFE7FEF78DFE0599401A032804D3FFE74F
:101B500003208DF81F006AE0EAE741F20C01C4F2AD
:101B6000020108684FF6FC72CFF6EE621040086082
:101B7000FFE757E00698C069012804D1FFE701207C
:101B80008DF81F0053E041F20C00C4F2020000681F
:101B90000390039800F003000699096A88423BD13C
:101BA000FFE7039800F0F00006994A6A6FF00F0112
:101BB00001EB021188422FD1FFE7039800F4FE40A9
:101BC0000699896AB0EB012F26D1FFE7039800F050
:101BD00078400699C96AB0EBC16F1DD1FFE7039841
:101BE00000F4C00006990A6B0021CFF6E07101EA0B
:101BF0000251A1F5001188420ED1FFE7039800F0D1
:101C0000C06006994A6B4FF07E4101EA026101F122
:101C10007E41884204D0FFE701208DF81F0006E0D6
:101C2000FFE7FFE7FFE700208DF81F00FFE79DF8C3
:101C30001F0008B0B0BD000080B584B002900298CB
:101C400020B9FFE701208DF80F0097E00298406A65
:101C500060B9FFE702984068B0F5827F01D1FFE7E5
:101C600003E002990020C861FFE705E00299002027
:101C7000086102994861FFE7029900208862029892
:101C800090F85D0040B9FFE70299002081F85C0000
:101C9000029800F077F8FFE70299022081F85D00D2
:101CA00002980168086820F0400008600298C06847
:101CB000B0F5E06F03D9FFE70020019003E04FF497
:101CC00080500190FFE70298C068B0F5706F0AD0AD
:101CD000FFE70298C068B0F5E06F04D0FFE7029913
:101CE00000208862FFE7029A009211685068D2F8DB
:101CF00008C0136900F482700CF4044C604403F0D3
:101D000002031844536903F001031844936903F470
:101D100000731844D36903F038031844136A03F0BE
:101D200080031844926A02F4005210430860029B38
:101D3000588B00F004001968DA68D3F824C05B6B94
:101D40000CF0100C604403F00803184402F47062B5
:101D50001044019A02F480521044486002980168CD
:101D6000C86920F40060C861029900200866029AE0
:101D7000012182F85D108DF80F00FFE79DF80F003C
:101D800004B080BD80B588B0079000200690059013
:101D90000490039002900798006843F20001C4F297
:101DA000010188422DD1FFE7FFE741F26000C4F254
:101DB0000200016841F480510160006800F4805025
:101DC00001900198FFE7FFE741F24C00C4F20200E6
:101DD000016841F001010160006800F0010000901D
:101DE0000098FFE7E020029002200390002004907A
:101DF0000590052006904FF0904002A9FEF766FB83
:101E0000FFE708B080BD000080B588B0069005915E
:101E1000ADF812200393069890F85D00012804D0D5
:101E2000FFE702208DF81F002FE1059820B1FFE7A2
:101E3000BDF8120020B9FFE701208DF81F0024E152
:101E400006984068B0F5827F16D1FFE70698806853
:101E500090B9FFE70699042081F85D000698059A7D
:101E6000BDF812300399EC46CCF80010114600F092
:101E70008DFA8DF81F0008E1FEF7F2FC0290FFE7F3
:101E8000069890F85C00012804D1FFE702208DF845
:101E90001F00FAE00699012081F85C00FFE7FFE7E8
:101EA0000699042081F85D000699002008660599CE
:101EB000069A1164BDF81210069AA2F84410BDF8F3
:101EC0001210069AA2F84610069988630699888728
:101ED0000699C8870699C864069908650698C06877
:101EE000B0F5E06F07D9FFE706980168486820F46D
:101EF0008050486006E006980168486840F48050C9
:101F00004860FFE706988068B0F5004F0DD1FFE705
:101F100006980168086820F040000860069801688B
:101F2000086820F480400860FFE7069800680068B1
:101F300000F04000402807D0FFE7069801680868D5
:101F400040F040000860FFE70698C068B0F5E06F19
:101F50003DD8FFE7FFE70698B0F84600B0B3FFE7CB
:101F6000069800688068C00788B1FFE70698006897
:101F7000007B0699096C08700699086C01300864AA
:101F80000699B1F846000138A1F846001DE0FEF7B9
:101F900067FC0299401A0399884204D3FFE703982B
:101FA000013018B9FFE7039870B9FFE706990120DF
:101FB00081F85D00FFE70699002081F85C00FFE7EB
:101FC00003208DF81F0060E0FFE7C4E73CE0FFE777
:101FD0000698B0F84600B0B3FFE70698006880683E
:101FE000C00788B1FFE706980068C0680699096CC9
:101FF00008800699086C023008640699B1F846001A
:102000000138A1F846001DE0FEF72AFC0299401AAB
:102010000399884204D3FFE70398013018B9FFE71A
:10202000039870B9FFE70699012081F85D00FFE78A
:102030000699002081F85C00FFE703208DF81F005F
:1020400023E0FFE7C4E7FFE706980399029A01F04F
:10205000FBFF20B1FFE7069920200866FFE70699FD
:10206000012081F85D00FFE70699002081F85C00FF
:10207000FFE70698006E20B1FFE701208DF81F00F2
:1020800003E000208DF81F00FFE79DF81F0008B057
:1020900080BD000080B588B006900591ADF8122093
:1020A0000393FEF7DDFB0290BDF81200ADF80600C9
:1020B000069890F85D00012804D0FFE702208DF813
:1020C0001F005FE1059820B1FFE7BDF8120020B9BD
:1020D000FFE701208DF81F0054E1FFE7069890F814
:1020E0005C00012804D1FFE702208DF81F0049E1C0
:1020F0000699012081F85C00FFE7FFE706990320BD
:1021000081F85D000699002008660599069A91639A
:10211000BDF81210069A9187BDF81210069AD18761
:10212000069908640699A1F844000699A1F84600AA
:10213000069908650699C86406988068B0F5004F4E
:102140000DD1FFE706980168086820F0400008609C
:1021500006980168086840F480400860FFE7069828
:102160000068006800F04000402807D0FFE70698AC
:102170000168086840F040000860FFE70698C06802
:10218000B0F5E06F51D9FFE70698406828B1FFE746
:10219000BDF8060001280ED1FFE706980168806BA4
:1021A0000088C8600699886B023088630699C88FDA
:1021B0000138C887FFE7FFE70698C08FA0B3FFE7A5
:1021C000069800688068800700280ED5FFE706980B
:1021D0000168806B0088C8600699886B023088634C
:1021E0000699C88F0138C8871DE0FEF739FB0299B0
:1021F000401A0399884204D3FFE70398013018B9C5
:10220000FFE7039870B9FFE70699012081F85D00A8
:10221000FFE70699002081F85C00FFE703208DF8B6
:102220001F00AFE0FFE7C7E779E00698406828B1F4
:10223000FFE7BDF80600012822D1FFE70698C08F0E
:1022400002280ED3FFE706980168806B0088C860FB
:102250000699886B023088630699C88F0238C88750
:102260000DE006980168806B007808730699886B0A
:10227000013088630699C88F0138C887FFE7FFE7F8
:10228000FFE70698C08F002848D0FFE7069800684F
:1022900080688007002822D5FFE70698C08F0228B3
:1022A0000ED3FFE706980168806B0088C860069926
:1022B000886B023088630699C88F0238C8870DE0A2
:1022C00006980168806B007808730699886B013066
:1022D00088630699C88F0138C887FFE71DE0FEF7BD
:1022E000BFFA0299401A0399884204D3FFE7039882
:1022F000013018B9FFE7039870B9FFE7069901208C
:1023000081F85D00FFE70699002081F85C00FFE797
:1023100003208DF81F0035E0FFE7B2E7FFE70698DE
:102320000399029A01F0F2FE20B1FFE706992020FE
:102330000866FFE70698806870B9FFE7FFE70020AE
:10234000009006980068C068009006980068806851
:1023500000900098FFE7FFE70699012081F85D00F3
:10236000FFE70699002081F85C00FFE70698006E01
:1023700020B1FFE701208DF81F0003E000208DF859
:102380001F00FFE79DF81F0008B080BD80B58CB02E
:10239000DDF838C00A9009910892ADF81E3001208E
:1023A0000290FEF75DFA03900A9890F85D008DF8B0
:1023B00013000A9840680590BDF81E00ADF81C0097
:1023C000BDF81E00ADF81A009DF81300012812D0C8
:1023D000FFE70598B0F5827F09D1FFE70A9880688A
:1023E00028B9FFE79DF81300042804D0FFE7022076
:1023F0008DF82F00FAE1099838B1FFE7089820B16D
:10240000FFE7BDF81E0020B9FFE701208DF82F007F
:10241000ECE1FFE70A9890F85C00012804D1FFE79F
:1024200002208DF82F00E1E10A99012081F85C007B
:10243000FFE7FFE70A9890F85D00042805D0FFE762
:102440000A99052081F85D00FFE70A9900200866D7
:1024500008990A9A1164BDF81E100A9AA2F846104B
:10246000BDF81E100A9AA2F8441009990A9A9163BD
:10247000BDF81E100A9AD187BDF81E100A9A9187DE
:102480000A99C8640A9908650A98C068B0F5E06FAF
:1024900005D8FFE7BDF81A00022807D3FFE70A981E
:1024A0000168486820F48050486006E00A98016896
:1024B000486840F480504860FFE70A980068006868
:1024C00000F04000402807D0FFE70A98016808683C
:1024D00040F040000860FFE70A98C068B0F5E06F80
:1024E00040F28580FFE70A98406828B1FFE7BDF811
:1024F0001C0001280ED1FFE70A980168806B008854
:10250000C8600A99886B023088630A99C88F0138BD
:10251000C887FFE7FFE70A98C18F0120019041B902
:10252000FFE70A98B0F84600002818BF0120019084
:10253000FFE70198C007002858D0FFE70A98006815
:1025400080688007002818D5FFE70A98C08FA0B1DF
:10255000FFE70298012810D1FFE70A980168806B15
:102560000088C8600A99886B023088630A99C88F0E
:102570000138C88700200290FFE70A980068806849
:10258000C007C0B1FFE70A98B0F8460098B1FFE76E
:102590000A980068C0680A99096C08800A99086C52
:1025A000023008640A99B1F846000138A1F84600E3
:1025B00001200290FFE7FEF753F90399401A0E99A4
:1025C000884212D3FFE70E98013070B1FFE70A99F5
:1025D000012081F85D00FFE70A99002081F85C0086
:1025E000FFE703208DF82F0000E194E7D4E00A987C
:1025F000406828B1FFE7BDF81C00012822D1FFE7A1
:102600000A98C08F02280ED3FFE70A980168806BF2
:102610000088C8600A99886B023088630A99C88F5D
:102620000238C8870DE00A980168806B007808734B
:102630000A99886B013088630A99C88F0138C88766
:10264000FFE7FFE7FFE70A98C18F0120009041B93B
:10265000FFE70A98B0F84600002818BF0120009054
:10266000FFE70098C007002800F09580FFE70A9870
:1026700000688068800700282CD5FFE70A98C08F83
:1026800040B3FFE70298012824D1FFE70A98C08FE2
:1026900002280ED3FFE70A980168806B0088C860A3
:1026A0000A99886B023088630A99C88F0238C887F4
:1026B0000DE00A980168806B007808730A99886BAE
:1026C000013088630A99C88F0138C887FFE7002066
:1026D0000290FFE70A9800688068C007E8B3FFE748
:1026E0000A98B0F84600C0B3FFE70A98B0F8460071
:1026F00002281ED3FFE70A980068C0680A99096C8F
:1027000008800A99086C023008640A99B1F84600FA
:102710000238A1F846000A98B0F84600012807D808
:10272000FFE70A980168486840F480504860FFE776
:1027300010E00A980068007B0A99096C08700A99F1
:10274000086C013008640A99B1F846000138A1F814
:102750004600FFE701200290FFE7FEF781F80399AA
:10276000401A0E99884204D3FFE70E98013018B939
:10277000FFE70E9870B9FFE70A99012081F85D0024
:10278000FFE70A99002081F85C00FFE703208DF83D
:102790002F002BE057E7FFE70A980E99039A01F004
:1027A000B5FC68B1FFE70A9920200866FFE70A999F
:1027B000002081F85C00FFE701208DF82F0015E074
:1027C0000A99012081F85D00FFE70A99002081F84D
:1027D0005C00FFE70A98006E20B1FFE701208DF84A
:1027E0002F0003E000208DF82F00FFE79DF82F0059
:1027F0000CB080BD80B582B00190019801F010FE50
:1028000002B080BD81B0009001B0704781B00090EF
:1028100001B0704781B0009001B0704781B0009066
:1028200001B0704781B0009001B0704781B0009056
:1028300001B0704785B003900291FFE7039890F8CC
:102840003C00012804D1FFE702208DF813008CE042
:102850000399012081F83C00FFE7FFE7039902207C
:1028600081F83D0003980068406801900398006873
:10287000806800900398006842F60041C4F20101AC
:10288000884209D0FFE70398006843F20041C4F290
:10289000010188420AD1FFE7019820F470000190FD
:1028A00002984168019808430190FFE701984FF6AC
:1028B0008F71CFF6FF51084001900298016801988E
:1028C00008430190019803990968486003980068DB
:1028D00042F60041C4F2010188422AD0FFE7039882
:1028E0000068B0F1804F24D0FFE70398006840F201
:1028F0000041C4F2000188421BD0FFE70398006842
:1029000040F60001C4F20001884212D0FFE70398AC
:10291000006843F20041C4F20101884209D0FFE798
:102920000398006844F20001C4F2010188420ED10C
:10293000FFE7009820F080000090029881680098DE
:10294000084300900098039909688860FFE703999D
:10295000012081F83D00FFE70399002081F83C0049
:10296000FFE700208DF81300FFE79DF8130005B086
:102970007047000081B0009001B0704780B582B010
:102980000090009820B9FFE701208DF8070045E08E
:10299000009890F83D0040B9FFE70099002081F8C9
:1029A0003C00009800F03EF8FFE70099022081F813
:1029B0003D00009951F8040B01F0B2FD009901208F
:1029C00081F84800FFE70099012081F83E00009956
:1029D00081F83F00009981F84000009981F841009A
:1029E000009981F84200009981F84300FFE7FFE772
:1029F0000099012081F84400009981F84500009970
:102A000081F84600009981F84700FFE7009901200E
:102A100081F83D0000208DF80700FFE79DF80700D2
:102A200002B080BD80B584B003900398006840F286
:102A30000041C4F20001884219D1FFE7FFE741F2EB
:102A40005800C4F20200016841F002010160006810
:102A500000F0020002900298FFE71D200190002282
:102A60001146FDF79BFF0198FDF78EFFFFE704B0CD
:102A700080BD000083B00190019890F83D000128CE
:102A800004D0FFE701208DF80B0060E001990220DF
:102A900081F83D0001980168C86840F00100C860F5
:102AA0000198006842F60041C4F2010188422AD030
:102AB000FFE701980068B0F1804F24D0FFE701984C
:102AC000006840F20041C4F2000188421BD0FFE7D9
:102AD0000198006840F60001C4F20001884212D05B
:102AE000FFE70198006843F20041C4F20101884207
:102AF00009D0FFE70198006844F20001C4F2010127
:102B0000884219D1FFE70198006880680721C0F268
:102B1000010108400090009806280CD0FFE70098BB
:102B2000B0F5803F07D0FFE701980168086840F0E2
:102B300001000860FFE706E001980168086840F0BE
:102B400001000860FFE700208DF80B00FFE79DF80B
:102B50000B0003B07047000080B586B0049003916D
:102B600000208DF80B00FFE7049890F83C00012846
:102B700004D1FFE702208DF81700D3E0049901206B
:102B800081F83C00FFE7FFE70499022081F83D004F
:102B9000049800688068019001984FF68871CFF61C
:102BA000CE7108400190019820F47F400190019877
:102BB000049909688860039800680090002800F074
:102BC0009780FFE70098102800F09280FFE70098B8
:102BD000202800F08D80FFE70098302800F08880E2
:102BE000FFE70098402876D0FFE70098502858D09B
:102BF000FFE70098602861D0FFE7009870282CD08C
:102C0000FFE70098B0F5805F26D0FFE70098B0F5A9
:102C1000005F37D0FFE70098B0F1101F68D0FFE7E2
:102C200000982021C0F21001884261D0FFE700988F
:102C30003021C0F2100188425AD0FFE700984021AD
:102C4000C0F21001884253D0FFE700987021C0F213
:102C5000100188424CD052E055E004980068039B74
:102C60005A689968DB6801F043FD04980068806841
:102C70000190019840F0770001900198049909684B
:102C8000886040E004980068039B5A689968DB6894
:102C900001F02EFD04980168886840F48040886047
:102CA00031E004980068039A5168D26802F0F8F89D
:102CB00004980068502101F035FD24E00498006874
:102CC000039A5168D26802F013F9049800686021F1
:102CD00001F028FD17E004980068039A5168D26853
:102CE00002F0DEF804980068402101F01BFD0AE0C4
:102CF000049800680399096801F014FD03E00120BD
:102D00008DF80B00FFE70499012081F83D00FFE7F3
:102D10000499002081F83C00FFE79DF80B008DF836
:102D20001700FFE79DF8170006B080BD81B0009046
:102D300001B0704780B584B0039003980068C06804
:102D4000029003980068006901909DF804008007D4
:102D5000002824D5FFE79DF80800800700281DD52E
:102D6000FFE7039801686FF00200086103990120F2
:102D70000877039800688069800720B1FFE703980F
:102D8000FFF7D4FF06E0039800F082F9039800F003
:102D9000C9FAFFE7039900200877FFE7FFE79DF8EE
:102DA00004004007002825D5FFE79DF808004007EC
:102DB00000281ED5FFE7039801686FF00400086142
:102DC00003990220087703980068806910F4407F17
:102DD00004D0FFE70398FFF7A9FF06E0039800F08F
:102DE00057F9039800F09EFAFFE70399002008774F
:102DF000FFE7FFE79DF804000007002824D5FFE760
:102E00009DF80800000700281DD5FFE7039801681A
:102E10006FF00800086103990420087703980068A0
:102E2000C069800720B1FFE70398FFF77FFF06E046
:102E3000039800F02DF9039800F074FAFFE7039966
:102E400000200877FFE7FFE79DF80400C006002890
:102E500025D5FFE79DF80800C00600281ED5FFE72E
:102E6000039801686FF01000086103990820087743
:102E700003980068C06910F4407F04D0FFE703980E
:102E8000FFF754FF06E0039800F002F9039800F002
:102E900049FAFFE7039900200877FFE7FFE79DF86D
:102EA0000400C00778B1FFE79DF80800C00748B1EB
:102EB000FFE7039801686FF001000861039800F0D4
:102EC00065FBFFE7FFE7019800F08000802806D04F
:102ED000FFE79DF805008006002810D5FFE79DF864
:102EE00008000006002809D5FFE7039801686FF481
:102EF000025008610398FFF789FCFFE7FFE79DF8A0
:102F00000500C00780B1FFE79DF808000006002813
:102F100009D5FFE7039801686FF480700861039892
:102F2000FFF770FCFFE7FFE79DF80400400600286C
:102F300010D5FFE79DF808004006002809D5FFE7F7
:102F4000039801686FF040000861039800F022FBCD
:102F5000FFE7FFE79DF804008006002810D5FFE793
:102F60009DF808008006002809D5FFE7039801684E
:102F70006FF0200008610398FFF74CFCFFE7FFE7C4
:102F80009DF80600C006002810D5FFE79DF80A004E
:102F9000C006002809D5FFE7039801686FF4801088
:102FA00008610398FFF73EFCFFE7FFE79DF8060086
:102FB0008006002810D5FFE79DF80A00800600284B
:102FC00009D5FFE7039801686FF4001008610398C2
:102FD000FFF724FCFFE7FFE79DF806004006002806
:102FE00010D5FFE79DF80A004006002809D5FFE745
:102FF000039801686FF4800008610398FFF716FCDE
:10300000FFE7FFE79DF806000006002810D5FFE760
:103010009DF80A000006002809D5FFE7039801681B
:103020006FF4000008610398FFF7A4FCFFE7FFE7D7
:1030300004B080BD80B588B0079000200690059050
:1030400004900390029007980068B0F1804F1DD162
:10305000FFE7FFE741F24C00C4F20200016841F0D3
:1030600001010160006800F0010001900198FFE794
:103070000120029002210391002104910591069004
:103080004FF0904002A9FDF721FAFFE708B080BD9C
:1030900081B0009001B0704780B586B00490039174
:1030A000029200208DF80700FFE7049890F83C009A
:1030B000012804D1FFE702208DF81700C0E0049931
:1030C000012081F83C00FFE7FFE7029800901428F8
:1030D00000F2A7800099DFE801F00BA4A4A424A4C7
:1030E000A4A43EA4A4A457A4A4A471A4A4A48A0044
:1030F00004980068039901F02DFB04980168886921
:1031000040F00800886104980168886920F0040094
:10311000886103980269049801688869104388618E
:1031200083E004980068039901F0BEFB04980168ED
:10313000886940F40060886104980168886920F417
:10314000806088610398026904980168886940EA90
:103150000220886169E004980068039901F05CFC32
:1031600004980168C86940F00800C86104980168C3
:10317000C86920F00400C8610398026904980168D6
:10318000C8691043C86150E004980068039901F0D1
:10319000FBFC04980168C86940F40060C8610498A9
:1031A0000168C86920F48060C861039802690498C6
:1031B0000168C86940EA0220C86136E004980068E6
:1031C000039901F099FD04980168086D40F008002A
:1031D000086504980168086D20F0040008650398EC
:1031E000026904980168086D104308651DE00498A1
:1031F0000068039901F0EAFD04980168086D40F445
:103200000060086504980168086D20F48060086516
:103210000398026904980168086D40EA0220086575
:1032200003E001208DF80700FFE7FFE70499002085
:1032300081F83C00FFE79DF807008DF81700FFE7D5
:103240009DF8170006B080BD80B582B00090009850
:1032500020B9FFE701208DF8070045E0009890F8BD
:103260003D0040B9FFE70099002081F83C0000983C
:1032700000F03EF8FFE70099022081F83D00009938
:1032800051F8040B01F04CF90099012081F8480035
:10329000FFE70099012081F83E00009981F83F0086
:1032A000009981F84000009981F84100009981F867
:1032B0004200009981F84300FFE7FFE700990120F1
:1032C00081F84400009981F84500009981F8460092
:1032D000009981F84700FFE70099012081F83D003F
:1032E00000208DF80700FFE79DF8070002B080BDC1
:1032F00082B0019001980068B0F1804F10D1FFE7D3
:10330000FFE741F25800C4F20200016841F00101F8
:103310000160006800F0010000900098FFE7FFE7FF
:1033200002B0704781B0009001B0704780B590B096
:103330000E900D910D9828B9FFE70E9890F83E0079
:103340000B9034E00D98042805D1FFE70E9890F813
:103350003F000A9028E00D98082805D1FFE70E9855
:1033600090F8400009901CE00D980C2805D1FFE76B
:103370000E9890F84100089010E00D98102805D1A3
:10338000FFE70E9890F84200079004E00E9890F83E
:1033900043000790FFE707980890FFE70898099017
:1033A000FFE709980A90FFE70A980B90FFE70B9850
:1033B000012804D0FFE701208DF83F00E1E00D98DF
:1033C00028B9FFE70E99022081F83E0038E00D98F9
:1033D000042806D1FFE70E99022081F83F000690ED
:1033E0002CE00D98082806D1FFE70E99022081F8FD
:1033F000400005901FE00D980C2806D1FFE70E99BC
:10340000022081F84100049012E00D98102806D1A6
:10341000FFE70E99022081F84200039005E00E9923
:10342000022081F843000390FFE703980490FFE730
:1034300004980590FFE705980690FFE70698FFE7D8
:103440000E9800680D990122019201F035F901985A
:103450000E99096842F60042C4F2010291420290BC
:103460002DD0FFE70E980168012043F20042C4F21C
:1034700001029142029022D0FFE70E9801680120DC
:1034800044F20002C4F201029142029017D0FFE719
:103490000E980168012044F20042C4F201029142F8
:1034A00002900CD0FFE70E9800684BF60001CBF6B7
:1034B000FE710844B0FA80F040090290FFE70298DC
:1034C000C00738B1FFE70E980168486C40F400402F
:1034D0004864FFE70E98006842F60041C4F201011B
:1034E00088422AD0FFE70E980068B0F1804F24D0C0
:1034F000FFE70E98006840F20041C4F200018842E4
:103500001BD0FFE70E98006840F60001C4F20001EE
:10351000884212D0FFE70E98006843F20041C4F2DF
:103520000101884209D0FFE70E98006844F20001CB
:10353000C4F20101884219D1FFE70E980068806843
:103540000721C0F2010108400C900C9806280CD00D
:10355000FFE70C98B0F5803F07D0FFE70E980168B1
:10356000086840F001000860FFE706E00E98016877
:10357000086840F001000860FFE700208DF83F0078
:10358000FFE79DF83F0010B080BD000081B00090C3
:1035900001B0704781B0009001B0704783B00190D6
:1035A000FFE7019890F88400012804D1FFE702208A
:1035B0008DF80B002CE00199012081F88400FFE7D1
:1035C000FFE701992420C1F888000198006800688D
:1035D000009001980168086820F0010008600098D8
:1035E00020F0005000900199002048660098019951
:1035F0000968086001992020C1F88800FFE7019957
:10360000002081F88400FFE700208DF80B00FFE721
:103610009DF80B0003B0704780B584B00290019113
:10362000FFE7029890F88400012804D1FFE7022008
:103630008DF80F0032E00299012081F88400FFE745
:10364000FFE702992420C1F888000298006800680A
:10365000009002980168086820F001000860029854
:103660000068806820F06060019908430299096849
:103670008860029801F066FC009802990968086069
:1036800002992020C1F88800FFE70299002081F804
:103690008400FFE700208DF80F00FFE79DF80F0082
:1036A00004B080BD80B584B002900191FFE702981C
:1036B00090F88400012804D1FFE702208DF80F0064
:1036C00032E00299012081F88400FFE7FFE70299C8
:1036D0002420C1F8880002980068006800900298D1
:1036E0000168086820F0010008600298006880689E
:1036F00020F06040019908430299096888600298A7
:1037000001F020FC009802990968086002992020C5
:10371000C1F88800FFE70299002081F88400FFE7E4
:1037200000208DF80F00FFE79DF80F0004B080BD6A
:1037300080B582B00090009820B9FFE701208DF895
:10374000070046E00098806908B1FFE700E0FFE766
:103750000098D0F8880040B9FFE70099002081F870
:103760008400009800F03AF8FFE700992420C1F89F
:10377000880000980168086820F00100086000983F
:10378000806A20B1FFE7009801F020FCFFE7009875
:1037900001F0B4FD012804D1FFE701208DF80700F6
:1037A00017E000980168486820F49040486000984D
:1037B0000168886820F02A0088600098016808681D
:1037C00040F001000860009801F0A4FC8DF80700AB
:1037D000FFE79DF8070002B080BD000080B59CB0F7
:1037E0001B9000201A90199018901790169005A819
:1037F0004421FCF7D9FD1B98006843F60001C4F290
:10380000010188423AD1FFE701200590002006908F
:1038100005A8FDF7C7F918B1FFE7FCF72DFEFFE794
:10382000FFE741F26000C4F20200016841F4804108
:103830000160006800F4804004900498FFE7FFE70F
:1038400041F24C00C4F20200016841F00101016044
:10385000006800F0010003900398FFE74FF4C06098
:1038600016900220179000201890199007201A90A7
:103870004FF0904016A9FCF729FE42E01B98006823
:1038800044F20041C4F20001884239D1FFE702202E
:1038900005900020079005A8FDF784F918B1FFE70F
:1038A000FCF7EAFDFFE7FFE741F25800C4F202002F
:1038B000016841F400310160006800F400300290BA
:1038C0000298FFE7FFE741F24C00C4F202000168F2
:1038D00041F001010160006800F0010001900198D1
:1038E000FFE70C20169002201790002018901990E6
:1038F00007201A904FF0904016A9FCF7E7FDFFE76C
:10390000FFE71CB080BD0000FFE7FEE780B582B096
:103910008DF807009DF807008DF8060076200DF160
:103920000601012200F0EEF802B080BD80B584B03F
:1039300001200290FFF7EAFF029A04208DF80F00A1
:103940007B200DF10F01019100F0DCF80020FFF762
:10395000DDFF0199029A95208DF80F004D2000F0AF
:10396000D1F804B080BD000080B582B040F6000000
:10397000C4F6000010210122FCF75CFF00F086F87D
:103980000A20019002F05AF8FFF7D0FF00F008F883
:1039900000F0A4F8019802F051F802B080BD0000D8
:1039A00080B584B00020FFF7B1FF012202928DF8AC
:1039B0000F204F200DF10F01019100F0A3F80199A4
:1039C000029A502000F09EF804B080BD80B596B0F9
:1039D00015900020FFF79AFF1F2012A900910C22DA
:1039E00000F02AF800980FA9019102F077F80198E9
:1039F00002A902F099F89DED020B159880ED000BDD
:103A00009DED040B159880ED020B9DED060B1598AE
:103A100080ED040B9DED080B159880ED060B9DEDD8
:103A20000A0B159880ED080B9DED0C0B159880ED99
:103A30000A0B16B080BD000080B586B08DF8170067
:103A400004918DF80F209DF8170040F080008DF84C
:103A50000E0040F60000C4F6000000901021019115
:103A60000022FCF7E7FE0DF10E000121029102F0A9
:103A7000C1F804989DF80F1002F0AAF80098019977
:103A8000029AFCF7D7FE06B080BD000080B586B074
:103A900011208DF81700012004908DF816000020E9
:103AA0000190FFF733FF019A40F60000C4F60000D2
:103AB000029010210391FCF7BDFE04990DF117004F
:103AC00002F098F804990DF1160002F093F80298AC
:103AD0000399049AFCF7AEFE06B080BD80B582B0B3
:103AE0000020FFF713FF4E208DF807000F208DF800
:103AF00006009DF807000DF10601012200F002F812
:103B000002B080BD80B5C8B08DF81E0146918DF819
:103B10001721002204928DF816209DF81E018DF8C1
:103B200015008DF8142040F60000C4F60000019046
:103B300010210291FCF77EFE0DF115000121039189
:103B400002F058F846989DF8171102F053F80198C2
:103B50000299039AFCF76EFE9DF81E019DF817214D
:103B60000DF11701FFF768FF04988DF81600FFE7C5
:103B70009DF816009DF81711884215DAFFE79DF8A9
:103B800016200DF11700805C4699895C884204D0AC
:103B9000FFE701208DF81F010AE0FFE79DF81600FE
:103BA00001308DF81600E3E700208DF81F01FFE7D4
:103BB0009DF81F0148B080BD80B58EB000200D90EB
:103BC0000C900B900A900990FFE741F24C00C4F270
:103BD0000200016841F020010160006800F020004F
:103BE00008900898FFE7FFE741F24C00C4F202009A
:103BF000016841F001010160006800F001000790D8
:103C00000798FFE7FFE741F24C00C4F202000168A9
:103C100041F004010160006800F00400069006987D
:103C2000FFE7FFE741F24C00C4F20200016841F0F7
:103C300002010160006800F0020005900598FFE7AE
:103C400040F60000C4F6000001901021009100220F
:103C50000392FCF7EFFD009A019803990992012263
:103C600002920A920B910C9109A90491FCF72EFC87
:103C7000029A0398049909924FF488120A920B90C1
:103C800040F20040C4F60000FCF720FC0EB080BDFE
:103C900080B582B040F27000C2F20000019043F2A1
:103CA0000001C4F2010101604FF482714160002102
:103CB00081604FF4E062C26002220261012242612F
:103CC0004FF4007282611022C2610162416281621E
:103CD0000722C26201634163FDF7AEFF18B1FFE73F
:103CE000FCF7CAFBFFE702B080BD000080B58CB0D6
:103CF000002101910B910A91099108910791069178
:103D0000059104910391029140F2D400C2F20000A7
:103D10004FF0804202604160816041F24342C260E4
:103D200001618161FFF790FA18B1FFE7FCF7A4FB8E
:103D3000FFE7002009900B9040F2D400C2F200008F
:103D400009A9FEF777FD18B1FFE7FCF795FBFFE740
:103D500060200290002203920492069240F2D40066
:103D6000C2F2000002A9FFF797F918B1FFE7FCF7CC
:103D700083FBFFE740F2D400C2F20000FFF75AF9DC
:103D80000CB080BD80B588B00021009107910691EC
:103D90000591049103910291019140F22010C2F229
:103DA000000040F20042C4F200020260A922426018
:103DB000816040F2E732C26001618161FEF7DEFDA1
:103DC00018B1FFE7FCF758FBFFE74FF48050049071
:103DD00040F22010C2F2000004A9FEF7BDFE18B1A7
:103DE000FFE7FCF749FBFFE700200190039040F25A
:103DF0002010C2F2000001A9FEF71CFD18B1FFE778
:103E0000FCF73AFBFFE708B080BD000080B582B048
:103E100040F26C10C2F20000009043F60001C4F2C0
:103E20000101016048F28041C0F21E0141600021A1
:103E300001918160C16001610C2242618161C161B7
:103E4000016241628162FFF773FC18B1FFE7FCF782
:103E500013FBFFE740F26C10C2F200000021FFF7F5
:103E600021FC18B1FFE7FCF707FBFFE740F26C10FD
:103E7000C2F200000021FFF7CFFB18B1FFE7FCF70B
:103E8000FBFAFFE740F26C10C2F20000FFF786FB7E
:103E900018B1FFE7FCF7F0FAFFE702B080BD0000C1
:103EA00080B582B040F20020C2F20000009044F2DF
:103EB0000041C4F20001016048F28041C0F21E01DD
:103EC0004160002101918160C16001610C22426169
:103ED0008161C161016241628162FFF729FC18B111
:103EE000FFE7FCF7C9FAFFE740F20020C2F200004A
:103EF0000021FFF7D7FB18B1FFE7FCF7BDFAFFE79A
:103F000040F20020C2F200000021FFF785FB18B14B
:103F1000FFE7FCF7B1FAFFE740F20020C2F2000031
:103F2000FFF73CFB18B1FFE7FCF7A6FAFFE702B08A
:103F300080BD0000FFE7FEE7FFE7FEE788B00790DF
:103F400006910592079800F0070004900498C0F1CC
:103F50000700052803D3FFE70420019004E004983C
:103F6000C0F107000190FFE7019803900498043026
:103F7000062803D8FFE70020009003E004980338E8
:103F80000090FFE70098029006980399012202FA38
:103F900001F101390840029B984005999A40013A85
:103FA0001140084308B070477047000086B041F2E6
:103FB0000C00C4F20200016801F0030104910068E2
:103FC000C1B2012000EB1110029004980090022869
:103FD00015D0FFE70098032812D1FFE7029947F6B2
:103FE0004000C0F27D10B0FBF1F041F20C01C4F2D0
:103FF00002010968C1F306214843059011E0FFE77B
:10400000029942F20040C0F2F400B0FBF1F041F23C
:104010000C01C4F202010968C1F30621484305906E
:10402000FFE741F20C00C4F20200006800F0C0613A
:10403000022000EB1160039005980399B0FBF1F0AA
:104040000190019806B0704780B586B00490039146
:10405000029204984068B0F5827F13D1FFE704987C
:104060008068B0F5004F06D0FFE704988068B0F58F
:10407000806F07D1FFE704980168086820F04000CE
:104080000860FFE70498039B02996A46116080214B
:10409000002200F02DF948B1FFE70499086E40F0C6
:1040A0002000086603208DF817002BE00498406874
:1040B000B0F5827F22D1FFE704988068B0F5004F09
:1040C00006D0FFE704988068B0F5806F16D1FFE74F
:1040D0000498039B02996A4611604FF4C061002264
:1040E00000F060F848B1FFE70499086E40F0200046
:1040F000086603208DF8170004E0FFE700208DF824
:104100001700FFE79DF8170006B080BD80B586B0A8
:104110000490039102920498039B02996A461160ED
:104120004FF4C051002200F03DF848B1FFE7049978
:10413000086E40F02000086603208DF817002CE080
:104140000498039B02996A4611608021002200F0C6
:10415000CFF848B1FFE70499086E40F020000866E8
:1041600003208DF8170018E00498039B02996A4613
:1041700011604FF4C061002200F014F848B1FFE76D
:104180000499086E40F02000086603208DF817009F
:1041900003E000208DF81700FFE79DF8170006B038
:1041A00080BD000080B58CB0DDF838C00A90099160
:1041B0000892079300208DF80B0007980190FCF7F8
:1041C0004FFB024601980E99891A08440590FCF7A6
:1041D00047FB04900A9800680C300390059840F261
:1041E0000001C2F20001096823225143090D48432E
:1041F0000690FFE70A9800688068099908400899C6
:1042000088426DD0FFE70998B0F5C06F0AD1FFE78B
:10421000089838B9FFE7039800788DF80B009DF8EF
:104220000B00FFE707980130002858D0FFE7FCF7A4
:1042300017FB0499401A0599884204D2FFE70598B4
:10424000002842D1FFE70A980168486820F0E000A2
:1042500048600A984068B0F5827F13D1FFE70A985A
:104260008068B0F5004F06D0FFE70A988068B0F587
:10427000806F07D1FFE70A980168086820F04000C6
:104280000860FFE70A98806AB0F5005F0FD1FFE78A
:10429000FFE70A980168086820F4005008600A984F
:1042A0000168086840F400500860FFE7FFE70A99DA
:1042B000012081F85D00FFE70A99002081F85C0089
:1042C000FFE703208DF82F000EE0069818B9FFE7EE
:1042D00000200590FFE7069801380690FFE789E780
:1042E00000208DF82F00FFE79DF82F000CB080BD57
:1042F00080B58AB0DDF830C0089007918DF81B209A
:10430000059305980190FCF7ABFA024601980C99C9
:10431000891A08440390FCF7A3FA0290039840F22C
:104320000001C2F200010968C1F3CB314843049097
:10433000FFE708980068806807990840401AB0FABB
:1043400080F040099DF81B1088425ED0FFE7059879
:104350000130002858D0FFE7FCF782FA0299401A92
:104360000399884204D2FFE70398002842D1FFE76F
:1043700008980168486820F0E000486008984068A4
:10438000B0F5827F13D1FFE708988068B0F5004F41
:1043900006D0FFE708988068B0F5806F07D1FFE787
:1043A00008980168086820F040000860FFE7089856
:1043B000806AB0F5005F0FD1FFE7FFE7089801685A
:1043C000086820F40050086008980168086840F404
:1043D00000500860FFE7FFE70899012081F85D00C1
:1043E000FFE70899002081F85C00FFE703208DF8C3
:1043F00027000EE0049818B9FFE700200390FFE7BC
:10440000049801380490FFE793E700208DF8270017
:10441000FFE79DF827000AB080BD0000704700004C
:1044200080B582B0009000980138B0F1807F03D34E
:10443000FFE70120019019E0009801384EF21401C5
:10444000CEF2000108604FF0FF300F2101F0B6FA04
:104450004EF21801CEF20001002008604EF2100268
:10446000CEF20002072111600190FFE7019802B02F
:1044700080BD000080B5FCF7F9F980BD80B594B02F
:1044800006A800903821FBF78FFF002005900490CC
:10449000039002900190FCF7A1FA00980121069187
:1044A0004FF4A021079102210D9103220E920522C3
:1044B0000F9244221092119112911391FCF7E0FF98
:1044C00018B1FFE7FBF7D8FFFFE70F2001900320AB
:1044D0000290002003900490059001A80421FCF7AD
:1044E0008FFD18B1FFE7FBF7C7FFFFE714B080BDF2
:1044F0004EF68851CEF20001086840F47000086062
:104500007047000080B540F22010C2F20000FEF7B4
:1045100011FC40F2F021C2F200010120087080BDC0
:1045200083B002900191029800680090029842F6D0
:104530000041C4F2010188421DD0FFE70298B0F1AA
:10454000804F18D0FFE7029840F20041C4F200010A
:10455000884210D0FFE7029840F60001C4F2000143
:10456000884208D0FFE7029843F20041C4F20101FB
:1045700088420AD1FFE7009820F07000009001986F
:104580004168009808430090FFE7029842F6004116
:10459000C4F20101884235D0FFE70298B0F1804FA4
:1045A00030D0FFE7029840F20041C4F20001884297
:1045B00028D0FFE7029840F60001C4F200018842CB
:1045C00020D0FFE7029843F20041C4F20101884283
:1045D00018D0FFE7029844F20001C4F201018842BA
:1045E00010D0FFE7029844F20041C4F20101884272
:1045F00008D0FFE7029844F60001C4F201018842A6
:104600000AD1FFE7009820F4407000900198C1683B
:10461000009808430090FFE7009820F0800001997F
:1046200049690843009000980299086001988068E1
:104630000299C8620198006802998862029842F65D
:104640000041C4F20101884220D0FFE7029843F202
:104650000041C4F20101884218D0FFE7029844F2F9
:104660000001C4F20101884210D0FFE7029844F231
:104670000041C4F20101884208D0FFE7029844F6E5
:104680000001C4F20101884205D1FFE701980069E9
:1046900002990863FFE702990120486102980069C6
:1046A000C00730B1FFE70299086920F001000861F6
:1046B000FFE703B07047000084B0039002910192BD
:1046C000029800F01F01012088400090009A039991
:1046D000086A904308620198029901F01F0100FAEC
:1046E00001F20399086A1043086204B070470000A1
:1046F00085B0049003910292019304988068009021
:10470000009820F47F40009003980299019A41EAB2
:1047100002210143009808430090009804998860A2
:1047200005B0704783B002900191029880680090B4
:1047300000984FF68F71CFF6CF7108400090019826
:104740000099084340F007000090009802998860A3
:1047500003B0704785B0049003910498006A0190FB
:104760000499086A20F001000862049840680090EB
:1047700004988069029002984FF68F71CFF6FE710F
:1047800008400290029820F003000290039801680C
:10479000029808430290019820F0020001900398CB
:1047A0008168019808430190049842F60041C4F2E0
:1047B0000101884220D0FFE7049843F20041C4F28F
:1047C0000101884218D0FFE7049844F20001C4F2C6
:1047D0000101884210D0FFE7049844F20041C4F27E
:1047E0000101884208D0FFE7049844F60001C4F2B2
:1047F000010188420ED1FFE7019820F008000190E6
:104800000398C168019808430190019820F00400C2
:104810000190FFE7049842F60041C4F2010188428A
:1048200020D0FFE7049843F20041C4F2010188421E
:1048300018D0FFE7049844F20001C4F20101884255
:1048400010D0FFE7049844F20041C4F2010188420D
:1048500008D0FFE7049844F60001C4F20101884241
:1048600013D1FFE7009820F480700090009820F4A6
:1048700000700090039841690098084300900398E5
:104880008169009808430090FFE700980499486008
:1048900002980499886103984068049948630198D4
:1048A0000499086205B0704785B00490039104989C
:1048B000006A01900499086A20F0100008620498C8
:1048C00040680090049880690290029848F6FF7151
:1048D000CFF6FF6108400290029820F440700290E9
:1048E00003980168029840EA01200290019820F0A4
:1048F0002000019003988168019840EA011001901E
:10490000049842F60041C4F20101884229D0FFE731
:10491000049843F20041C4F20101884221D0FFE72C
:10492000049844F20001C4F20101884203D1FFE778
:104930000020B0B9FFE7049844F20041C4F201013D
:10494000884203D1FFE7002058B9FFE7049844F6F6
:104950000001C4F20101884212D1FFE7012078B9B9
:10496000FFE7019820F0800001900398C16801984A
:1049700040EA01100190019820F040000190FFE70B
:10498000049842F60041C4F20101884220D0FFE7BA
:10499000049843F20041C4F20101884218D0FFE7B5
:1049A000049844F20001C4F20101884210D0FFE7EC
:1049B000049844F20041C4F20101884208D0FFE7A4
:1049C000049844F60001C4F20101884215D1FFE7C2
:1049D000009820F480600090009820F4006000901F
:1049E00003984169009840EA81000090039881692A
:1049F000009840EA81000090FFE700980499486021
:104A00000298049988610398406804998863019822
:104A10000499086205B0704785B00490039104982A
:104A2000006A01900499086A20F480700862049872
:104A3000406800900498C069029002984FF68F7108
:104A4000CFF6FE7108400290029820F00300029019
:104A500003980168029808430290019820F40070BE
:104A6000019003988168019840EA01200190049820
:104A700042F60041C4F20101884229D0FFE70498C0
:104A800043F20041C4F20101884221D0FFE70498BB
:104A900044F20001C4F20101884203D1FFE7002083
:104AA000B0B9FFE7049844F20041C4F20101884222
:104AB00003D1FFE7002058B9FFE7049844F600014E
:104AC000C4F20101884212D1FFE7012078B9FFE763
:104AD000019820F4006001900398C168019840EAB1
:104AE00001200190019820F480600190FFE7049874
:104AF00042F60041C4F20101884220D0FFE7049849
:104B000043F20041C4F20101884218D0FFE7049843
:104B100044F20001C4F20101884210D0FFE704987A
:104B200044F20041C4F20101884208D0FFE7049832
:104B300044F60001C4F20101884215D1FFE7009854
:104B400020F480500090009820F4005000900398CA
:104B50004169009840EA011000900398816900982B
:104B600040EA01100090FFE700980499486002981D
:104B70000499C861039840680499C863019804992E
:104B8000086205B07047000085B004900391049856
:104B9000006A01900499086A20F480500862049821
:104BA000406800900498C0690290029848F6FF712E
:104BB000CFF6FF6108400290029820F44070029006
:104BC00003980168029840EA01200290019820F4BD
:104BD0000050019003988168019840EA01300190EB
:104BE000049842F60041C4F20101884229D0FFE74F
:104BF000049843F20041C4F20101884221D0FFE74A
:104C0000049844F20001C4F20101884203D1FFE795
:104C10000020B0B9FFE7049844F20041C4F201015A
:104C2000884203D1FFE7002058B9FFE7049844F613
:104C30000001C4F20101884212D1FFE7012078B9D6
:104C4000FFE7019820F4004001900398C1680198A3
:104C500040EA01300190019820F480400190FFE784
:104C6000049842F60041C4F20101884220D0FFE7D7
:104C7000049843F20041C4F20101884218D0FFE7D2
:104C8000049844F20001C4F20101884210D0FFE709
:104C9000049844F20041C4F20101884208D0FFE7C1
:104CA000049844F60001C4F20101884215D1FFE7DF
:104CB000009820F480400090009820F4004000907C
:104CC00003984169009840EA811000900398816937
:104CD000009840EA81100090FFE70098049948602E
:104CE00002980499C861039840680499086401987F
:104CF0000499086205B0704785B004900391049848
:104D0000006A01900499086A20F4803008620498CF
:104D1000406800900498006D029002984FF68F71E1
:104D2000CFF6FE710840029003980168029808438C
:104D30000290019820F40030019003988168019856
:104D400040EA01400190049842F60041C4F201019A
:104D5000884220D0FFE7049843F20041C4F20101E9
:104D6000884218D0FFE7049844F20001C4F2010120
:104D7000884210D0FFE7049844F20041C4F20101D8
:104D8000884208D0FFE7049844F60001C4F201010C
:104D900088420BD1FFE7009820F480300090039800
:104DA0004169009840EA01200090FFE700980499CB
:104DB00048600298049908650398406804998864DB
:104DC00001980499086205B07047000085B004900E
:104DD00003910498006A01900499086A20F48010F5
:104DE00008620498406800900498006D0290029850
:104DF00048F6FF71CFF6FF61084002900398016802
:104E0000029840EA01200290019820F400100190DD
:104E100003988168019840EA01500190049842F695
:104E20000041C4F20101884220D0FFE7049843F218
:104E30000041C4F20101884218D0FFE7049844F20F
:104E40000001C4F20101884210D0FFE7049844F247
:104E50000041C4F20101884208D0FFE7049844F6FB
:104E60000001C4F2010188420BD1FFE7009820F451
:104E70008020009003984169009840EA81200090CA
:104E8000FFE7009804994860029804990865039820
:104E900040680499C86401980499086205B0704795
:104EA00085B00490039102920498006A00900499DE
:104EB000086A20F001000862049880690190019856
:104EC00020F0F00001900299019840EA0110019051
:104ED000009820F00A000090039900980843009081
:104EE00001980499886100980499086205B0704798
:104EF00085B00490039102920498006A009004998E
:104F0000086A20F0100008620498806901900198F6
:104F100020F4704001900299019840EA013001901C
:104F2000009820F0A00000900399009840EA01103A
:104F3000009001980499886100980499086205B06E
:104F40007047000082B001900198406E40B9FFE7C1
:104F500001990120A1F86A000199A1F8680032E0E6
:104F600008208DF803008DF8020001980068806821
:104F7000C0F342608DF80100019800688068400F1E
:104F80008DF800009DF802009DF8002045F67A6338
:104F9000C0F60003995C484345F67261C0F6000113
:104FA0008A5CB0FBF2F0019AA2F86A009DF8030057
:104FB0009DF801209B5C5843895CB0FBF1F001999E
:104FC000A1F86800FFE702B07047000081B00090D0
:104FD000009890F82800000700280BD5FFE70098FC
:104FE0000068406820F40040009A1168926B1043FA
:104FF0004860FFE7009890F82800C00758B1FFE725
:1050000000980068406820F40030009A1168D26A65
:1050100010434860FFE7009890F8280080070028B8
:105020000BD5FFE700980068406820F48030009AB4
:105030001168126B10434860FFE7009890F8280051
:10504000400700280BD5FFE700980068406820F46F
:105050008020009A1168526B10434860FFE7009867
:1050600090F82800C00600280BD5FFE700980068DC
:10507000806820F48050009A1168D26B10438860D9
:10508000FFE7009890F82800800600280BD5FFE77E
:1050900000980068806820F40050009A1168126C33
:1050A00010438860FFE7009890F828004006002829
:1050B0001CD5FFE700980068406820F48010009A33
:1050C0001168526C104348600098406CB0F5801F26
:1050D0000BD1FFE700980068406820F4C000009AF8
:1050E0001168926C10434860FFE7FFE7009890F862
:1050F0002800000600280BD5FFE7009800684068EC
:1051000020F40020009A1168D26C10434860FFE739
:1051100001B0704780B588B0069006990020C1F8AC
:105120009000FBF79DFB059006980068006800075B
:1051300000282FD5FFE70698059B6A466FF07E4151
:1051400011604FF40011002200F090FB08B3FFE75C
:10515000FFE7FFE70698006850E8000F20F08000A6
:105160000490FFE704990698026842E800100028BE
:10517000F0D1FFE7FFE706992020C1F88800FFE79C
:105180000699002081F88400FFE703208DF81F00B6
:105190005FE0FFE70698006800684007002842D5F6
:1051A000FFE70698059B6A466FF07E4111604FF459
:1051B0008001002200F05AFBA0B3FFE7FFE7FFE702
:1051C0000698006850E8000F20F490700390FFE705
:1051D00003990698026842E800100028F0D1FFE722
:1051E000FFE7FFE7FFE70698006850E8020F20F0AE
:1051F00001000290FFE702990698026842E8021057
:105200000028F0D1FFE7FFE706992020C1F88C00C5
:10521000FFE70699002081F88400FFE703208DF85E
:105220001F0016E0FFE706992020C1F888000699C4
:10523000C1F88C0006990020C86606990867FFE748
:105240000699002081F88400FFE700208DF81F00F8
:10525000FFE79DF81F0008B080BD000084B00390F8
:10526000FFE7FFE70398006850E8000F20F4907014
:105270000290FFE702990398026842E800100028B4
:10528000F0D1FFE7FFE7FFE7FFE70398006850E88A
:10529000020F4FF6FE71CEF6FF7108400190FFE756
:1052A00001990398026842E802100028EDD1FFE757
:1052B000FFE70398C06E012814D1FFE7FFE7FFE77F
:1052C0000398006850E8000F20F010000090FFE7FE
:1052D00000990398026842E800100028F0D1FFE727
:1052E000FFE7FFE703992020C1F88C000399002015
:1052F000C8660399486704B07047000080B592B053
:10530000119000208DF837001198006848F20001D4
:10531000C4F20001884201D1FFE700E0FFE71199E4
:1053200088680B694A69C96918431043084310909B
:1053300011980068006846F6F311CCF6FF7108403A
:10534000109908431199096808601198006840682D
:1053500020F44050119A1168D268104348601198A7
:10536000806910901198006848F20001C4F20001B1
:10537000884206D0FFE71198016A10980843109000
:10538000FFE71198006880684FF2FF41C1F2FF11FA
:1053900008401099084311990968886011980068BD
:1053A000C06A20F00F00119A1168526A1043C86257
:1053B000FFE71198006843F60001C4F2010188423A
:1053C00025D1FFE741F28800C4F20200006800F036
:1053D000030001460A91032814D80A99DFE801F076
:1053E000020A060E01208DF83D000FE002208DF824
:1053F0003D000BE004208DF83D0007E008208DF80B
:105400003D0003E010208DF83D00FFE7DCE011983F
:10541000006844F20041C4F2000188422AD1FFE74B
:1054200041F28800C4F20200006800F00C0001465E
:1054300009910C2819D80999DFE801F00717171707
:105440000F1717170B171717130000208DF83D00C3
:105450000FE002208DF83D000BE004208DF83D00A8
:1054600007E008208DF83D0003E010208DF83D0096
:10547000FFE7A8E01198006844F60001C4F20001BB
:1054800088422CD1FFE741F28800C4F20200006894
:1054900000F030000146089160B1FFE7089810283D
:1054A00010D0FFE70898202808D0FFE70898302898
:1054B0000CD00FE000208DF83D000FE002208DF8A9
:1054C0003D000BE004208DF83D0007E008208DF83A
:1054D0003D0003E010208DF83D00FFE772E01198D9
:1054E000006844F60041C4F2000188422CD1FFE775
:1054F00041F28800C4F20200006800F0C0000146DA
:10550000079160B1FFE70798402810D0FFE70798A0
:10551000802808D0FFE70798C0280CD00FE00020B3
:105520008DF83D000FE002208DF83D000BE00420D7
:105530008DF83D0007E008208DF83D0003E01020C5
:105540008DF83D00FFE73CE01198006848F200014B
:10555000C4F2000188422FD1FFE741F28800C4F273
:105560000200006800F440600146069178B1FFE750
:105570000698B0F5806F12D0FFE70698B0F5006F7F
:1055800009D0FFE70698B0F5406F0CD00FE000207F
:105590008DF83D000FE002208DF83D000BE0042067
:1055A0008DF83D0007E008208DF83D0003E0102055
:1055B0008DF83D00FFE703E010208DF83D00FFE788
:1055C000FFE7FFE7FFE7FFE7FFE71198006848F212
:1055D0000001C4F20001884240F07E80FFE79DF8A0
:1055E0003D0001460591082819D80599DFE801F02A
:1055F000051709170F1717171300FBF79BFE0B90E2
:1056000013E042F20040C0F2F4000B900DE0FBF713
:10561000B9FE0B9009E04FF400400B9005E000202C
:105620000B9001208DF83700FFE70B98002852D02F
:10563000FFE70B9811994A6A45F68261C0F60001AE
:1056400031F81210B0FBF1F00C900C9811994968E8
:1056500001EB4101884207D3FFE70C981199496893
:10566000B0EB013F04D9FFE701208DF8370031E0AE
:105670000B9811994A6803924A6A45F68261C0F60E
:10568000000131F81220002304931946FAF714FEA2
:10569000039A049B090241EA1061000210EB5200D8
:1056A00041F10001FAF708FE0E900E98B0F5407F28
:1056B0000BD3FFE70E990020B0EB115F05D1FFE798
:1056C0000E9811990968C86003E001208DF8370031
:1056D000FFE7FFE7FFE7B9E01198C069B0F5004FB9
:1056E00061D1FFE79DF83D000146029108281DD8D1
:1056F0000299DFE801F005090D1B131B1B1B1700A6
:10570000FBF718FE0B9017E0FBF728FE0B9013E059
:1057100042F20040C0F2F4000B900DE0FBF732FEC5
:105720000B9009E04FF400400B9005E000200B9037
:1057300001208DF83700FFE70B9898B3FFE70B982F
:10574000119A5168536A45F68262C0F6000232F837
:105750001320B0FBF2F0400000EB5100B0FBF1F081
:105760000E900E98102818D3FFE7BDF83A00A0B9A4
:10577000FFE70E9820F00F00ADF83E000E9800F005
:105780000E01BDF83E0040EA5100ADF83E00BDF804
:105790003E0011990968C86003E001208DF83700C8
:1057A000FFE7FFE751E09DF83D0001460191082821
:1057B0001DD80199DFE801F005090D1B131B1B1B08
:1057C0001700FBF7B7FD0B9017E0FBF7C7FD0B9039
:1057D00013E042F20040C0F2F4000B900DE0FBF742
:1057E000D1FD0B9009E04FF400400B9005E0002044
:1057F0000B9001208DF83700FFE70B9820B3FFE7EF
:105800000B98119A5168536A45F68262C0F60002FD
:1058100032F81320B0FBF2F000EB5100B0FBF1F0D6
:105820000E900E9810280AD3FFE7BDF83A0030B961
:10583000FFE7BDF8380011990968C86003E001204E
:105840008DF83700FFE7FFE7FFE7FFE71199012039
:10585000A1F86A001199A1F8680011990020486721
:10586000119988679DF8370012B080BD80B586B069
:10587000DDF820C0049003918DF80B200193FFE721
:1058800004980068C06903990840401AB0FA80F093
:1058900040099DF80B10884266D1FFE70898013057
:1058A000002860D0FFE7FAF7DBFF0199401A08995A
:1058B000884203D8FFE7089820B9FFE703208DF856
:1058C000170055E00498006800684007002849D593
:1058D000FFE70398802845D0FFE70398402841D090
:1058E000FFE704980068C06900F008010120B0EBF0
:1058F000D10F16D1FFE704980168082000900862D4
:105900000498FFF7ABFC00980499C1F89000FFE7FA
:105910000499002081F88400FFE701208DF817002A
:1059200026E004980068C06900F400610120B0EB33
:10593000D12F16D1FFE7049801684FF40060086288
:105940000498FFF78BFC04992020C1F89000FFE732
:105950000499002081F88400FFE703208DF81700E8
:1059600006E0FFE7FFE78BE700208DF81700FFE771
:105970009DF8170006B080BDFFE7FEE781B08DF807
:1059800003009DF9030000280ED4FFE79DF90310E2
:1059900001F01F02012090404A094EF20011CEF2A0
:1059A000000141F82200FFE701B070474EF60C50AD
:1059B000CEF200000068C0F30220704782B08DF87C
:1059C000070000919DF9070000280AD4FFE700981E
:1059D00000019DF907104EF20042CEF200028854F9
:1059E0000BE0009800019DF8071001F00F014EF642
:1059F0001452CEF200028854FFE702B07047000054
:105A000083B00290029800F0070000904EF60C510F
:105A1000CEF200010868019001984FF6FF02104095
:105A200001900198009A40EA02200022C0F2FA5246
:105A3000104301900198086003B0704780B582B0B0
:105A400001900198FAF720FD02B080BD80B5A0B0AA
:105A5000002000901F9005218DF80D100290FAF79C
:105A600013FFFEF70BFDFEF7A7F8FEF711F9FEF79F
:105A70003DF9FEF7CBF9FEF713FAFEF783F900992B
:105A800040F2D400C2F200000190FDF74FFC40F25A
:105A90002010C2F20000FCF7EDFF0198016840F60B
:105AA00022204863FDF760FF0A20FAF7EDFCFFE7CC
:105AB00040F2F020C2F20000007868B1FFE740F247
:105AC000F021C2F200010020087040F29820C2F2DA
:105AD0000000FDF77BFFFFE7EAE7000083B00290DC
