:020000040800F2
:100000005008002025030008D94900088944000849
:10001000D5490008DD150008F56200080000000061
:10002000000000000000000000000000BD4E0008BD
:10003000E115000800000000494A0008154F0008BB
:100040003F0300083F0300083F0300083F03000888
:100050003F0300083F0300083F0300083F03000878
:100060003F0300083F0300083F0300083F03000868
:100070003F0300083F0300083F0300083F03000858
:100080003F030008000000003F0300083F03000892
:100090003F0300083F0300083F0300083F03000838
:1000A0003F0300083F0300083F0300083F03000828
:1000B0003F0300083F0300083F0300083F03000818
:1000C0003F0300083F0300083F0300083F03000808
:1000D0003F0300083F0300083F0300083F030008F8
:1000E0003F0300083F0300083F0300083F030008E8
:1000F0003F0300083F0300083F0300080000000022
:10010000000000003F030008000000003F0300085B
:100110003F030008000000003F0300083F03000801
:100120003F0300083F0300083F0300083F030008A7
:100130003F03000800000000000000003F0300082B
:100140003F0300083F03000800000000000000001B
:10015000000000000000000000000000000000009F
:100160000000000000000000000000003F03000845
:100170003F03000800000000000000000000000035
:10018000000000003F030008000000000000000025
:10019000000000000000000000000000000000005F
:1001A00000000000000000003F0300083F030008BB
:1001B0003F0300083F0300083F0300080000000061
:1001C000000000003F0300080000000000000000E5
:1001D0003F0300083F03000800F002F800F092F827
:1001E0000AA090E8000C82448344AAF10107DA4592
:1001F00001D100F087F8AFF2090EBAE80F0013F052
:10020000010F18BFFB1A43F00103184730740000B8
:1002100050740000103A24BF78C878C1FAD8520749
:1002200024BF30C830C144BF04680C607047000070
:100230000023002400250026103A28BF78C1FBD8EF
:10024000520728BF30C148BF0B6070476E2900F0CD
:10025000FF81702900F04183662907F040816529FC
:1002600007F03D81672907F03A81612907F039815C
:1002700003681B0A28BF41F08001692900F0AC81A6
:10028000642900F0A981752900F0A6816F2900F08A
:10029000CF82782900F00D83E92900F06982E429F2
:1002A00000F06682F52900F06382EF2900F0CC822D
:1002B000F82900F00C830368DB0928BF41F08001B6
:1002C000632901F00D80732901F01280E32901F008
:1002D0001D80F32901F02280002070471FB507F030
:1002E000ECF801F071F804000020002106F0D0FCC9
:1002F000401C60600020002106F0B4FCE0601FBDDF
:1003000010B510BD01F032F81146FFF7E7FF06F017
:1003100043F801F00FF903B4FFF7F2FF03BC01F05B
:1003200055F900000948804709480047FEE7FEE705
:10033000FEE7FEE7FEE7FEE7FEE7FEE7FEE7FEE795
:1003400004480549054A064B70470000914F0008D4
:10035000D90100085002002050080020500400205D
:100360005004002053EA020C00F069802DE9F04BA4
:100370004FF00006002B1FBFB3FA83F503FA05F414
:1003800024FA05F65E4012BF1643B2FA82F502FA6D
:1003900005F4C5F120051EBF22FA05FC44EA0C0451
:1003A000203556EA044C4FEA144418BF641C4FF041
:1003B00000084FF00009904271EB030C39D300297B
:1003C00019BFB1FA81F701FA07F6B0FA80F700FA1F
:1003D00007F6C7F120071EBF20FA07FC46EA0C0605
:1003E0002037B6FBF4FCA7EB0507103F07F01F0B07
:1003F000CBF120062CFA06F60CFA0BFB44BFB346F1
:100400000026202FA4BF5E464FF0000B5BEA060CCF
:1004100008BF4FF0010B19EB0B0948EB0608ABFBCB
:10042000027C06FB02CC0BFB03CCC01B71EB0C0166
:10043000C1E70B46024641464846BDE8F08B13B57E
:10044000084318BF4FF0FF300146AFF30080BDE80E
:100450001C4070470FB41CB5084B06AA7B44694684
:100460000090059800F00DF904460020694600F060
:100470001BF920461CBC5DF814FB0000490200007B
:1004800010B5431C02E010F8011B71B18107FAD1CD
:100490004FF0013202C88C1A8C4314EAC211F9D011
:1004A000C01A0A0603D0C01E10BDC01A10BD0A042F
:1004B00001D0801E10BD0902FCD0401E10BD4FF0BF
:1004C000000200B5134694469646203922BFA0E8A4
:1004D0000C50A0E80C50B1F12001BFF4F7AF0907B0
:1004E00028BFA0E80C5048BF0CC05DF804EB8900A1
:1004F00028BF40F8042B08BF704748BF20F8022BE4
:1005000011F0804F18BF00F8012B704770477047FB
:10051000704770B5044685690068C10601D530266C
:1005200000E02026C00707D070BDD4E90121304685
:100530009047206A401C20626D1EF6D570BD70B5D4
:10054000044685690078C00707D170BDD4E9012150
:1005500020209047206A401C20626D1EF6D570BD99
:1005600009684A0501D540B27047C905FCD500B2FB
:10057000704709684A0501D5C0B27047C905FCD566
:1005800080B2704770B50C460546012A05D0287820
:10059000800600D5EA69002302E0012305E05B1C28
:1005A000934202D2E05C0028F9D1A869E618C01A8B
:1005B000A861286A184428622846FFF7AAFF04E0C9
:1005C000D5E9012114F8010B9047B442F8D328462D
:1005D000FFF7B5FF70BD00002DE9F041064600248D
:1005E00010687529314616A510D0FFF7B9FF00280D
:1005F00002DA404213A507E031688A0701D512A547
:1006000002E0490704D511A5012401E0FFF7B1FF7D
:1006100000210A2206F1240709E0B0FBF2FCB0FB3E
:10062000F2F302FB1C00303078541846491C0028B5
:10063000F3D123462A463046BDE8F04100F061BAC6
:10064000000000002D0000002B0000002000000032
:1006500011680268006A530501D508700AE0D305E5
:1006600001D5088006E0130603D5C217C1E90002D0
:1006700000E008600120704701694A1C02610878A7
:10068000704700B58FB0CDE90131002105910549D2
:100690007944CDE903101146684600F029F90FB0FE
:1006A00000BD0000E5FFFFFF0A6802F8010B0A60C9
:1006B000704700002DE9FF5F15468A460446DFF8C3
:1006C000AC80F8440027D8E900103E46CDE9001080
:1006D00010E03AF816106A4602A800F023FE411C0A
:1006E00007D02178890603D5E269391891420DD8DF
:1006F0000744761C2078800602D5E069B84205DD03
:10070000AE42E6DB3AF816000028E2D1A069C01B31
:10071000A0612046FFF7FDFED8E90010CDE90010EA
:10072000002017E03AF818106A4602A800F0FAFD17
:10073000B0F1FF3F81460BD000250DF1080B05E01D
:10074000D4E901211BF8050090476D1C4D45F7D3F6
:1007500008F10100B0428046E4DB206A38442062A0
:100760002046FFF7ECFEBDE8FF9F0000226E000070
:100770002DE9F0418046D21D22F007020025D2E982
:100780000002F52915A614D0011E72F1000106DA47
:100790000023D0EB030063EB020211A608E0D8F8B7
:1007A00000108B0701D50FA602E0490701D50EA660
:1007B00001251146002408F1240704E000F05CF94B
:1007C00030323A55641C50EA0102F7D12B463246CA
:1007D00021464046BDE8F04100F093B9000000001A
:1007E0002D0000002B0000002000000030B400218C
:1007F00000F1240408E002F00705D208303542EA8F
:100800004372DB086554491C52EA0305F3D10468BE
:10081000002310A2250708D504F020040C4304D0BF
:10082000C46901230CA2641EC46130BC00F069B924
:1008300010B5044621461068FFF79BFE024620468D
:10084000BDE810400023D1E7D21D22F00701D1E915
:100850000023CBE70000000030000000F0B40D469C
:100860000188090502D5214C7C4402E01F4C7C44E0
:100870000E34002100F1240608E002F00F071209EF
:10088000E75D42EA03721B097754491C52EA0307E9
:10089000F3D102780023120704D5702D06D009B1D8
:1008A000022311342246F0BC00F02BB9012310348E
:1008B000F8E770B504460D4621461068FFF759FE6B
:1008C000024629462046BDE870400023C6E7D21DF7
:1008D00022F00703D3E90023C0E70368126843F05E
:1008E000200303600823C3610023B7E7846C000082
:1008F0002DE9F05F894604464FF0000ADFF874B135
:10090000FB44C0F820A02046E1688847002874D046
:10091000252806D0D4E901219047206A401C206296
:10092000F1E700265F462046E16888472028054613
:1009300007DB312D05D2781910F8200C08B10643D9
:10094000F1E7B00701D526F00406C4F81CA0002783
:10095000C4F818A02A2D09D0284606F07BF938B330
:1009600004EB8708303DC8F8185019E059F8041B0B
:10097000204604EB87029161E1688847012F054614
:1009800018D1E069002820DA26F020061DE0D8F80A
:10099000180000EB800005EB40003038C8F8180064
:1009A0002046E1688847054606F054F90028EED154
:1009B000012F0AD02E2D08D12046E16888477F1CE0
:1009C0000546022F46F02006C4DBA069002803DAA2
:1009D000404246F00106A061F00701D026F0100663
:1009E0006C2D0BD0682D09D04C2D39D06A2D35D007
:1009F000742D35D07A2D33D016E038E0E1682F46DB
:100A000020468847B842054609D16C2F26D04FF4BE
:100A10008060E168064320468847054604E06C2F65
:100A20001AD04FF4807006430DB3A5F14100192888
:100A300002D8203546F400664A46294620462660FC
:100A40004E46FFF703FC80B101280BD0F61D26F0BF
:100A5000070000F1080956E74020E4E78020D8E7C6
:100A60000020D6E706F104094DE7284652E7206A40
:100A7000BDE8F09F146C000030B5B0F10A0271F1CE
:100A800000034FEA900E4EEA817EB0EB0E0061EB60
:100A900091014FEA101E4EEA017E10EB0E0041EB71
:100AA00011114FEA102E4EEA016E10EB0E0041EBD1
:100AB00011214FEA104E4EEA014E10EB0E0041EBB1
:100AC0001141401841F100014FEAD00040EA417065
:100AD0004FEAD1014FEA810444EA907410EB80059B
:100AE00044EB01046D1944EB0404521BA3414FF085
:100AF000000348BF0A3200D530BD401C41F100015F
:100B000030BD2DE9F0470D4699469246044600F166
:100B100024080168880604D5E06921F010012160ED
:100B200000E00120A84201DD471B00E00027A16989
:100B30007A1902EB0900081AA0612078C00602D4D5
:100B40002046FFF7E6FC002608E0D4E901211AF868
:100B500006009047206A401C761C20624E45F4DB5C
:100B60002078C0060AD52046FFF7D3FC06E0D4E97A
:100B7000012130209047206A401C2062381EA7F1D6
:100B80000107F4DC07E0D4E9012118F805009047DB
:100B9000206A401C2062281EA5F10105F3DC2046D6
:100BA000FFF7CDFC2078000602D50220BDE8F087D3
:100BB0000120FBE72DE9FF4F0C461E464FF0FF37A3
:100BC0008BB0D2E90001DDF860800A908A46C1F35B
:100BD0000A5505B93D46002108464FF00000BAF11C
:100BE000000F00F4400005DA00EB80004FF44001F4
:100BF00001EA50004FEA9059B9F1010F00DDB94602
:100C00000A9850EA4A000ED044F61050A5F2FF357B
:100C100045432F14B8F1000F1ED07542291E1EDD6A
:100C2000C9F100021CE0B8F1010F4FF0000001D043
:100C3000302103E0F24305E02154401CB042FBDBCD
:100C400030460022002121540B99C1F80880C1E9E7
:100C500000200FB0BDE8F08FBD1B6D1CDEE74A46DB
:100C600000DA694206A800F0F3FB06AB93E8070040
:100C700003AB83E8070050460A9905F00AFC8DE8AB
:100C80000700A0F500501F3800900398002D0ADDE2
:100C900042F21F014A460844002303A90390684614
:100CA00005F074FE09E0A0F500504A461F38002305
:100CB00003A90390684605F07EFE8DE80700000456
:100CC000000C03D04FF0FF30410800E01046B8F1AF
:100CD000000F03D00022009215461EE0751E05D4B9
:100CE000FFF7CAFE303262556D1EF9D5B3460122B8
:100CF000084302D000227F1C04E02078302801D174
:100D000000227F1E002A099784D01DE0112D07DAEA
:100D1000FFF7B2FE303262556D1C50EA0102F5D188
:100D2000084302D00098C8B10EE00021681E05E01B
:100D3000235C625C63542254401E491C8142F7DBF1
:100D4000AB46A81B401E0990002004F80B000B982E
:100D5000099AC0F80880C0E9002B7AE711264FF005
:100D6000000857E72DE9F04F88460446D21D22F0CF
:100D7000070191B0D1E90001CDE90A0105F052FF68
:100D800002460B98C00F01D02D2007E02068810794
:100D900001D52B2002E0202101EAC000032A09909E
:100DA00001D0072A05DB03464146204600F010FB30
:100DB0000BE12078800601D5E06900E00620B8F15B
:100DC000650F814606D0B8F1660F18D0B8F1670FED
:100DD00070D131E00020B9F1110F009001DB112337
:100DE00001E009F101030AAA01A90CA8FFF7E2FE3C
:100DF000DDE90C70002609F10105834647E001207A
:100E00004B4600904FF000470AAA01A90CA8FFF733
:100E1000D1FEDDE90DB00C995D46002610B909F14F
:100E200001000D18B9EB050003D4C0F1FF3609F13C
:100E30000105A5EB09002BE0B9F1010F01DA4FF034
:100E400001090020B9F1110F0090484601DD11237E
:100E500000E003460AAA01A90CA8FFF7ABFEDDE9F2
:100E60000C704D4600268346207800070AD4AB4517
:100E700000DA5D4601A8012D04DD411911F8011CBD
:100E8000302907D04F4502DA17F1040F04DA0120A8
:100E900082460FE06D1EEEE7002F02DCED1B3E44A4
:100EA00003E0781CA84200DD7D1CB81B00F1010A9C
:100EB0004FF000472078000703D4AA4501DB4FF02C
:100EC000FF3A0021B7F1004F0DF143088DF84310B0
:100ED00024D002202B23002F01DA7F422D230A2168
:100EE000021EA0F1010000DC5FB197FBF1FC97FB53
:100EF000F1F201FB1C7C17460CF1300C08F801CD17
:100F0000EEE7A8F1010003702188090501D545210C
:100F100000E06521A0F1010800F8011C09980FA963
:100F2000A1EB0807FF1D00B10120411901EBEA7098
:100F3000A1693844081A401EA0612078C00602D476
:100F40002046FFF7E6FA099828B1D4E90121904735
:100F5000206A401C20622078C00622D52046FFF778
:100F6000D8FA1EE0002E04DBB34502DD01A8805D47
:100F700000E03020D4E901219047206A401C206223
:100F8000761CAAF101005FEA000A0AD100F01CFAFF
:100F9000C0680168405CD4E901219047206A401C88
:100FA0002062281EA5F10105DCDC07E0D4E901215F
:100FB00018F8010B9047206A401C2062381EA7F1E8
:100FC0000107F3DC2046FFF7BAFA032011B041E62F
:100FD0002DE9F04F04460D46D21D22F0070089B0DE
:100FE000D0E900974846394605F01CFE0246F80F46
:100FF00001D02D2307E02068810701D52B2302E0D3
:10100000202101EAC0038DF820300BB1012000E05F
:101010000020032A824601D0072A04DB2946204605
:1010200000F0D6F93FE12078800601D40D2500E0DC
:10103000E569C7F30A560D2D49DA00214FEA175B1F
:1010400008464FF00000002F00F4400007DA00EBE4
:1010500080004FF4400100EBD07001EA6000811580
:10106000012901DD4FF0FF3100224FEA850CBCF170
:10107000180F06D31346ACF118004FF08052C2404F
:1010800003E04FF4801323FA0CF30CF10C0CBCF1C9
:10109000200F04D3ACF1200C09FA0CF001E007FAA0
:1010A0000CF000294FF0004801DD18B90FE00ED117
:1010B00040450CD319EB02095F4121B9404502D1EB
:1010C0009F4329EA0209BBEB175F00D0761C2088FA
:1010D000000502D57B48784402E07A487844193804
:1010E00008AA302302F80A30037C0AF10101002E1D
:1010F0000AF1020A53546A4602DC4FF0300101E063
:101100004FF031014FF001088DF8001002D0A6F227
:10111000FF3603E059EA470100D06B4E002D02DC98
:101120002178090704D54FF002082E218DF801100F
:10113000C44600210BE0C7F303433F01C35C491CD5
:101140006D1E02F80830052908F1010801DA002DAA
:10115000F1DC00210CE000EB1973491C1B786D1EBB
:10116000082902F808304FEA091908F1010801DAE4
:10117000002DF0DC21688B0602D516E0A8F10108ED
:10118000E04505DD02EB080313F8013C302BF5D0F8
:10119000B8F1000F09DD02EB080313F8013C2E2B18
:1011A00003D1090701D4A8F10108002D05DD3E2176
:1011B00002F808106D1E08F10108407C002E02F8AC
:1011C000080008F1010804DA2D20764202F8080030
:1011D00002E02B2002F808000A214FF47A708642C0
:1011E00008F101080BDB96FBF0F3303302F808300E
:1011F00096FBF0F308F1010800FB136601E0642E92
:101200000CDB642096FBF0F3303302F8083096FBD9
:10121000F0F308F1010800FB136601E00A2E06DB7B
:1012200096FBF1F0303002F8080008F1010896FB57
:10123000F1F001FB1060303002F80800A16908F1FC
:10124000010808EB050202EB0A00081AA0612078E9
:10125000C00602D42046FFF75CF9216A08AE01EB14
:101260000A00206204E0D4E9012116F8010B90473E
:10127000BAF1010AF7D22078C00602D52046FFF75E
:1012800048F96E4609E016F8010B3E280FD0D4E964
:1012900001219047206A401C2062B8F10108F2D277
:1012A0002046FFF74CF909B00320BDE8F08F206A13
:1012B0002844206203E0D4E90121302090476D1ECC
:1012C000EBD3F8E76264000002FCFFFF10B543694E
:1012D00013B1AFF3008001E0FFF754F9012010BD16
:1012E000127800F124010A7000224A700122EDE711
:1012F00011684FF0FF32E9E710B5436913B1AFF35E
:10130000008001E0FFF7D6F9012010BD128800F13E
:10131000240182840022C2840122EDE711684FF08B
:10132000FF32E9E72DE9F04116460C46054600F08C
:1013300043F8036893F80101012807D0FF2C12D865
:10134000185D80B101202C70BDE8F081D3F8070151
:101350003246214603F20713C7182846BC46BDE8AB
:10136000F041002360474FF0FF30EDE7754600F095
:10137000EBF8AE4605006946534620F00700854667
:1013800018B020B5FEF7DCFFBDE820404FF00006A6
:101390004FF000074FF000084FF0000BAC46ACE8F0
:1013A000C009ACE8C009ACE8C009ACE8C00921F04C
:1013B00007018D467047000010B500F005F8001DCC
:1013C00010BD00BFCD58000000487047300000201D
:1013D0002DE9F0411F46044603260168072A01F45F
:1013E000006004DB08B116A505E016A503E008B10E
:1013F00015A500E015A521F010002060A069C01E11
:10140000A0610FB1401EA0612046FFF782F84FB1E6
:10141000D4E9012138469047206A401C2062C01C54
:10142000206206E0206AFAE7D4E9012115F8010BF1
:101430009047761EF8D22046FFF781F8BDE8F0818C
:101440004E414E006E616E00494E4600696E660068
:101450002DE9F047814616468AB0354878440DC8D4
:101460008DE80D0032487844801C03AC0DC884E838
:101470000D0041F69B300844372190FBF1F290FBC0
:10148000F1F5A5F1800501FB12041B3C02D5644275
:10149000012000E00020DFF898A080460027FA44F1
:1014A000AAF1BE0A0EE0E0070AD03246684607EB12
:1014B000470101230AEB810105F07DFA8DE8070061
:1014C00064107F1C002CEED1194F7F44AE3F19E011
:1014D000E80715D007EB04100DF1180A90E80E008C
:1014E0008AE80E00C068F04201D19819089032468F
:1014F000012306A903A805F05EFA03AB83E8070001
:101500006D10641C002DE3D14FF001033246694693
:10151000B8F1000F03A802D005F038FA01E005F099
:101520004AFAC9E90001C9F808200AB0BDE8F08705
:101530006C61000010B50446AFF300802046BDE8A2
:101540001040FEF7E8BE0000004870471000002081
:1015500030B44FF0013C50F8042B51F8043BCCFA66
:1015600052F4D51A20D1FCB950F8042B51F8043BA1
:10157000CCFA52F4D51A17D1B4B950F8042B51F85B
:10158000043BCCFA52F4D51A0ED16CB950F8042BA6
:1015900051F8043BCCFA52F4D51A05D1002CDAD01C
:1015A00030BC4FF00000704729BAB1FA81F111F058
:1015B0001801D1F120008440F2D1CA40CB4012F092
:1015C000FF0213F0FF0330BCD01A70470149182006
:1015D000ABBEFEE72600020070470000FFE7FEE713
:1015E0007047000081B0EFF3108072B60090FFE703
:1015F000FEE7000080B584B0039000F0E7F90290A8
:10160000039801900198013048B1FFE740F20400CF
:10161000C2F200000168019808440190FFE7FFE76B
:1016200000F0D4F90299401A0199884201D2FFE7EB
:10163000F6E704B080BD00008BB00A90099100204D
:101640000890FFE7099800680899C840002800F052
:10165000A581FFE709980068089A01219140084098
:1016600007900798002800F09581FFE709984068E7
:1016700000F00300012807D0FFE70998406800F058
:10168000030002282FD1FFE70A9880680690089887
:101690004100032000FA01F106988843069009985A
:1016A000C0680899490000FA01F1069808430690BD
:1016B00006980A9988600A9840680690089901205F
:1016C00000FA01F106988843069009984068C0F333
:1016D0000010089900FA01F1069808430690069850
:1016E0000A994860FFE70998406800F00300032862
:1016F00018D0FFE70A98C0680690089841000320B8
:1017000000FA01F1069888430690099880680899C4
:10171000490000FA01F106980843069006980A99D4
:10172000C860FFE70998406800F00300022826D14E
:10173000FFE70A9808996FF0030202EA5101084492
:10174000006A0690089800F0070081000F2000FA58
:1017500001F106988843069009980069089901F0FC
:101760000701890000FA01F10698084306900698DF
:101770000A99089B02EA530211440862FFE70A989B
:101780000068069008984100032000FA01F10698CD
:10179000884306900998406800F0030008994900C2
:1017A00000FA01F106980843069006980A99086025
:1017B000099880798007002800F0EB80FFE7FFE7B9
:1017C00041F26000C4F20200016841F001010160D1
:1017D000006800F0010005900598FFE7089820F0E8
:1017E00003000821C4F2010140580690089800F057
:1017F000030081000F2000FA01F10698884306904B
:101800000A98B0F1904F03D1FFE70020049042E026
:101810000A9840F20041C4F60001884203D1FFE774
:101820000120039034E00A9840F60001C4F600015C
:10183000884203D1FFE70220029026E00A9840F692
:101840000041C4F60001884203D1FFE70320019064
:1018500018E00A9841F20001C4F60001884203D161
:10186000FFE7042000900AE00A9941F20042C4F622
:1018700000020620914208BF05200090FFE7009873
:101880000190FFE701980290FFE702980390FFE7BD
:1018900003980490FFE70498089901F00301890078
:1018A00000FA01F10698084306900698089921F07D
:1018B00003010822C4F20102885040F20840C4F239
:1018C00001000068069007990698884306900998D9
:1018D0008079C006002805D5FFE7079906980843D8
:1018E0000690FFE7069840F20841C4F20101086043
:1018F00040F20C40C4F20100006806900799069877
:1019000088430690099880798006002805D5FFE76E
:101910000799069808430690FFE7069840F20C41A5
:10192000C4F20101086040F20440C4F20100006802
:101930000690079906988843069009988079800751
:10194000002805D5FFE70799069808430690FFE7AA
:10195000069840F20441C4F20101086040F20040E0
:10196000C4F2010000680690079906988843069023
:1019700009988079C00728B1FFE7079906980843BE
:101980000690FFE7069840F20041C4F201010860AA
:10199000FFE7FFE708980130089053E60BB0704767
:1019A00082B00190ADF802108DF801209DF8010081
:1019B00028B1FFE7BDF802000199886104E0BDF895
:1019C000020001998862FFE702B0704740F24820A8
:1019D000C2F200000068704740F20400C2F200004A
:1019E000026840F24821C2F2000108681044086011
:1019F0007047000080B582B000208DF807000320FA
:101A000000F090F80F2000F00DF820B1FFE7012062
:101A10008DF8070002E000F049F8FFE79DF80700A5
:101A200002B080BD80B582B0019000208DF8030027
:101A300040F20400C2F20000006878B3FFE740F211
:101A40000000C2F20000006840F20401C2F200018E
:101A50000A684FF47A71B1FBF2F1B0FBF1F001F0DA
:101A600075FFB0B9FFE701980F280DD8FFE701997E
:101A70004FF0FF30002200F03DF8019840F20801DD
:101A8000C2F20001086003E001208DF80300FFE7C7
:101A900003E001208DF80300FFE703E001208DF84B
:101AA0000300FFE79DF8030002B080BD80B582B05F
:101AB000FFE741F26000C4F20200016841F0010159
:101AC0000160006800F0010001900198FFE7FFE766
:101AD00041F25800C4F20200016841F080510160F7
:101AE000006800F0805000900098FFE700F0FCF8DC
:101AF00002B080BD80B586B08DF8170004910392C6
:101B000004F0FAFB02909DF91700019002980499E5
:101B1000039A02F063FF0146019804F0F5FB06B05A
:101B200080BD000080B582B00190019804F00EFCE9
:101B300002B080BD85B00390039800285ED1FFE716
:101B400047F20000C4F20000006800F4C060B0F585
:101B5000806F49D1FFE747F28001C4F200010868B5
:101B600020F48070086047F20002C4F2000211689D
:101B7000012060F34A21116040F20001C2F200012D
:101B80000968322251434DF68362C4F21B32A1FB35
:101B9000022100EB91400290FFE747F21400C4F2EB
:101BA00000000168002049050029019006D5FFE7E3
:101BB0000298002818BF01200190FFE70198C00794
:101BC00020B1FFE7029801380290E6E747F21400DF
:101BD000C4F2000000684005002804D5FFE7032098
:101BE0008DF813007CE008E047F28001C4F20001A8
:101BF000086820F480700860FFE76DE00398B0F596
:101C0000007F5ED1FFE747F20000C4F200000068E9
:101C100000F4C060B0F5806F49D1FFE747F2800162
:101C2000C4F20001086840F48070086047F20002C6
:101C3000C4F200021168012060F34A21116040F2F1
:101C40000001C2F200010968322251434DF683625D
:101C5000C4F21B32A1FB022100EB91400290FFE78E
:101C600047F21400C4F20000016800204905002971
:101C7000009006D5FFE70298002818BF01200090C9
:101C8000FFE70098C00720B1FFE7029801380290F3
:101C9000E6E747F21400C4F200000068400500289F
:101CA00004D5FFE703208DF8130019E008E047F2A0
:101CB0008001C4F20001086840F480700860FFE70A
:101CC00009E047F20001C4F200010868022262F351
:101CD0004A200860FFE7FFE700208DF81300FFE7C8
:101CE0009DF8130005B0704747F20801C4F20001E7
:101CF000086840F4804008607047000080B586B0F6
:101D0000059000208DF80B008DF80A00059880786A
:101D10000007002840F1B580FFE700208DF809009A
:101D200041F25800C4F202000068C000002813D439
:101D3000FFE7FFE741F25800C4F20200016841F0FA
:101D400080510160006800F0805001900198FFE729
:101D500001208DF80900FFE747F20001C4F20001FD
:101D6000086840F480700860FFF730FE0390FFE7DA
:101D700047F20000C4F200000068C00500280CD43F
:101D8000FFE7FFF723FE0399401A032804D3FFE778
:101D900003208DF80B0000E0EAE79DF80B00002817
:101DA0005BD1FFE741F29000C4F20200006800F44A
:101DB000407004900498C8B1FFE704980599096C35
:101DC000884213D0FFE741F29001C4F20201086893
:101DD00020F440700490086840F48030086008687F
:101DE00020F48030086004980860FFE79DF8100038
:101DF000C007E0B1FFE7FFF7E9FD0390FFE741F21D
:101E00009000C4F202000068800700280ED4FFE7AB
:101E1000FFF7DCFD0399401A41F28931884204D36F
:101E2000FFE703208DF80B0000E0E8E7FFE79DF8EF
:101E30000B0060B9FFE741F29001C4F202010868AB
:101E400020F44070059A126C1043086004E09DF87D
:101E50000B008DF80A00FFE704E09DF80B008DF8F9
:101E60000A00FFE79DF80900012809D1FFE741F2C8
:101E70005801C4F20201086820F080500860FFE7B2
:101E8000FFE705980078C00760B1FFE741F28801DD
:101E9000C4F20201086820F00300059A526810435A
:101EA0000860FFE705980078800700280CD5FFE759
:101EB00041F28801C4F20201086820F00C00059A82
:101EC000926810430860FFE70598007840070028F3
:101ED0000CD5FFE741F28801C4F20201086820F046
:101EE0003000059AD26810430860FFE70598007833
:101EF000000700280CD5FFE741F28801C4F2020177
:101F0000086820F0C000059A126910430860FFE7D6
:101F100005980078800600280CD5FFE741F288017B
:101F2000C4F20201086820F44060059A5269104327
:101F30000860FFE705980078400600280CD5FFE709
:101F400041F28801C4F20201086820F44050059A69
:101F5000926910430860FFE70598007800060028A2
:101F60000CD5FFE741F28801C4F20201086820F4B1
:101F70004040059AD26910430860FFE70598407811
:101F8000C00760B1FFE741F28801C4F202010868AE
:101F900020F44030059A126A10430860FFE7059864
:101FA0004078800700280CD5FFE741F28801C4F291
:101FB0000201086820F44020059A526A1043086024
:101FC000FFE705984078400700281BD5FFE741F25E
:101FD0008801C4F20201086820F44010059A926A50
:101FE000104308600598806AB0F5801F09D1FFE7AB
:101FF00041F20C01C4F20201086840F4801008604C
:10200000FFE7FFE705984078000700281BD5FFE7AA
:1020100041F28801C4F20201086820F44000059AE8
:10202000D26A104308600598C06AB0F5800F09D1E4
:10203000FFE741F20C01C4F20201086840F480108D
:102040000860FFE7FFE705984078C00600281BD529
:10205000FFE741F28801C4F20201086820F04070F5
:10206000059A126B104308600598006BB0F1807FF1
:1020700009D1FFE741F20C01C4F20201086840F403
:1020800080100860FFE7FFE7059840788006002889
:102090001BD5FFE741F28801C4F20201086820F075
:1020A0004060059A526B104308600598406BB0F190
:1020B000006F09D1FFE741F20C01C4F20201086888
:1020C00040F480100860FFE7FFE70598407840067D
:1020D00000281BD5FFE741F28801C4F2020108681D
:1020E00020F04060059A926B104308600598806B61
:1020F000B0F1006F09D1FFE741F20C01C4F2020117
:10210000086840F480100860FFE7FFE70598407812
:10211000000600281BD5FFE741F28801C4F2020146
:10212000086820F04050059AD26B1043086005986B
:10213000C06BB0F1805F09D1FFE741F20C01C4F23E
:102140000201086840F480300860FFE7FFE79DF86F
:102150000A0006B080BD000080B586B004900391EF
:1021600000200090049820B9FFE701208DF81700A7
:1021700081E1039842F20001C4F20201096801F012
:102180000F01884216D9FFE742F20000C4F20200B4
:10219000016821F00F01039A11430160006800F00B
:1021A0000F000399884204D0FFE701208DF8170043
:1021B00061E1FFE704980078C007002800F0A380E1
:1021C000FFE704984068032839D1FFE741F2000097
:1021D000C4F2020000688001002804D4FFE7012057
:1021E0008DF8170047E102F031FC019001984BF2A5
:1021F0000141C0F2C441884220D3FFE741F2080008
:10220000C4F20200006810F0F00F0AD0FFE7049853
:1022100000788007002810D5FFE70498806860B92F
:10222000FFE741F20801C4F202010868082262F3E4
:102230000710086080200090FFE7FFE738E004986F
:10224000406802280ED1FFE741F20000C4F202000C
:1022500000688003002804D4FFE701208DF81700F0
:1022600009E10DE041F20000C4F2020000684005FF
:10227000002804D4FFE701208DF81700FBE0FFE7FA
:1022800000F02CF9019001984BF20141C0F2C441D9
:1022900088420CD3FFE741F20801C4F2020108684A
:1022A000082262F30710086080200090FFE7FFE734
:1022B00041F20801C4F20201086820F00300049A08
:1022C000526810430860FFF781FB0290FFE741F27C
:1022D0000800C4F20200006800F00C00049949688C
:1022E000B0EB810F0ED0FFE7FFF770FB0299401AA9
:1022F00041F28931884204D3FFE703208DF81700AB
:10230000B9E0E4E7FFE704980078800700282CD5BF
:10231000FFE7049800784007002809D5FFE741F25D
:102320000801C4F20201086840F4E0600860FFE7B9
:1023300004980078000700280BD5FFE741F2080158
:10234000C4F20201086840F4E06020F460500860C4
:10235000FFE741F20801C4F20201086820F0F00032
:10236000049A9268104308600DE00098802809D113
:10237000FFE741F20801C4F20201086820F0F00012
:102380000860FFE7FFE7039842F20001C4F2020190
:10239000096801F00F01884228D2FFE742F20001EC
:1023A000C4F20201086820F00F00039A104308608D
:1023B000FFF70CFB0290FFE742F20000C4F20200BC
:1023C000006800F00F00039988420ED0FFE7FFF786
:1023D000FDFA0299401A41F28931884204D3FFE79D
:1023E00003208DF8170046E0E6E7FFE70498007841
:1023F000400700280CD5FFE741F20801C4F20201B2
:10240000086820F4E060049AD26810430860FFE78F
:1024100004980078000700280DD5FFE741F2080175
:10242000C4F20201086820F46050049A126940EA7C
:10243000C2000860FFE700F051F841F20801C4F261
:1024400002010968C9B20A0947F2E451C0F6000165
:10245000895C01F01F01C84040F20001C2F2000196
:10246000086040F20800C2F200000068FFF7DAFAE4
:102470008DF81700FFE79DF8170006B080BD00003B
:1024800040F20000C2F200000068704780B5FFF71C
:10249000F7FF41F20801C4F202010968C1F3022208
:1024A00047F2F451C0F60001895C01F01F01C840F9
:1024B00080BD000080B5FFF7E3FF41F20801C4F2E0
:1024C00002010968C1F3C22247F2F451C0F60001CB
:1024D000895C01F01F01C84080BD000086B041F258
:1024E0000800C4F20200006800F00C00042806D1C5
:1024F000FFE742F20040C0F2F400019069E041F2CF
:102500000800C4F20200006800F00C00082806D1A0
:10251000FFE747F64000C0F27D10019058E041F21D
:102520000800C4F20200006800F00C000C284BD137
:10253000FFE741F20C00C4F20200016801F0030160
:1025400004910068C1B2012000EB111002900498C0
:102550000090022815D0FFE70098032812D1FFE76A
:10256000029947F64000C0F27D10B0FBF1F041F255
:102570000C01C4F202010968C1F306214843059029
:1025800011E0FFE7029942F20040C0F2F400B0FB14
:10259000F1F041F20C01C4F202010968C1F3062115
:1025A00048430590FFE741F20C00C4F202000068C6
:1025B00000F0C061022000EB1160039005980399C0
:1025C000B0FBF1F0019002E000200190FFE7FFE78F
:1025D000FFE7019806B07047B0B588B0069006983E
:1025E00020B9FFE701208DF81F00CCE306980078A2
:1025F000C007002800F09B80FFE741F20800C4F20A
:102600000200006800F00C00049041F20C00C4F2DB
:102610000200006800F00300039004980C2804D125
:10262000FFE70398032804D0FFE70498082812D195
:10263000FFE741F20000C4F20200006880030028B6
:1026400008D5FFE70698406820B9FFE701208DF81C
:102650001F0098E36AE0FFE706984068B0F5803F06
:1026600009D1FFE741F20001C4F20201086840F419
:102670008030086020E006984068B0F5A02F0DD1AA
:10268000FFE741F20001C4F20201086840F4802033
:102690000860086840F4803008600CE041F20001F6
:1026A000C4F20201086820F480300860086820F451
:1026B00080200860FFE7FFE7FFE706984068D0B199
:1026C000FFE7FFF783F90590FFE741F20000C4F24E
:1026D00002000068800300280CD4FFE7FFF776F9BA
:1026E0000599401A652804D3FFE703208DF81F00E1
:1026F00049E3EAE719E0FFF769F90590FFE741F2DE
:102700000000C4F202000068800300280CD5FFE737
:10271000FFF75CF90599401A652804D3FFE7032009
:102720008DF81F002FE3EAE7FFE7FFE7FFE70698D2
:1027300000788007002840F19F80FFE741F2080001
:10274000C4F20200006800F00C00049041F20C009A
:10275000C4F20200006800F00300039004980C2803
:1027600004D1FFE70398022804D0FFE70498042867
:102770002CD1FFE741F20000C4F2020000684005DE
:10278000002808D5FFE70698C06820B9FFE70120B8
:102790008DF81F00F7E241F20401C4F2020108685B
:1027A00020F0FE40069A126940EA0260086040F29A
:1027B0000800C2F200000068FFF734F920B1FFE71B
:1027C00001208DF81F00DEE2FFE754E00698C068A4
:1027D00070B3FFE741F20001C4F20201086840F45F
:1027E00080700860FFF7F2F80590FFE741F2000003
:1027F000C4F202000068400500280CD4FFE7FFF790
:10280000E5F80599401A032804D3FFE703208DF863
:102810001F00B8E2EAE741F20401C4F202010868CD
:1028200020F0FE40069A126940EA0260086021E04A
:1028300041F20001C4F20201086820F480700860CF
:10284000FFF7C4F80590FFE741F20000C4F2020070
:102850000068400500280CD5FFE7FFF7B7F8059999
:10286000401A032804D3FFE703208DF81F008AE2F3
:10287000EAE7FFE7FFE7FFE7069800780007002890
:1028800049D5FFE70698406910B3FFE741F294018C
:10289000C4F20201086840F001000860FFF796F8F2
:1028A0000590FFE741F29400C4F20200006880073F
:1028B00000280CD4FFE7FFF789F80599401A032890
:1028C00004D3FFE703208DF81F005CE2EAE721E074
:1028D00041F29401C4F20201086820F0010008608E
:1028E000FFF774F80590FFE741F29400C4F202008C
:1028F0000068800700280CD5FFE7FFF767F8059907
:10290000401A032804D3FFE703208DF81F003AE2A2
:10291000EAE7FFE7FFE7069800784007002840F164
:10292000C680FFE700208DF80B0041F25800C4F28A
:1029300002000068C000002813D4FFE7FFE741F25F
:102940005800C4F20200016841F080510160006843
:1029500000F0805001900198FFE701208DF80B00F6
:10296000FFE747F20000C4F200000068C00500283D
:1029700022D4FFE747F20001C4F20001086840F4E6
:1029800080700860FFF722F80590FFE747F200002B
:10299000C4F200000068C00500280CD4FFE7FFF770
:1029A00015F80599401A032804D3FFE703208DF892
:1029B0001F00E8E1EAE7FFE7FFE7069880680128E3
:1029C00009D1FFE741F29001C4F20201086840F02A
:1029D000010008601FE00698806805280DD1FFE718
:1029E00041F29001C4F20201086840F0040008605E
:1029F000086840F0010008600CE041F29001C4F268
:102A00000201086820F001000860086820F0040056
:102A10000860FFE7FFE7FFE706988068E0B1FFE79F
:102A2000FEF7D4FF0590FFE741F29000C4F20200E8
:102A30000068800700280ED4FFE7FEF7C7FF05995E
:102A4000401A41F28931884204D3FFE703208DF810
:102A50001F0098E1E8E71BE0FEF7B8FF0590FFE7ED
:102A600041F29000C4F202000068800700280ED5F1
:102A7000FFE7FEF7ABFF0599401A41F28931884222
:102A800004D3FFE703208DF81F007CE1E8E7FFE7B0
:102A90009DF80B00012809D1FFE741F25801C4F26B
:102AA0000201086820F080500860FFE7FFE7069801
:102AB00000788006002849D5FFE70698806910B3A2
:102AC000FFE741F29801C4F20201086840F00100FA
:102AD0000860FEF77BFF0590FFE741F29800C4F223
:102AE00002000068800700280CD4FFE7FEF76EFFA5
:102AF0000599401A032804D3FFE703208DF81F002F
:102B000041E1EAE721E041F29801C4F202010868DC
:102B100020F001000860FEF759FF0590FFE741F241
:102B20009800C4F202000068800700280CD5FFE777
:102B3000FEF74CFF0599401A032804D3FFE7032052
:102B40008DF81F001FE1EAE7FFE7FFE70698C0697D
:102B5000002800F01481FFE741F20800C4F20200EF
:102B6000006800F00C000C2800F0B080FFE7069829
:102B7000C06902287CD1FFE741F20001C4F20201E2
:102B8000086820F080700860FEF720FF0590FFE7DE
:102B900041F20000C4F202000068800100280CD558
:102BA000FFE7FEF713FF0599401A032804D3FFE758
:102BB00003208DF81F00E6E0EAE741F20C01C4F2C1
:102BC0000201086848F20C02C0F29F121040DDF8C2
:102BD00018C0DCF82020DCF82450DCF828E0DCF811
:102BE0002C306FF00F0404EB0514224342EA0E224E
:102BF000DCF8304040F2000ECFF6E07E0EEA045ED4
:102C0000AEF5001E42EA0E02DCF834E04FF07E4CD6
:102C10000CEA0E6C0CF17E4C42EA0C0242EAC362F2
:102C20001043086041F20002C4F20202106840F052
:102C300080701060086840F080700860FEF7C6FE83
:102C40000590FFE741F20000C4F202000068800135
:102C500000280CD4FFE7FEF7B9FE0599401A0328B7
:102C600004D3FFE703208DF81F008CE0EAE72CE097
:102C700041F20001C4F20201086820F0807008608F
:102C8000FEF7A4FE0590FFE741F20000C4F2020047
:102C90000068800100280CD5FFE7FEF797FE059934
:102CA000401A032804D3FFE703208DF81F006AE0D1
:102CB000EAE741F20C01C4F2020108684FF6FC7227
:102CC000CFF6EE6210400860FFE757E00698C06953
:102CD000012804D1FFE701208DF81F0053E041F2E5
:102CE0000C00C4F2020000680390039800F0030097
:102CF0000699096A88423BD1FFE7039800F0F0008B
:102D000006994A6A6FF00F0101EB021188422FD138
:102D1000FFE7039800F4FE400699896AB0EB012FA3
:102D200026D1FFE7039800F078400699C96AB0EB16
:102D3000C16F1DD1FFE7039800F4C00006990A6B2C
:102D40000021CFF6E07101EA0251A1F5001188429D
:102D50000ED1FFE7039800F0C06006994A6B4FF070
:102D60007E4101EA026101F17E41884204D0FFE721
:102D700001208DF81F0006E0FFE7FFE7FFE70020D6
:102D80008DF81F00FFE79DF81F0008B0B0BD0000E0
:102D900080B584B00290029820B9FFE701208DF839
:102DA0000F0097E00298406A60B9FFE70298406818
:102DB000B0F5827F01D1FFE703E002990020C861EE
:102DC000FFE705E002990020086102994861FFE7EA
:102DD000029900208862029890F85D0040B9FFE7F0
:102DE0000299002081F85C00029800F077F8FFE774
:102DF0000299022081F85D0002980168086820F0BD
:102E0000400008600298C068B0F5E06F03D9FFE7A2
:102E10000020019003E04FF480500190FFE70298FA
:102E2000C068B0F5706F0AD0FFE70298C068B0F5CF
:102E3000E06F04D0FFE7029900208862FFE7029A62
:102E4000009211685068D2F808C0136900F48270CB
:102E50000CF4044C604403F002031844536903F07B
:102E600001031844936903F400731844D36903F011
:102E700038031844136A03F080031844926A02F47A
:102E8000005210430860029B588B00F00400196840
:102E9000DA68D3F824C05B6B0CF0100C604403F0CC
:102EA0000803184402F470621044019A02F480523C
:102EB0001044486002980168C86920F40060C86145
:102EC000029900200866029A012182F85D108DF8AF
:102ED0000F00FFE79DF80F0004B080BD80B588B0FB
:102EE00007900020069005900490039002900798A8
:102EF000006843F20001C4F2010188422DD1FFE7CE
:102F0000FFE741F26000C4F20200016841F4805121
:102F10000160006800F4805001900198FFE7FFE72E
:102F200041F24C00C4F20200016841F0010101606D
:102F3000006800F0010000900098FFE7E020029098
:102F400002200390002004900590052006904FF089
:102F5000904002A9FEF770FBFFE708B080BD0000BB
:102F600080B588B006900591ADF8122003930698BD
:102F700090F85D00012804D0FFE702208DF81F00C3
:102F80002FE1059820B1FFE7BDF8120020B9FFE757
:102F900001208DF81F0024E106984068B0F5827F7B
:102FA00016D1FFE70698806890B9FFE706990420DC
:102FB00081F85D000698059ABDF812300399EC4639
:102FC000CCF80010114600F08DFA8DF81F0008E1D2
:102FD000FEF7FCFC0290FFE7069890F85C000128E1
:102FE00004D1FFE702208DF81F00FAE006990120C6
:102FF00081F85C00FFE7FFE70699042081F85D0097
:103000000699002008660599069A1164BDF8121009
:10301000069AA2F84410BDF81210069AA2F84610BB
:1030200006998863069988870699C8870699C864AF
:10303000069908650698C068B0F5E06F07D9FFE704
:1030400006980168486820F48050486006E00698B9
:103050000168486840F480504860FFE7069880683F
:10306000B0F5004F0DD1FFE706980168086820F021
:103070004000086006980168086820F480400860F5
:10308000FFE706980068006800F04000402807D07D
:10309000FFE706980168086840F040000860FFE715
:1030A0000698C068B0F5E06F3DD8FFE7FFE70698E7
:1030B000B0F84600B0B3FFE7069800688068C00724
:1030C00088B1FFE706980068007B0699096C0870D4
:1030D0000699086C013008640699B1F84600013879
:1030E000A1F846001DE0FEF771FC0299401A039911
:1030F000884204D3FFE70398013018B9FFE703982B
:1031000070B9FFE70699012081F85D00FFE7069995
:10311000002081F85C00FFE703208DF81F0060E0CD
:10312000FFE7C4E73CE0FFE70698B0F84600B0B31D
:10313000FFE7069800688068C00788B1FFE7069837
:103140000068C0680699096C08800699086C02300E
:1031500008640699B1F846000138A1F846001DE060
:10316000FEF734FC0299401A0399884204D3FFE722
:103170000398013018B9FFE7039870B9FFE7069983
:10318000012081F85D00FFE70699002081F85C00CE
:10319000FFE703208DF81F0023E0FFE7C4E7FFE708
:1031A00006980399029A01F09FFC20B1FFE7069967
:1031B00020200866FFE70699012081F85D00FFE7FF
:1031C0000699002081F85C00FFE70698006E20B1A8
:1031D000FFE701208DF81F0003E000208DF81F009D
:1031E000FFE79DF81F0008B080BD000080B588B0E3
:1031F00006900591ADF812200393FEF7E7FB0290CD
:10320000BDF81200ADF80600069890F85D000128A0
:1032100004D0FFE702208DF81F005FE1059820B180
:10322000FFE7BDF8120020B9FFE701208DF81F006D
:1032300054E1FFE7069890F85C00012804D1FFE70D
:1032400002208DF81F0049E10699012081F85C00F9
:10325000FFE7FFE70699032081F85D00069900204B
:1032600008660599069A9163BDF81210069A91872F
:10327000BDF81210069AD187069908640699A1F83C
:1032800044000699A1F84600069908650699C864A5
:1032900006988068B0F5004F0DD1FFE706980168E9
:1032A000086820F04000086006980168086840F44B
:1032B00080400860FFE706980068006800F0400062
:1032C000402807D0FFE706980168086840F04000F2
:1032D0000860FFE70698C068B0F5E06F51D9FFE7D6
:1032E0000698406828B1FFE7BDF8060001280ED116
:1032F000FFE706980168806B0088C8600699886BB4
:10330000023088630699C88F0138C887FFE7FFE756
:103310000698C08FA0B3FFE7069800688068800712
:1033200000280ED5FFE706980168806B0088C8600A
:103330000699886B023088630699C88F0138C88760
:103340001DE0FEF743FB0299401A0399884204D31B
:10335000FFE70398013018B9FFE7039870B9FFE75A
:103360000699012081F85D00FFE70699002081F8A9
:103370005C00FFE703208DF81F00AFE0FFE7C7E721
:1033800079E00698406828B1FFE7BDF806000128FB
:1033900022D1FFE70698C08F02280ED3FFE70698D8
:1033A0000168806B0088C8600699886B023088636A
:1033B0000699C88F0238C8870DE006980168806BAF
:1033C000007808730699886B013088630699C88F66
:1033D0000138C887FFE7FFE7FFE70698C08F00289E
:1033E00048D0FFE70698006880688007002822D54B
:1033F000FFE70698C08F02280ED3FFE70698016802
:10340000806B0088C8600699886B023088630699D3
:10341000C88F0238C8870DE006980168806B007875
:1034200008730699886B013088630699C88F013844
:10343000C887FFE71DE0FEF7C9FA0299401A039911
:10344000884204D3FFE70398013018B9FFE70398D7
:1034500070B9FFE70699012081F85D00FFE7069942
:10346000002081F85C00FFE703208DF81F0035E0A5
:10347000FFE7B2E7FFE706980399029A01F096FB8F
:1034800020B1FFE7069920200866FFE706988068CC
:1034900070B9FFE7FFE70020009006980068C06859
:1034A000009006980068806800900098FFE7FFE7AA
:1034B0000699012081F85D00FFE70699002081F858
:1034C0005C00FFE70698006E20B1FFE701208DF851
:1034D0001F0003E000208DF81F00FFE79DF81F008C
:1034E00008B080BD80B58CB0DDF838C00A90099175
:1034F0000892ADF81E3001200290FEF767FA0390A3
:103500000A9890F85D008DF813000A9840680590BD
:10351000BDF81E00ADF81C00BDF81E00ADF81A0085
:103520009DF81300012812D0FFE70598B0F5827FBF
:1035300009D1FFE70A98806828B9FFE79DF81300D2
:10354000042804D0FFE702208DF82F00FAE1099843
:1035500038B1FFE7089820B1FFE7BDF81E0020B999
:10356000FFE701208DF82F00ECE1FFE70A9890F8C3
:103570005C00012804D1FFE702208DF82F00E1E173
:103580000A99012081F85C00FFE7FFE70A9890F8AC
:103590005D00042805D0FFE70A99052081F85D0049
:1035A000FFE70A990020086608990A9A1164BDF895
:1035B0001E100A9AA2F84610BDF81E100A9AA2F828
:1035C000441009990A9A9163BDF81E100A9AD1878E
:1035D000BDF81E100A9A91870A99C8640A9908656D
:1035E0000A98C068B0F5E06F05D8FFE7BDF81A008B
:1035F000022807D3FFE70A980168486820F4805042
:10360000486006E00A980168486840F480504860C5
:10361000FFE70A980068006800F04000402807D0E3
:10362000FFE70A980168086840F040000860FFE77B
:103630000A98C068B0F5E06F40F28580FFE70A980D
:10364000406828B1FFE7BDF81C0001280ED1FFE754
:103650000A980168806B0088C8600A99886B0230FC
:1036600088630A99C88F0138C887FFE7FFE70A987F
:10367000C18F0120019041B9FFE70A98B0F84600D8
:10368000002818BF01200190FFE70198C00700281B
:1036900058D0FFE70A98006880688007002818D58E
:1036A000FFE70A98C08FA0B1FFE70298012810D168
:1036B000FFE70A980168806B0088C8600A99886BE8
:1036C000023088630A99C88F0138C88700200290A9
:1036D000FFE70A9800688068C007C0B1FFE70A9852
:1036E000B0F8460098B1FFE70A980068C0680A99E8
:1036F000096C08800A99086C023008640A99B1F8CC
:1037000046000138A1F8460001200290FFE7FEF7CD
:103710005DF90399401A0E99884212D3FFE70E987B
:10372000013070B1FFE70A99012081F85D00FFE7E1
:103730000A99002081F85C00FFE703208DF82F0034
:1037400000E194E7D4E00A98406828B1FFE7BDF8AB
:103750001C00012822D1FFE70A98C08F02280ED34F
:10376000FFE70A980168806B0088C8600A99886B37
:10377000023088630A99C88F0238C8870DE00A981A
:103780000168806B007808730A99886B0130886340
:103790000A99C88F0138C887FFE7FFE7FFE70A9853
:1037A000C18F0120009041B9FFE70A98B0F84600A8
:1037B000002818BF01200090FFE70098C0070028EC
:1037C00000F09580FFE70A9800688068800700286D
:1037D0002CD5FFE70A98C08F40B3FFE70298012875
:1037E00024D1FFE70A98C08F02280ED3FFE70A987A
:1037F0000168806B0088C8600A99886B0230886312
:103800000A99C88F0238C8870DE00A980168806B52
:10381000007808730A99886B013088630A99C88F09
:103820000138C887FFE700200290FFE70A98006888
:103830008068C007E8B3FFE70A98B0F84600C0B355
:10384000FFE70A98B0F8460002281ED3FFE70A985F
:103850000068C0680A99096C08800A99086C0230EF
:1038600008640A99B1F846000238A1F846000A989F
:10387000B0F84600012807D8FFE70A9801684868B1
:1038800040F480504860FFE710E00A980068007B31
:103890000A99096C08700A99086C013008640A9941
:1038A000B1F846000138A1F84600FFE70120029078
:1038B000FFE7FEF78BF80399401A0E99884204D36C
:1038C000FFE70E98013018B9FFE70E9870B9FFE7CF
:1038D0000A99012081F85D00FFE70A99002081F82C
:1038E0005C00FFE703208DF82F002BE057E7FFE790
:1038F0000A980E99039A01F059F968B1FFE70A99FD
:1039000020200866FFE70A99002081F85C00FFE7A5
:1039100001208DF82F0015E00A99012081F85D0043
:10392000FFE70A99002081F85C00FFE70A98006E23
:1039300020B1FFE701208DF82F0003E000208DF873
:103940002F00FFE79DF82F000CB080BD80B582B03E
:103950000190019801F0B4FA02B080BD85B00390E7
:103960000291FFE7039890F83C00012804D1FFE79B
:1039700002208DF813008CE00399012081F83C00AF
:10398000FFE7FFE70399022081F83D0003980068F4
:103990004068019003980068806800900398006870
:1039A00042F60041C4F20101884209D0FFE70398C2
:1039B000006843F20041C4F2010188420AD1FFE7E6
:1039C000019820F470000190029841680198084322
:1039D0000190FFE701984FF68F71CFF6FF51084035
:1039E0000190029801680198084301900198039999
:1039F000096848600398006842F60041C4F201017A
:103A000088422AD0FFE703980068B0F1804F24D0A5
:103A1000FFE70398006840F20041C4F200018842C9
:103A20001BD0FFE70398006840F60001C4F20001D4
:103A3000884212D0FFE70398006843F20041C4F2C5
:103A40000101884209D0FFE70398006844F20001B1
:103A5000C4F2010188420ED1FFE7009820F08000F7
:103A6000009002988168009808430090009803999C
:103A700009688860FFE70399012081F83D00FFE7AE
:103A80000399002081F83C00FFE700208DF8130027
:103A9000FFE79DF8130005B07047000080B588B0BF
:103AA00007900020069005900490039002900798DC
:103AB0000068B0F1804F1DD1FFE7FFE741F24C00F5
:103AC000C4F20200016841F001010160006800F0E9
:103AD000010001900198FFE701200290022103916B
:103AE00000210491059106904FF0904002A9FDF746
:103AF000A3FDFFE708B080BD80B586B004900391B8
:103B0000029200208DF80700FFE7049890F83C002F
:103B1000012804D1FFE702208DF81700C0E00499C6
:103B2000012081F83C00FFE7FFE70298009014288D
:103B300000F2A7800099DFE801F00BA4A4A424A45C
:103B4000A4A43EA4A4A457A4A4A471A4A4A48A00D9
:103B500004980068039901F00DFB049801688869D6
:103B600040F00800886104980168886920F004002A
:103B70008861039802690498016888691043886124
:103B800083E004980068039901F09EFB04980168A3
:103B9000886940F40060886104980168886920F4AD
:103BA000806088610398026904980168886940EA26
:103BB0000220886169E004980068039901F03CFCE8
:103BC00004980168C86940F00800C8610498016859
:103BD000C86920F00400C86103980269049801686C
:103BE000C8691043C86150E004980068039901F067
:103BF000DBFC04980168C86940F40060C86104985F
:103C00000168C86920F48060C8610398026904985B
:103C10000168C86940EA0220C86136E0049800687B
:103C2000039901F079FD04980168086D40F00800DF
:103C3000086504980168086D20F004000865039881
:103C4000026904980168086D104308651DE0049836
:103C50000068039901F0CAFD04980168086D40F4FA
:103C60000060086504980168086D20F480600865AC
:103C70000398026904980168086D40EA022008650B
:103C800003E001208DF80700FFE7FFE7049900201B
:103C900081F83C00FFE79DF807008DF81700FFE76B
:103CA0009DF8170006B080BD80B582B000900098E6
:103CB00020B9FFE701208DF8070045E0009890F853
:103CC0003D0040B9FFE70099002081F83C000098D2
:103CD00000F03EF8FFE70099022081F83D000099CE
:103CE00051F8040B01F05EF90099012081F84800B9
:103CF000FFE70099012081F83E00009981F83F001C
:103D0000009981F84000009981F84100009981F8FC
:103D10004200009981F84300FFE7FFE70099012086
:103D200081F84400009981F84500009981F8460027
:103D3000009981F84700FFE70099012081F83D00D4
:103D400000208DF80700FFE79DF8070002B080BD56
:103D500082B0019001980068B0F1804F10D1FFE768
:103D6000FFE741F25800C4F20200016841F001018E
:103D70000160006800F0010000900098FFE7FFE795
:103D800002B0704780B590B00E900D910D9828B993
:103D9000FFE70E9890F83E000B9034E00D98042851
:103DA00005D1FFE70E9890F83F000A9028E00D98A3
:103DB000082805D1FFE70E9890F8400009901CE014
:103DC0000D980C2805D1FFE70E9890F84100089057
:103DD00010E00D98102805D1FFE70E9890F84200EA
:103DE000079004E00E9890F843000790FFE70798CB
:103DF0000890FFE708980990FFE709980A90FFE705
:103E00000A980B90FFE70B98012804D0FFE70120E8
:103E10008DF83F00E1E00D9828B9FFE70E990220E8
:103E200081F83E0038E00D98042806D1FFE70E998E
:103E3000022081F83F0006902CE00D98082806D15A
:103E4000FFE70E99022081F8400005901FE00D98D1
:103E50000C2806D1FFE70E99022081F8410004905A
:103E600012E00D98102806D1FFE70E99022081F884
:103E70004200039005E00E99022081F84300039070
:103E8000FFE703980490FFE704980590FFE7059883
:103E90000690FFE70698FFE70E9800680D9901224B
:103EA000019201F04BF901980E99096842F600421F
:103EB000C4F20102914202902DD0FFE70E980168F2
:103EC000012043F20042C4F201029142029022D04A
:103ED000FFE70E980168012044F20002C4F20102DB
:103EE0009142029017D0FFE70E980168012044F23A
:103EF0000042C4F20102914202900CD0FFE70E98FA
:103F000000684BF60001CBF6FE710844B0FA80F071
:103F100040090290FFE70298C00738B1FFE70E980A
:103F20000168486C40F400404864FFE70E98006860
:103F300042F60041C4F2010188422AD0FFE70E9800
:103F40000068B0F1804F24D0FFE70E98006840F27F
:103F50000041C4F2000188421BD0FFE70E980068C0
:103F600040F60001C4F20001884212D0FFE70E982B
:103F7000006843F20041C4F20101884209D0FFE722
:103F80000E98006844F20001C4F20101884219D180
:103F9000FFE70E98006880680721C0F20101084021
:103FA0000C900C9806280CD0FFE70C98B0F5803FD9
:103FB00007D0FFE70E980168086840F0010008602C
:103FC000FFE706E00E980168086840F0010008600D
:103FD000FFE700208DF83F00FFE79DF83F0010B09D
:103FE00080BD000083B00190FFE7019890F8840045
:103FF000012804D1FFE702208DF80B002CE0019985
:10400000012081F88400FFE7FFE701992420C1F82F
:1040100088000198006800680090019801680868AD
:1040200020F001000860009820F0005000900199F5
:1040300000204866009801990968086001992020CD
:10404000C1F88800FFE70199002081F88400FFE7AC
:1040500000208DF80B00FFE79DF80B0003B07047C0
:1040600080B584B002900191FFE7029890F8840037
:10407000012804D1FFE702208DF80F0032E00299F9
:10408000012081F88400FFE7FFE702992420C1F8AE
:10409000880002980068006800900298016808682B
:1040A00020F00100086002980068806820F06060DD
:1040B00001990843029909688860029801F000FCA0
:1040C000009802990968086002992020C1F88800C8
:1040D000FFE70299002081F88400FFE700208DF8B7
:1040E0000F00FFE79DF80F0004B080BD80B584B0DD
:1040F00002900191FFE7029890F88400012804D112
:10410000FFE702208DF80F0032E00299012081F8CC
:104110008400FFE7FFE702992420C1F88800029895
:1041200000680068009002980168086820F00100AB
:10413000086002980068806820F060400199084398
:10414000029909688860029801F0BAFB0098029908
:104150000968086002992020C1F88800FFE70299E9
:10416000002081F88400FFE700208DF80F00FFE7B2
:104170009DF80F0004B080BD80B582B0009000981B
:1041800020B9FFE701208DF8070046E0009880691C
:1041900008B1FFE700E0FFE70098D0F8880040B9D9
:1041A000FFE70099002081F88400009800F03AF8B9
:1041B000FFE700992420C1F888000098016808688A
:1041C00020F0010008600098806A20B1FFE70098A5
:1041D00001F0BAFBFFE7009801F04EFD012804D181
:1041E000FFE701208DF8070017E000980168486894
:1041F00020F49040486000980168886820F02A0008
:10420000886000980168086840F001000860009824
:1042100001F03EFC8DF80700FFE79DF8070002B0B3
:1042200080BD000080B59CB01B9000201A901990B2
:1042300018901790169005A84421FCF740F91B9898
:10424000006843F60001C4F2010188423AD1FFE759
:10425000012005900020069005A8FDF74FFD18B13C
:10426000FFE7FDF7BFF9FFE7FFE741F26000C4F2A7
:104270000200016841F480410160006800F4804060
:1042800004900498FFE7FFE741F24C00C4F20200FB
:10429000016841F001010160006800F00100039035
:1042A0000398FFE74FF4C06016900220179000209B
:1042B0001890199007201A904FF0904016A9FDF71A
:1042C000BBF942E01B98006844F20041C4F20001CF
:1042D000884239D1FFE7022005900020079005A809
:1042E000FDF70CFD18B1FFE7FDF77CF9FFE7FFE7ED
:1042F00041F25800C4F20200016841F4003101604B
:10430000006800F4003002900298FFE7FFE741F2F6
:104310004C00C4F20200016841F001010160006834
:1043200000F0010001900198FFE70C201690022098
:10433000179000201890199007201A904FF0904085
:1043400016A9FDF779F9FFE7FFE71CB080BD000073
:1043500080B58AB008900791ADF81A2005930898A7
:10436000D0F88800202840F08780FFE7079820B128
:10437000FFE7BDF81A0020B9FFE701208DF82700FC
:104380007EE008990020C1F8900008992120C1F82A
:104390008800FDF71BFB0290BDF81A000899A1F8F0
:1043A0005400BDF81A000899A1F8560008988068D2
:1043B000B0F5805F09D1FFE70898006928B9FFE7E9
:1043C000002004900798039004E0079804900020D0
:1043D0000390FFE7FFE70898B0F8560088B3FFE7BF
:1043E0000898029B05996A4611608021002201F01D
:1043F000FBFE40B1FFE708992020C1F888000320A8
:104400008DF827003CE0049858B9FFE7039800882E
:104410006FF35F200899096888620398023003905F
:1044200008E00498007808990968886204980130C7
:104430000490FFE70899B1F856000138A1F856003A
:10444000C9E70898029B05996A461160402100223D
:1044500001F0CAFE40B1FFE708992020C1F88800AA
:1044600003208DF827000BE008992020C1F8880070
:1044700000208DF8270003E002208DF82700FFE7D9
:104480009DF827000AB080BDFFE7FEE700000000AE
:1044900080B586B0002005900DF112000190411CFE
:1044A0001D200122029200F065F80199029A1E2057
:1044B00000F060F8BDF81200ADF80E00BDF80E0077
:1044C00002F030FE41EC100B9FED0F1B53EC112B53
:1044D00051EC100B02F0CCFC41EC100B51EC100B2A
:1044E0009FED0B0B53EC102B02F01AFC41EC100B60
:1044F00051EC100B02F0E2FB05909DED050A06B0B1
:1045000080BD00BF00BF00BF8FC2F5285C8F604038
:10451000000000000000394080B582B040F6000085
:10452000C4F6000010210122FDF73AFA00F04CF821
:104530000A20019001F028FF00F008F800F068F868
:10454000019801F021FF02B080BD000080B584B069
:10455000012202928DF80F204F200DF10F010191E1
:1045600000F068F80199029A502000F063F804B056
:1045700080BD000080B586B08DF8170004918DF8DD
:104580000F209DF8170040F080008DF80E0040F6D7
:104590000000C4F600000090102101910022FDF7F8
:1045A000FFF90DF10E000121029101F061FF049865
:1045B0009DF80F1001F04AFF00980199029AFDF74B
:1045C000EFF906B080BD000080B584B011208DF8F1
:1045D0000F00012002908DF80E0040F60000C4F696
:1045E00000000090102101910022FDF7D9F90299F5
:1045F0000DF10F0001F03CFF02990DF10E0001F0EA
:1046000037FF00980199029AFDF7CAF904B080BDFE
:1046100080B582B04E208DF807000F208DF806007F
:104620009DF807000DF10601012200F003F802B029
:1046300080BD000080B5C8B08DF81E0146918DF890
:104640001721002204928DF816209DF81E018DF886
:1046500015008DF8142040F60000C4F6000001900B
:1046600010210291FDF79CF90DF115000121039134
:1046700001F0FEFE46989DF8171101F0F9FE019831
:104680000299039AFDF78CF99DF81E019DF81721F8
:104690000DF11701FFF76EFF04988DF81600FFE784
:1046A0009DF816009DF81711884215DAFFE79DF86E
:1046B00016200DF11700805C4699895C884204D071
:1046C000FFE701208DF81F010AE0FFE79DF81600C3
:1046D00001308DF81600E3E700208DF81F01FFE799
:1046E0009DF81F0148B080BD80B58EB000200D90B0
:1046F0000C900B900A900990FFE741F24C00C4F235
:104700000200016841F020010160006800F0200013
:1047100008900898FFE7FFE741F24C00C4F202005E
:10472000016841F001010160006800F0010007909C
:104730000798FFE7FFE741F24C00C4F2020001686E
:1047400041F004010160006800F004000690069842
:10475000FFE7FFE741F24C00C4F20200016841F0BC
:1047600002010160006800F0020005900598FFE773
:1047700040F60000C4F600000190102100910022D4
:104780000392FDF70DF9009A01980399099201220D
:1047900002920A920B910C9109A90491FCF74CFF2B
:1047A000029A0398049909924FF488120A920B9086
:1047B00040F20040C4F60000FCF73EFF0EB080BDA2
:1047C00080B582B040F27000C2F20000019043F266
:1047D0000001C4F2010101604FF4827141600021C7
:1047E00081604FF4E062C2600222026101224261F4
:1047F0004FF4007282611022C261016241628162E3
:104800000722C26201634163FEF7C2FA18B1FFE7F3
:10481000FCF7E8FEFFE702B080BD000080B58CB079
:10482000002101910B910A9109910891079106913C
:10483000059104910391029140F2D400C2F200006C
:104840004FF080420260A922426081601822C2605B
:1048500001618161FFF728FA18B1FFE7FCF7C2FE9A
:10486000FFE7002009900B9040F2D400C2F2000054
:1048700009A9FFF773F818B1FFE7FCF7B3FEFFE7EC
:1048800060200290002203920492069240F2D4002B
:10489000C2F2000002A9FFF72FF918B1FFE7FCF7F9
:1048A000A1FEFFE740F2D400C2F20000FFF7F6F8E5
:1048B0000CB080BD80B582B040F22010C2F2000082
:1048C000009043F60001C4F2010101604FF4E131B0
:1048D0004160002101918160C16001610C2242614F
:1048E0008161C161016241628162FFF745FC18B1DB
:1048F000FFE7FCF777FEFFE740F22010C2F200006E
:104900000021FFF7F3FB18B1FFE7FCF76BFEFFE7B1
:1049100040F22010C2F200000021FFF7A1FB18B105
:10492000FFE7FCF75FFEFFE740F22010C2F2000055
:10493000FFF758FB18B1FFE7FCF754FEFFE702B0A2
:1049400080BD000080B582B040F2B410C2F2000019
:10495000009044F20041C4F2000101604FF4E131E3
:104960004160002101918160C16001610C224261BE
:104970008161C161016241628162FFF7FDFB18B193
:10498000FFE7FCF72FFEFFE740F2B410C2F2000091
:104990000021FFF7ABFB18B1FFE7FCF723FEFFE7B1
:1049A00040F2B410C2F200000021FFF759FB18B129
:1049B000FFE7FCF717FEFFE740F2B410C2F2000079
:1049C000FFF710FB18B1FFE7FCF70CFEFFE702B0A2
:1049D00080BD0000FFE7FEE7FFE7FEE788B0079035
:1049E00006910592079800F0070004900498C0F122
:1049F0000700052803D3FFE70420019004E0049892
:104A0000C0F107000190FFE701980390049804307B
:104A1000062803D8FFE70020009003E0049803383D
:104A20000090FFE70098029006980399012202FA8D
:104A300001F101390840029B984005999A40013ADA
:104A40001140084308B070477047000086B041F23B
:104A50000C00C4F20200016801F003010491006837
:104A6000C1B2012000EB11100290049800900228BE
:104A700015D0FFE70098032812D1FFE7029947F607
:104A80004000C0F27D10B0FBF1F041F20C01C4F225
:104A900002010968C1F306214843059011E0FFE7D0
:104AA000029942F20040C0F2F400B0FBF1F041F292
:104AB0000C01C4F202010968C1F3062148430590C4
:104AC000FFE741F20C00C4F20200006800F0C06190
:104AD000022000EB1160039005980399B0FBF1F000
:104AE0000190019806B0704780B586B0049003919C
:104AF000029204984068B0F5827F13D1FFE70498D2
:104B00008068B0F5004F06D0FFE704988068B0F5E4
:104B1000806F07D1FFE704980168086820F0400023
:104B20000860FFE70498039B02996A4611608021A0
:104B3000002200F02DF948B1FFE70499086E40F01B
:104B40002000086603208DF817002BE004984068C9
:104B5000B0F5827F22D1FFE704988068B0F5004F5E
:104B600006D0FFE704988068B0F5806F16D1FFE7A4
:104B70000498039B02996A4611604FF4C0610022B9
:104B800000F060F848B1FFE70499086E40F020009B
:104B9000086603208DF8170004E0FFE700208DF879
:104BA0001700FFE79DF8170006B080BD80B586B0FE
:104BB0000490039102920498039B02996A46116043
:104BC0004FF4C051002200F03DF848B1FFE70499CE
:104BD000086E40F02000086603208DF817002CE0D6
:104BE0000498039B02996A4611608021002200F01C
:104BF000CFF848B1FFE70499086E40F0200008663E
:104C000003208DF8170018E00498039B02996A4668
:104C100011604FF4C061002200F014F848B1FFE7C2
:104C20000499086E40F02000086603208DF81700F4
:104C300003E000208DF81700FFE79DF8170006B08D
:104C400080BD000080B58CB0DDF838C00A900991B5
:104C50000892079300208DF80B0007980190FCF74D
:104C6000B5FE024601980E99891A08440590FCF792
:104C7000ADFE04900A9800680C300390059840F24D
:104C80000001C2F20001096823225143090D484383
:104C90000690FFE70A98006880680999084008991B
:104CA00088426DD0FFE70998B0F5C06F0AD1FFE7E1
:104CB000089838B9FFE7039800788DF80B009DF845
:104CC0000B00FFE707980130002858D0FFE7FCF7FA
:104CD0007DFE0499401A0599884204D2FFE70598A1
:104CE000002842D1FFE70A980168486820F0E000F8
:104CF00048600A984068B0F5827F13D1FFE70A98B0
:104D00008068B0F5004F06D0FFE70A988068B0F5DC
:104D1000806F07D1FFE70A980168086820F040001B
:104D20000860FFE70A98806AB0F5005F0FD1FFE7DF
:104D3000FFE70A980168086820F4005008600A98A4
:104D40000168086840F400500860FFE7FFE70A992F
:104D5000012081F85D00FFE70A99002081F85C00DE
:104D6000FFE703208DF82F000EE0069818B9FFE743
:104D700000200590FFE7069801380690FFE789E7D5
:104D800000208DF82F00FFE79DF82F000CB080BDAC
:104D900080B58AB0DDF830C0089007918DF81B20EF
:104DA000059305980190FCF711FE024601980C99B5
:104DB000891A08440390FCF709FE0290039840F218
:104DC0000001C2F200010968C1F3CB3148430490ED
:104DD000FFE708980068806807990840401AB0FA11
:104DE00080F040099DF81B1088425ED0FFE70598CF
:104DF0000130002858D0FFE7FCF7E8FD0299401A7F
:104E00000399884204D2FFE70398002842D1FFE7C4
:104E100008980168486820F0E000486008984068F9
:104E2000B0F5827F13D1FFE708988068B0F5004F96
:104E300006D0FFE708988068B0F5806F07D1FFE7DC
:104E400008980168086820F040000860FFE70898AB
:104E5000806AB0F5005F0FD1FFE7FFE708980168AF
:104E6000086820F40050086008980168086840F459
:104E700000500860FFE7FFE70899012081F85D0016
:104E8000FFE70899002081F85C00FFE703208DF818
:104E900027000EE0049818B9FFE700200390FFE711
:104EA000049801380490FFE793E700208DF827006D
:104EB000FFE79DF827000AB080BD000070470000A2
:104EC00080B582B0009000980138B0F1807F03D3A4
:104ED000FFE70120019019E0009801384EF214011B
:104EE000CEF2000108604FF0FF300F2101F00CFA04
:104EF0004EF21801CEF20001002008604EF21002BE
:104F0000CEF20002072111600190FFE7019802B084
:104F100080BD000080B5FCF75FFD80BD80B594B01A
:104F200006A800903821FBF7CAFA002005900490EB
:104F3000039002900190FCF7FDFD0098012106917D
:104F40004FF4A021079102210D9103220E92052218
:104F50000F9244221092119112911391FDF73CFB94
:104F600018B1FFE7FCF73EFBFFE70F20019003209D
:104F70000290002003900490059001A80421FDF701
:104F8000EBF818B1FFE7FCF72DFBFFE714B080BD8D
:104F90004EF68851CEF20001086840F470000860B7
:104FA0007047000083B00290019102980068009061
:104FB000029842F60041C4F2010188421DD0FFE789
:104FC0000298B0F1804F18D0FFE7029840F20041FC
:104FD000C4F20001884210D0FFE7029840F60001B9
:104FE000C4F20001884208D0FFE7029843F2004172
:104FF000C4F2010188420AD1FFE7009820F0700056
:10500000009001984168009808430090FFE70298DB
:1050100042F60041C4F20101884235D0FFE7029810
:10502000B0F1804F30D0FFE7029840F20041C4F267
:105030000001884228D0FFE7029840F60001C4F240
:105040000001884220D0FFE7029843F20041C4F2F9
:105050000101884218D0FFE7029844F20001C4F22F
:105060000101884210D0FFE7029844F20041C4F2E7
:105070000101884208D0FFE7029844F60001C4F21B
:10508000010188420AD1FFE7009820F440700090A7
:105090000198C168009808430090FFE7009820F04D
:1050A00080000199496908430090009802990860BE
:1050B000019880680299C862019800680299886224
:1050C000029842F60041C4F20101884220D0FFE775
:1050D000029843F20041C4F20101884218D0FFE770
:1050E000029844F20001C4F20101884210D0FFE7A7
:1050F000029844F20041C4F20101884208D0FFE75F
:10510000029844F60001C4F20101884205D1FFE78C
:105110000198006902990863FFE70299012048613C
:1051200002980069C00730B1FFE70299086920F0D2
:1051300001000861FFE703B07047000084B00390EE
:1051400002910192029800F01F0101208840009016
:10515000009A0399086A904308620198029901F045
:105160001F0100FA01F20399086A1043086204B0B3
:105170007047000085B0049003910498006A019084
:105180000499086A20F001000862049840680090C1
:1051900004988069029002984FF68F71CFF6FE71E5
:1051A00008400290029820F00300029003980168E2
:1051B000029808430290019820F0020001900398A1
:1051C0008168019808430190049842F60041C4F2B6
:1051D0000101884220D0FFE7049843F20041C4F265
:1051E0000101884218D0FFE7049844F20001C4F29C
:1051F0000101884210D0FFE7049844F20041C4F254
:105200000101884208D0FFE7049844F60001C4F287
:10521000010188420ED1FFE7019820F008000190BB
:105220000398C168019808430190019820F0040098
:105230000190FFE7049842F60041C4F20101884260
:1052400020D0FFE7049843F20041C4F201018842F4
:1052500018D0FFE7049844F20001C4F2010188422B
:1052600010D0FFE7049844F20041C4F201018842E3
:1052700008D0FFE7049844F60001C4F20101884217
:1052800013D1FFE7009820F480700090009820F47C
:1052900000700090039841690098084300900398BB
:1052A0008169009808430090FFE7009804994860DE
:1052B00002980499886103984068049948630198AA
:1052C0000499086205B0704785B004900391049872
:1052D000006A01900499086A20F01000086204989E
:1052E00040680090049880690290029848F6FF7127
:1052F000CFF6FF6108400290029820F440700290BF
:1053000003980168029840EA01200290019820F079
:105310002000019003988168019840EA01100190F3
:10532000049842F60041C4F20101884229D0FFE707
:10533000049843F20041C4F20101884221D0FFE702
:10534000049844F20001C4F20101884203D1FFE74E
:105350000020B0B9FFE7049844F20041C4F2010113
:10536000884203D1FFE7002058B9FFE7049844F6CC
:105370000001C4F20101884212D1FFE7012078B98F
:10538000FFE7019820F0800001900398C168019820
:1053900040EA01100190019820F040000190FFE7E1
:1053A000049842F60041C4F20101884220D0FFE790
:1053B000049843F20041C4F20101884218D0FFE78B
:1053C000049844F20001C4F20101884210D0FFE7C2
:1053D000049844F20041C4F20101884208D0FFE77A
:1053E000049844F60001C4F20101884215D1FFE798
:1053F000009820F480600090009820F400600090F5
:1054000003984169009840EA8100009003988169FF
:10541000009840EA81000090FFE7009804994860F6
:1054200002980499886103984068049988630198F8
:105430000499086205B0704785B004900391049800
:10544000006A01900499086A20F480700862049848
:10545000406800900498C069029002984FF68F71DE
:10546000CFF6FE7108400290029820F003000290EF
:1054700003980168029808430290019820F4007094
:10548000019003988168019840EA012001900498F6
:1054900042F60041C4F20101884229D0FFE7049896
:1054A00043F20041C4F20101884221D0FFE7049891
:1054B00044F20001C4F20101884203D1FFE7002059
:1054C000B0B9FFE7049844F20041C4F201018842F8
:1054D00003D1FFE7002058B9FFE7049844F6000124
:1054E000C4F20101884212D1FFE7012078B9FFE739
:1054F000019820F4006001900398C168019840EA87
:1055000001200190019820F480600190FFE7049849
:1055100042F60041C4F20101884220D0FFE704981E
:1055200043F20041C4F20101884218D0FFE7049819
:1055300044F20001C4F20101884210D0FFE7049850
:1055400044F20041C4F20101884208D0FFE7049808
:1055500044F60001C4F20101884215D1FFE700982A
:1055600020F480500090009820F4005000900398A0
:105570004169009840EA0110009003988169009801
:1055800040EA01100090FFE70098049948600298F3
:105590000499C861039840680499C8630198049904
:1055A000086205B07047000085B00490039104982C
:1055B000006A01900499086A20F4805008620498F7
:1055C000406800900498C0690290029848F6FF7104
:1055D000CFF6FF6108400290029820F440700290DC
:1055E00003980168029840EA01200290019820F493
:1055F0000050019003988168019840EA01300190C1
:10560000049842F60041C4F20101884229D0FFE724
:10561000049843F20041C4F20101884221D0FFE71F
:10562000049844F20001C4F20101884203D1FFE76B
:105630000020B0B9FFE7049844F20041C4F2010130
:10564000884203D1FFE7002058B9FFE7049844F6E9
:105650000001C4F20101884212D1FFE7012078B9AC
:10566000FFE7019820F4004001900398C168019879
:1056700040EA01300190019820F480400190FFE75A
:10568000049842F60041C4F20101884220D0FFE7AD
:10569000049843F20041C4F20101884218D0FFE7A8
:1056A000049844F20001C4F20101884210D0FFE7DF
:1056B000049844F20041C4F20101884208D0FFE797
:1056C000049844F60001C4F20101884215D1FFE7B5
:1056D000009820F480400090009820F40040009052
:1056E00003984169009840EA81100090039881690D
:1056F000009840EA81100090FFE700980499486004
:1057000002980499C8610398406804990864019854
:105710000499086205B0704785B00490039104981D
:10572000006A01900499086A20F4803008620498A5
:10573000406800900498006D029002984FF68F71B7
:10574000CFF6FE7108400290039801680298084362
:105750000290019820F4003001900398816801982C
:1057600040EA01400190049842F60041C4F2010170
:10577000884220D0FFE7049843F20041C4F20101BF
:10578000884218D0FFE7049844F20001C4F20101F6
:10579000884210D0FFE7049844F20041C4F20101AE
:1057A000884208D0FFE7049844F60001C4F20101E2
:1057B00088420BD1FFE7009820F4803000900398D6
:1057C0004169009840EA01200090FFE700980499A1
:1057D00048600298049908650398406804998864B1
:1057E00001980499086205B07047000085B00490E4
:1057F00003910498006A01900499086A20F48010CB
:1058000008620498406800900498006D0290029825
:1058100048F6FF71CFF6FF610840029003980168D7
:10582000029840EA01200290019820F400100190B3
:1058300003988168019840EA01500190049842F66B
:105840000041C4F20101884220D0FFE7049843F2EE
:105850000041C4F20101884218D0FFE7049844F2E5
:105860000001C4F20101884210D0FFE7049844F21D
:105870000041C4F20101884208D0FFE7049844F6D1
:105880000001C4F2010188420BD1FFE7009820F427
:105890008020009003984169009840EA81200090A0
:1058A000FFE70098049948600298049908650398F6
:1058B00040680499C86401980499086205B070476B
:1058C00082B001900198406E40B9FFE70199012034
:1058D000A1F86A000199A1F8680032E008208DF86B
:1058E00003008DF80200019800688068C0F34260F0
:1058F0008DF80100019800688068400F8DF8000065
:105900009DF802009DF8002047F20463C0F60003F2
:10591000995C484347F2FC51C0F600018A5CB0FB39
:10592000F2F0019AA2F86A009DF803009DF80120A8
:105930009B5C5843895CB0FBF1F00199A1F86800C9
:10594000FFE702B07047000081B00090009890F827
:105950002800000700280BD5FFE700980068406882
:1059600020F40040009A1168926B10434860FFE7F2
:10597000009890F82800C00758B1FFE70098006829
:10598000406820F40030009A1168D26A10434860E1
:10599000FFE7009890F82800800700280BD5FFE764
:1059A00000980068406820F48030009A1168126BFB
:1059B00010434860FFE7009890F82800400700284F
:1059C0000BD5FFE700980068406820F48020009A1B
:1059D0001168526B10434860FFE7009890F8280068
:1059E000C00600280BD5FFE700980068806820F407
:1059F0008050009A1168D26B10438860FFE70098CE
:105A000090F82800800600280BD5FFE70098006872
:105A1000806820F40050009A1168126C104388606E
:105A2000FFE7009890F82800400600281CD5FFE703
:105A300000980068406820F48010009A1168526C49
:105A4000104348600098406CB0F5801F0BD1FFE711
:105A500000980068406820F4C000009A1168926CB9
:105A600010434860FFE7FFE7009890F82800000621
:105A700000280BD5FFE700980068406820F400205C
:105A8000009A1168D26C10434860FFE701B070477C
:105A900080B588B0069006990020C1F89000FBF709
:105AA00095FF0590069800680068000700282FD52C
:105AB000FFE70698059B6A466FF07E4111604FF440
:105AC0000011002200F090FB08B3FFE7FFE7FFE7BB
:105AD0000698006850E8000F20F080000490FFE76F
