:020000040800F2
:100000005008002079020008151D00080D1D000889
:10001000111D000871040008892600080000000076
:100020000000000000000000000000001D1D00088E
:100030007504000800000000191D0008211D0008BB
:10004000930200089302000893020008930200083C
:10005000930200089302000893020008930200082C
:10006000930200089302000893020008930200081C
:10007000930200089302000893020008930200080C
:100080009302000800000000930200089302000899
:1000900093020008930200089302000893020008EC
:1000A00093020008930200089302000893020008DC
:1000B00093020008930200089302000893020008CC
:1000C00093020008930200089302000893020008BC
:1000D00093020008930200089302000893020008AC
:1000E000930200089302000893020008930200089C
:1000F0009302000893020008930200080000000029
:1001000000000000930200080000000093020008B5
:100110009302000800000000930200089302000808
:10012000930200089302000893020008930200085B
:100130009302000800000000000000009302000885
:100140009302000893020008000000000000000075
:10015000000000000000000000000000000000009F
:1001600000000000000000000000000093020008F2
:1001700093020008000000000000000000000000E2
:1001800000000000930200080000000000000000D2
:10019000000000000000000000000000000000005F
:1001A0000000000000000000930200089302000815
:1001B0009302000893020008930200080000000068
:1001C0000000000093020008000000000000000092
:1001D000930200089302000800F002F800F03CF8D7
:1001E0000AA090E8000C82448344AAF10107DA4592
:1001F00001D100F031F8AFF2090EBAE80F0013F0A8
:10020000010F18BFFB1A43F001031847C82700006D
:10021000E8270000103A24BF78C878C1FAD85207FE
:1002200024BF30C830C144BF04680C607047000070
:100230000023002400250026103A28BF78C1FBD8EF
:10024000520728BF30C148BF0B6070471FB502F08E
:100250008CFB1FBD10B510BD00F0D0F81146FFF7A4
:10026000F5FF02F013FA00F0EEF803B4FFF7F2FF27
:1002700003BC00F0F5F80000094880470948004732
:10028000FEE7FEE7FEE7FEE7FEE7FEE7FEE7FEE746
:10029000FEE7FEE704480549054A064B70470000A3
:1002A000251D0008D9010008500200205008002038
:1002B000500400205004002053EA020C00F0698032
:1002C0002DE9F04B4FF00006002B1FBFB3FA83F56A
:1002D00003FA05F424FA05F65E4012BF1643B2FA9B
:1002E00082F502FA05F4C5F120051EBF22FA05FCCD
:1002F00044EA0C04203556EA044C4FEA144418BF73
:10030000641C4FF000084FF00009904271EB030CA1
:1003100039D3002919BFB1FA81F701FA07F6B0FA0B
:1003200080F700FA07F6C7F120071EBF20FA07FC86
:1003300046EA0C062037B6FBF4FCA7EB0507103F96
:1003400007F01F0BCBF120062CFA06F60CFA0BFB7C
:1003500044BFB3460026202FA4BF5E464FF0000BDB
:100360005BEA060C08BF4FF0010B19EB0B0948EBD9
:100370000608ABFB027C06FB02CC0BFB03CCC01BCC
:1003800071EB0C01C1E70B46024641464846BDE809
:10039000F08B13B5084318BF4FF0FF300146AFF3A1
:1003A0000080BDE81C4070474FF0000200B51346C6
:1003B00094469646203922BFA0E80C50A0E80C5085
:1003C000B1F12001BFF4F7AF090728BFA0E80C5036
:1003D00048BF0CC05DF804EB890028BF40F8042B2F
:1003E00008BF704748BF20F8022B11F0804F18BF9C
:1003F00000F8012B7047704770477047754600F052
:100400002BF8AE4605006946534620F007008546A6
:1004100018B020B5FFF73EFFBDE820404FF00006C2
:100420004FF000074FF000084FF0000BAC46ACE86F
:10043000C009ACE8C009ACE8C009ACE8C00921F0CB
:1004400007018D46704710B50446AFF30080204683
:10045000BDE81040FFF709BF0048704710000020BA
:1004600001491820ABBEFEE72600020070470000DD
:10047000FEE7000070470000EFF3108072B600BF87
:10048000FEE700002DE9F04F82B00D68002D00F06E
:10049000CB8041F2004400F13847C4F60004062244
:1004A0004FEAB726A04208BF0522052E38BF4FEA03
:1004B000B722002401274FF0000E0026009209E029
:1004C0000D68013635FA06F20EF1040E04F102044D
:1004D00000F0AA8007FA06FB15EA0B08F0D0D1F865
:1004E00004A003220AF0030CACF10105A240012D87
:1004F0006FEA020910D88268CD6802EA0902A540B5
:100500002A4382604268CAF3001522EA0B02B54012
:100510002A43426006E000BFBCF1030F02D14FF056
:10052000030C21E0C2688D6802EA0902A5402A4353
:10053000BCF1020FC26017D16FF0030202EA56024B
:1005400002440EF01C030F25D2F820C005FA03FA6E
:100550000D692CEA0A0C05FA03F343EA0C03136253
:10056000D1F804A00AF0030C02680CFA04F302EAC2
:1005700009021A431AF4403F0260A1D041F260031D
:10058000C4F202031A6840F2004942F001021A6004
:100590001A68C4F2010902F001020192019A26F0E0
:1005A00003024FF6084A4A44CFF6FF7A52F80AC0CF
:1005B0000EF00C050F23009FAB402CEA030307FA53
:1005C00005F52B4342F80A30D9F808C04B684CEACD
:1005D0000805DA0258BF2CEA080540F20C4CC9F8AD
:1005E0000850C4F2010CDCF800209F0242EA080522
:1005F00058BF22EA0805CCF80050D9F804209D0322
:1006000042EA080758BF22EA0807C9F80470D9F877
:100610000020DB0342EA080758BF22EA0807C9F8AE
:10062000007001274CE700BF02B0BDE8F08F00006A
:100630001823002A08BF2823C150704740F24820E1
:10064000C2F200000068704740F2000040F248210A
:10065000C2F20000C2F2000140680A68104408605B
:100660007047000080B5032000F078F80F2000F0FC
:1006700009F800281CBF012080BD00F029F80020E7
:1006800080BD000070B540F20006C2F2000671683D
:10069000E1B1044640F20800C2F200004FF47A7261
:1006A0000068B2FBF1F1B0FBF1F000F02BFF0F2C72
:1006B0004FF0010508D838B94FF0FF30214600222D
:1006C000002500F01FF83460284670BD012070BD81
:1006D00082B041F25800C4F20200816841F0010189
:1006E0008160816801F0010101910199016841F087
:1006F00080510160006800F080500090009802B0C6
:1007000000F0D0B810B54EF60C5CCEF2000CDCF860
:100710000030C3F3022E8EF00704042C28BF0424FB
:10072000BEF103034FF0FF3E0EFA04F438BF00237E
:10073000A14399400EFA03F39A43114300F00F02CC
:1007400000F160430901043A03F564436244002860
:1007500048BF02F10C03197010BD00004EF60C5199
:10076000CEF200010A684FF6FF031A4060F30A2236
:1007700042F0806040F0FD7008607047B0F5007F87
:1007800042D0002840F0808047F21400C4F20000FC
:1007900050F8141CC26E01F4C06122F48072B1F5ED
:1007A000806FC2662ED150F8141C012262F34A21D8
:1007B00040F8141C40F20801C2F20001096832221C
:1007C00051434DF68362C4F21B32A1FB0212910C1D
:1007D0000268520511D54A1C0FD0026852050CD58B
:1007E00059B10268520508D5012906D002685205A0
:1007F00003D50229A1F10401EAD10068400544BFF4
:10080000032070470020704747F21400C4F2000034
:1008100050F8141CC26E01F4C06142F48072B1F54C
:10082000806FC266EED150F8141C012262F34A2197
:1008300040F8141C40F20801C2F20001096832229B
:1008400051434DF68362C4F21B32A1FB0212910C9C
:100850000268520511D54A1C0FD0026852050CD50A
:1008600059B10268520508D5012906D0026852051F
:1008700003D50229A1F10401EAD10068400544BF73
:1008800003207047BEE700BF47F21400C4F2000027
:1008900050F8141C022262F34A2140F8141C002074
:1008A0007047000047F20800C4F20000016841F4FC
:1008B00080410160704700002DE9F04182B004469C
:1008C000807841F288060007C4F2020602D40020B4
:1008D0002FE000BF56F8300C10F080580BD156F8BE
:1008E000300C40F0805046F8300C56F8300C00F0D8
:1008F00080500190019847F20007C4F20007386861
:1009000040F480703860FFF799FE05463868C005EE
:1009100000F1D680FFF792FE401B0228F6D9032093
:10092000B8F1000F05D156F8301C21F0805146F87F
:10093000301C2168CA0713D18A0719D44A071FD46B
:100940000A0725D48A062BD44A0631D40A0637D49E
:10095000CA053DD48A0543D44A0549D457E000BFAF
:100960003268636822F003021A4332608A07E5D5D1
:100970003268A36822F00C021A4332604A07DFD5BE
:100980003268E36822F030021A4332600A07D9D590
:100990003268236922F0C0021A4332608A06D3D536
:1009A0003268636922F440621A4332604A06CDD548
:1009B0003268A36922F440521A4332600A06C7D54E
:1009C0003268E36922F440421A433260CA05C1D555
:1009D0003268236A22F440321A4332608A05BBD55A
:1009E0003268636A22F440221A4332604A050ED507
:1009F0003268A36A22F440121A43B3F5801F3260B2
:100A000005D156F87C2C42F4801246F87C2C0A055D
:100A10000ED53268E36A22F440021A43B3F5800F20
:100A2000326005D156F87C2C42F4801246F87C2CBA
:100A3000CA040ED53268236B22F040721A43B3F118
:100A4000807F326005D156F87C2C42F4801246F843
:100A50007C2C8A040ED53268636B22F040621A4304
:100A6000B3F1006F326005D156F87C2C42F480124D
:100A700046F87C2C4A040ED53268A36B22F0406203
:100A80001A43B3F1006F326005D156F87C2C42F462
:100A9000801246F87C2C09040ED53168E26B21F0F7
:100AA00040511143B2F1805F316005D156F87C1C92
:100AB00041F4803146F87C1C02B0BDE8F08100BFF3
:100AC000B06810F4407010D0216C88420BD0B06830
:100AD000B16820F4407041F48031B160B16821F414
:100AE0008031B160B060C0070CD1B068216C20F4D7
:100AF00040700843B0600020B8F1000F7FF419AFD8
:100B000011E700BFFFF79AFD054641F2883700BFA5
:100B1000B0688007E9D4FFF791FD401BB842F7D9D0
:100B2000FDE600002DE9F04700286DD042F2000AF2
:100B3000C4F2020A0446DAF800000D4600F00F0085
:100B400088420CD2DAF8000020F00F002843CAF8DF
:100B50000000DAF8000000F00F00A84254D121682C
:100B600041F20808C807C4F2020803D1880740F11F
:100B7000D880BDE0606802283AD0032840D158F8F8
:100B8000082C920140D5D8F80420D8F8043042F25D
:100B90000046C3F3031302F00302D8F804700133D4
:100BA000C0F2F406032A04BF47F64006C0F27D16E1
:100BB000B6FBF3F2D8F80430C7F306277A43C3F341
:100BC0004163022707EB4303B2FBF3F24BF200430E
:100BD000C0F2C4439A4261D9D8F8002012F0F00F55
:100BE00051D089075AD5A168002957D14BE000BFE1
:100BF00058F8081C89035CBF0120BDE8F08707E0B6
:100C000058F8081C490503D40120BDE8F08700BF4F
:100C1000D8F8001001F00C0104293FD0D8F80010DA
:100C200001F00C01082939D0D8F8001001F00C01AE
:100C30000C2933D1D8F80410D8F8042042F2004728
:100C4000C2F3031201F00301D8F804300132C0F2FC
:100C5000F407032904BF47F64007C0F27D17B7FB2E
:100C6000F2F1D8F80420C3F306235943C2F34162DA
:100C7000022303EB4202B1FBF2F14BF20042C0F25D
:100C8000C44291420AD9D8F80010082262F3071131
:100C90004FF00109C8F8001002E000BF4FF0000952
:100CA000D8F8001021F003010843C8F80000FFF74E
:100CB000C5FC064641F28837D8F80000616800F0AC
:100CC0000C00B0EB810F07D0FFF7B8FC801BB842D7
:100CD000F2D90320BDE8F0872168880708D4B9F16C
:100CE000000F1ED0D8F8000020F0F00017E000BF81
:100CF000480705D5D8F8000040F4E060C8F80000C7
:100D0000080706D5D8F80000072262F30D20C8F8BE
:100D10000000D8F80000A26820F0F0001043C8F8E6
:100D20000000DAF8000000F00F00A8421BD9DAF842
:100D3000000020F00F002843CAF80000FFF77EFCF7
:100D4000064641F2883700BFDAF8000000F00F00D5
:100D5000A84207D0FFF772FC801BB842F4D90320E9
:100D6000BDE8F0872168480707D5D8F80000E26899
:100D700020F4E0601043C8F80000080708D5D8F850
:100D80000000216920F4605040EAC100C8F800006A
:100D9000D8F8000042F20041C0F2F40100F00C006B
:100DA000042808462DD0D8F8000000F00C000828D0
:100DB00047F64000C0F27D1023D0D8F8002002F0A2
:100DC0000C020C2A1CD1D8F80420D8F8043002F008
:100DD0000302C3F30313D8F804700133032A08BFD6
:100DE0000146B1FBF3F0D8F80410C7F30627C1F3AE
:100DF00041610222784302EB4101B0FBF1F000E0D7
:100E00000020D8F8001042F68412C1F30311C0F696
:100E10000002515C40F2080201F01F0120FA01F1CA
:100E200040F20000C2F200000068C2F2000211604D
:100E3000BDE8F047FFF726BC40F2080041F2080188
:100E4000C2F20000C4F202010068096842F694127E
:100E5000C1F30221C0F60002515C01F01F01C8403D
:100E60007047000040F2080041F20801C2F20000A1
:100E7000C4F202010068096842F69412C1F3C2216B
:100E8000C0F60002515C01F01F01C840704700002D
:100E900080B541F20C01C4F2020151F8040C42F297
:100EA0000042C0F2F40200F00C000428104608BF13
:100EB00080BD51F8040C00F00C00082847F64000F3
:100EC000C0F27D1022D051F8043C03F00C030C2B2F
:100ED0001CBF002080BDD1F800C00B680CF0030CD3
:100EE000C3F3031E0B680EF1010EBCF1030F08BF24
:100EF00002460968B2FBFEF0C3F30623C1F3416169
:100F00000222584302EB4101B0FBF1F080BD00002A
:100F10002DE9F04182B0002800F0068104460078F7
:100F200041F20006C007C4F2020655D120788007BE
:100F300074D42078000700F197802078400700F1F2
:100F4000B7802078800600F10781E569002D00F068
:100F50003082B06800F00C000C2840F05981012D5F
:100F600000F0E280F068216A00F003028A4240F05B
:100F7000DB80626A6FF00F0300F0F00103EB0212F6
:100F8000914240F0D180A16A00F4FE42B2EB012F01
:100F900040F0CA80E16A00F07842B2EBC16F40F0E5
:100FA000C380226B0023CFF6E07303EA025200F401
:100FB000C001A2F50012914240F0B680616B4FF083
:100FC0007E4202EA016100F0C06001F17E41884288
:100FD00040F0AA80EDE100BFB06800F00C01F068BD
:100FE00008295BD0032281F00C0122EA00000844AA
:100FF000B0FA80F0400951D16068B0F5803F07D069
:10100000B0F5A02F40F0DA80306840F480203060E6
:10101000306840F480303060DBE000BFB068F168D9
:1010200000F00C00042869D001F0030180F00C00EE
:1010300081F002010844B0FA80F040095ED1E16815
:101040003068002900F0D28040F480703060FFF7F3
:10105000F5FA05463068400500F1FC80FFF7EEFA2E
:10106000401B0228F6D92EE16169D6F894000029C8
:1010700000F0908040F00100C6F89400FFF7DEFA1F
:10108000054600BFD6F8940080073FF556AFFFF73E
:10109000D5FA401B0228F5D915E100BF306880035E
:1010A0007FF544AF606800287FF440AF3CE000BFAC
:1010B000B06D10F0805808D1B06D40F08050B06530
:1010C000B06D00F080500190019847F20007C4F223
:1010D00000073868C0052BD4386840F48070386049
:1010E000FFF7ACFA054600BF3868C00520D4FFF70B
:1010F000A5FA401B0228F7D9E5E000BF306840059B
:1011000001D5E06880B17068216920F0FE4040EAB6
:101110000160706040F20000C2F200000068FFF75A
:10112000B1FA00283FF405AF012002B0BDE8F0811C
:10113000A068012808D0052840F0AA80D6F89000C1
:1011400040F00400C6F89000D6F8900040F001008E
:10115000C6F89000A9E000BFA169D6F89800002960
:1011600000F0808040F00100C6F89800FFF766FAB2
:10117000054600BFD6F8980080073FF5E6AEFFF7BA
:101180005DFA401B02284FF00300F3D902B0BDE81E
:10119000F08100BF20F00100C6F89400FFF74EFA7E
:1011A000054600BFD6F8940080077FF5C6AEFFF76E
:1011B00045FA401B0228F5D985E000BF31680028B8
:1011C00021F480313160316821F48021316000F0F8
:1011D0007F80FFF733FA0546306880033FF5A6AEFF
:1011E000FFF72CFA401B6428F6D96CE020F48070DD
:1011F0003060FFF723FA0546306840057FF599AE69
:10120000FFF71CFA401B02284FF00300F4D9BDE79A
:10121000306820F080703060FFF710FA022D05462C
:101220000CD100BF3068800140F17E80FFF706FAE4
:10123000401B02284FF00300F4D9A7E73068800173
:1012400040F1B080FFF7FAF9401B02284FF003008D
:10125000F4D99BE77068216920F0FE4040EA016004
:10126000706066E620F00100C6F89800FFF7E6F926
:10127000054600BFD6F8980080077FF566AEFFF7F9
:10128000DDF9401B02284FF00300F3D97EE700BFD1
:10129000D6F8901021F00101C6F89010D6F8901001
:1012A00021F00401C6F8901010B3FFF7C7F9054606
:1012B00041F28837D6F8900080072BD4FFF7BEF9AB
:1012C000401BB842F6D9032002B0BDE8F08100BF50
:1012D000FFF7B4F9054600BF306880037FF526AEFE
:1012E000FFF7ACF9401B64284FF00300F4D94DE739
:1012F000FFF7A4F9054641F2883700BFD6F8900001
:10130000800707D5FFF79AF9401BB8424FF003005A
:10131000F4D93BE7B8F1000F7FF413AEB06D20F0C5
:101320008050B0650DE600BFF06848F20C01C0F2D5
:101330009F1104F1200700EA010C8ECF6FF00F001F
:10134000D4E90C5400EB02100022CFF6E07241EA1F
:101350000C0102EA05520843A2F500124FF07E4547
:1013600040EA032005EA0465104305F17E4540EAA2
:10137000C7602843F060306840F080703060F068EB
:1013800040F08070F060FFF759F904463068800142
:101390000FD4FFF753F9001B02284FF00300F5D9D3
:1013A000F4E600BFF0684FF6FC71CFF6EE6108403E
:1013B000F060002002B0BDE8F0810000002804BF0A
:1013C00001207047B0B50446406A28B10020206172
:1013D00004F1140006E000BF6068B0F5827F03D01E
:1013E00004F11C00002101600025A56294F85D0055
:1013F00020B9204684F85C5000F052F8022084F8AE
:101400005D002068D4F80CE00268BEF5E06F22F0C1
:10141000400202604EF4006298BF0125B2F5706F81
:101420001CBF0023A3624FEA053CD4E90135D4E98F
:10143000042103F4827305F404452B4402F00202F4
:101440001A44A36901F00101E569114403F4007233
:10145000114405F03802256A114405F08002A56A9E
:10146000114405F40052114301600421626A0EF434
:10147000706501EA1341636B45EA0C0502F0100246
:10148000294303F00803114319434160C16921F462
:101490000061C16100200121206684F85D10B0BDAB
:1014A00080B586B0006843F20001C4F201018842B1
:1014B00002D006B080BD00BF41F24C00C4F2020071
:1014C000416941F480514161416901F480510191C8
:1014D0000199016841F001010160006801A900F073
:1014E000010001900198E02001900220029000206C
:1014F000CDE90300052005904FF09040FEF7C2FFB4
:1015000006B080BD411E0020B0EB116F1CBF012052
:1015100070474EF21002CEF2000251604EF6235197
:10152000CEF20001F0230B7007219060116070472C
:1015300070B590F83C20012A4FF0020247D080F8A5
:101540003D20026843F2004C54689368C4F2010CD9
:1015500042F6004E6245C4F2010E01D0724503D13D
:101560004D6824F470042C434FF68F75CFF6FF5569
:101570000E682C4042F6FF35C4F201053443AA42FE
:1015800054600FDCB2F1804F16D040F20046C4F236
:101590000006B24210D040F60006C4F20006B24285
:1015A0000AD00EE0724507D044F20006C4F20106EC
:1015B000B24201D0624504D1896823F08003194307
:1015C00091600121002280F83D1080F83C201046F7
:1015D00070BD000080B586B00068B0F1804F01D0CA
:1015E00006B080BD41F24C00C4F20200016841F037
:1015F000010101600068022100F0010001900198E2
:101600000120029100210190CDE90311059001A96B
:101610004FF09040FEF736FF06B080BD2DE9F04157
:1016200090F83C30012B04BF0220BDE8F0814FEA66
:10163000B202052A00F28A81DFE812F006005000AB
:10164000A400F8004C01900103681D6A1A6AA3F116
:10165000804622F001021A621A465C6852F818CFDE
:101660008F68A6F59636D1F800E025F002054FEA1E
:10167000B626072E45EA07050AD80127B74017F016
:10168000E50F1FBFCF6825F00C0527F004073D4389
:10169000072E0BD8012707FA06F616F0E50F1FBF35
:1016A00024F44074D1E9056734433C434FF68C760B
:1016B000CFF6FE760CEA060747EA0E075C609F61EC
:1016C0004F6809695F631D629F6947F008079F6162
:1016D0009F6927F004079F617DE100BF036843F223
:1016E00000461D6A1A6AC4F2010622F010021A624C
:1016F0001A46D3F804C052F8188FB3428E68D1F856
:1017000000E025F0200545EA061505D042F6004622
:10171000C4F20106B34207D1CE686FF0400725F04E
:10172000C00507EA06163543A3F18046A6F59636AE
:101730004FEAB626072E0CD8012707FA06F616F050
:10174000E50F1FBFD1E905672CF44064374344EA35
:10175000870C48F6FF44CFF6FF6404EA080444EA25
:101760000E27C3F804C09F614F6809699F631D621B
:101770009F6947F400679F619F6927F480679F61B5
:1017800028E100BF036843F200461D6A1A6AC4F2EA
:10179000010622F480721A621A46D3F804C052F885
:1017A0001CEFB3428E68D1F8008025F4007545EA3D
:1017B000062505D042F60046C4F20106B34207D121
:1017C000CE6840F2FF47360225F44065BE433543FC
:1017D000A3F18046A6F596364FEAB626072E0CD81A
:1017E000012707FA06F616F0E50F1FBFD1E90567D6
:1017F0002CF44054374344EA071C4FF68C74CFF660
:10180000FE740EEA040747EA0807C3F804C0DF6164
:101810004F680969DF631D62DF6947F00807DF6110
:10182000DF6927F00407DF61D5E000BF036843F2FA
:1018300000461D6A1A6AC4F2010622F480521A6236
:101840001A46D3F804C052F81C8FB3428E68D1F800
:1018500000E025F4005545EA063505D042F600467D
:10186000C4F20106B34207D1CE6844F6FF773603CF
:1018700025F44045BE433543A3F18046A6F5963690
:101880004FEAB626072E0CD8012707FA06F616F0FF
:10189000E50F1FBFD1E905672CF44044374344EA04
:1018A000871C48F6FF44CFF6FF6404EA080444EAC4
:1018B0000E27C3F804C0DF614F6809691F641D6209
:1018C000DF6947F40067DF61DF6927F48067DF6164
:1018D00080E000BF0368D3F820C01A6AA3F18047F4
:1018E00022F480321A621A46A7F596375D6852F8DC
:1018F000508FD1F800E08E684FEAB727072F09D83C
:101900000124BC4014F0E50F1EBF4C6925F480355E
:1019100045EA04252CF4003747EA06474FF68C7653
:10192000CFF6FE76033606EA080646EA0E065D6046
:101930001E654E6809699E641F621F6D47F00807A7
:101940001F651F6D27F004071F6544E00121002279
:1019500080F83C200846BDE8F08100BF0368D3F85A
:1019600020C01A6AA3F1804722F480121A621A4634
:10197000A7F596375D6852F8508FD1F800E08E6871
:101980004FEAB727072F09D80124BC4014F0E50F10
:101990001EBF4C6925F4802545EA84252CF40017E8
:1019A00047EA065748F6FF46CFF6FF6606F540764B
:1019B00006EA080646EA0E265D601E654E6809695D
:1019C000DE641F621F6D47F400671F651F6D27F4FB
:1019D00080671F6509021368194311600021002206
:1019E00080F83C200846BDE8F0810000002804BFD4
:1019F0000120704710B5044690F83D0028B900203A
:101A000084F83C00204600F023F8022084F83D00D2
:101A10002068211D00F090F9012084F8480084F826
:101A20003E0084F83F0084F8400084F8410084F8C8
:101A3000420084F8430084F8440084F8450084F8A8
:101A4000460084F8470084F83D00002010BD0000E7
:101A500081B00068B0F1804F02D001B0704700BF84
:101A600041F25800C4F20200016841F00101016036
:101A7000006800F001000090009801B0704700007D
:101A800090F88410012904BF022070472421C0F877
:101A9000881002681168136823F00103136021F0B5
:101AA00000530021416613602022C0F8882080F88E
:101AB0008410084670470000B0B590F88420012AD1
:101AC00004BF0220B0BD2422C0F888200268D0F8EC
:101AD00064E0D2F800C01368BEF1000F23F00103E8
:101AE0001360936823F0606341EA0301916019D0A9
:101AF0009368916842F6C41E490FC0F6000E42F684
:101B0000CC151EF80140C0F60005695CC3F34263C2
:101B1000E400B4FBF1F11EF80340EB5CE500B5FB1B
:101B2000F3F301E001210123A0F86A102021A0F8BD
:101B30006830C2F800C0C0F88810002180F8841016
:101B40000846B0BDB0B590F88420012A04BF022039
:101B5000B0BD2422C0F888200268D0F864E0D2F832
:101B600000C01368BEF1000F23F0010313609368F7
:101B700023F0604341EA0301916019D093689168B2
:101B800042F6C41E490FC0F6000E42F6CC151EF8F0
:101B90000140C0F60005695CC3F34263E400B4FB96
:101BA000F1F11EF80340EB5CE500B5FBF3F301E057
:101BB00001210123A0F86A102021A0F86830C2F8A2
:101BC00000C0C0F88810002180F884100846B0BD1D
:101BD00010B5D8B10446D0F8880028B9002084F8A0
:101BE0008400204600F026F82420C4F888002068ED
:101BF000A16A026822F00102026011B1204600F0E1
:101C000029F9204600F052FA012801D1012010BD27
:101C10002168486820F490404860886820F02A00D5
:101C20008860086840F0010220460A60BDE8104064
:101C300000F084B910B598B0044600201790CDE9A3
:101C40001500CDE9130002A84421FEF7ADFB206882
:101C500044F20041C4F20001884227D043F600015B
:101C6000C4F2010188424ED10120029002A8FEF781
:101C700023FE002818BFFEF7FFFB41F24C00C4F220
:101C80000200416941F480414161416901F48041B0
:101C900001910199016841F001010160006800F0C3
:101CA0000100019001984FF4C0601FE002200290F3
:101CB00002A8FEF701FE002818BFFEF7DDFB41F287
:101CC0004C00C4F20200C16841F40031C160C16837
:101CD00001F4003101910199016841F001010160B5
:101CE000006800F00100019001980C201390022080
:101CF00014900020CDE915000720179013A94FF08C
:101D00009040FEF7BFFB18B010BD0000FEE70000DA
:101D1000FEE70000FEE7000070470000704700008B
:101D2000FEF792BC4EF68850CEF20000016841F4F6
:101D3000700101607047000080B540F2FF7C0268CE
:101D4000C4F2000C604521DD40F60003C4F200033C
:101D5000984224D043F20043C4F2010398421ED0BB
:101D600042F60043C4F20103984218D043F2FF3315
:101D7000C4F2010398421CDC604529DCB0F1804FBD
:101D80003CD040F20043C4F2000335E0B0F1804F94
:101D900005D040F20043C4F200039842E6D14B68FC
:101DA00022F070021A4343F2FF33C4F20103984257
:101DB000E2DD44F2FF33C4F20103984212DC43F245
:101DC0000043C4F20103984218D044F2000311E02A
:101DD00040F60003C4F2000398420FD042F60043DD
:101DE00008E000BF44F60003C4F20103984205D0A6
:101DF00044F20043C4F20103984203D1CB6822F4B9
:101E000040721A434B6922F0800E8A6843EA0E033F
:101E1000D1F800C00360C262A0F18042A2F5963200
:101E20004FEAB222072AC0F828C007D8012303FAD4
:101E300002F212F0E50F1CBF096901630121416143
:101E40000169C90708BF80BD016921F00101016175
:101E500080BD000080B5816A0A070DD4CA0716D17B
:101E60008A071FD44A0728D4CA0631D48A063AD42E
:101E70004A0658D542E000BF0268D0F838C053681F
:101E800023F4004343EA0C035360CA07E8D0026816
:101E9000D0F82CC0536823F4003343EA0C0353609A
:101EA0008A07DFD50268D0F830C0536823F4803346
:101EB00043EA0C0353604A07D6D50268D0F834C011
:101EC000536823F4802343EA0C035360CA06CDD53C
:101ED0000268D0F83CC0936823F4805343EA0C03B3
:101EE00093608A06C4D50268D0F840C0936823F492
:101EF000005343EA0C0393604A0614D50268D0F8F5
:101F000044C05368BCF5801F23F4801343EA0C03DC
:101F1000536008D1D2F804C0D0F848E02CF4C003D4
:101F200043EA0E035360090658BF80BD0168C06CC8
:101F30004A6822F400221043486080BDB0B582B0E8
:101F400004460020C4F89000FEF778FB216805469F
:101F50000A68120737D56FF07E4C20464FF4001107
:101F600000222B46CDF800C000F0F2F950B300BFBC
:101F7000206850E8000F216820F0800041E800024E
:101F8000DAB1206850E8000F216820F0800041E8B5
:101F9000000292B1206850E8000F216820F0800014
:101FA00041E800024AB1206850E8000F216820F0A3
:101FB000800041E80002002ADAD12020C4F888001D
:101FC00060E000BF21680868400761D56FF07E4C73
:101FD00020464FF4800100222B46CDF800C000F0CF
:101FE000B7F9002854D000BF206850E8000F2168DE
:101FF00020F4907041E80002E2B1206850E8000F40
:10200000216820F4907041E800029AB1206850E8FD
:10201000000F216820F4907041E8000252B120685E
:1020200050E8000F216820F4907041E80002002A77
:10203000DAD100BF206850E8020F216820F00100CB
:1020400041E80202DAB1206850E8020F216820F06E
:10205000010041E8020292B1206850E8020F2168B5
:1020600020F0010041E802024AB1206850E8020F66
:10207000216820F0010041E80202002ADAD1202084
:10208000C4F88C000320002184F8841002B0B0BD95
:102090002020C4F88800C4F88C000020E066206787
:1020A000002184F8841002B0B0BD000070B5054670
:1020B00005F108041ECC0068194341EA0403EE69E7
:1020C000046846F6F311CCF6FF7121401943314301
:1020D0000160416848F2000C21F440511143416015
:1020E000AA69C4F2000C60451CBF296A0A438168D2
:1020F0004FF2FF43C1F2FF13194011438160C16ADF
:10210000D5F824E021F00F0141EA0E01C16244F646
:10211000FF31C4F2000188424FF0100314DD44F691
:102120000041C4F20001884222D0604528D043F625
:102130000001C4F20101884238D141F28801C4F2A1
:1021400002010B687EA22DE044F20041C4F20001BE
:1021500088421DD044F60001C4F20001884225D116
:1021600041F28801C4F2020109680B0916E000BFC0
:1021700041F28801C4F2020109688B090EE000BF38
:1021800041F28801C4F2020109688B0A06E000BF2F
:1021900041F28801C4F2020109688B0842F6B412C8
:1021A000C0F6000203F0030152F82130604542F20C
:1021B0000040C0F2F40015D0B6F5004F24D1082B32
:1021C0004FF0010100F2B380DFE803F0065E6CB16E
:1021D00064B1B1B16A0000BFFEF72EFE002856D1EF
:1021E0005CE000BF082B4FF0010100F2A080DFE8A7
:1021F00003F0059E259E1D9E9E9E2300FEF71CFE5D
:10220000C0B1D5F824E019E0082B4FF0010100F22D
:102210008E80DFE803F00565738C6B8C8C8C71000D
:10222000FEF70AFE00285ED164E000BFFEF730FE34
:102230000028E6D100217AE04FF4004042F69C11DC
:10224000C0F6000131F81E106A68B0FBF1F002EB35
:10225000420188424FF0010169D31303984266D8C6
:10226000010E000210EB520041F100010023FEF7C5
:1022700023F84FF60052A0F54071C0F20F029142D0
:102280004FD3012153E000BFFEF7ECFD30B1D5F88C
:1022900024E007E0FEF7FCFD0028F8D1002146E02D
:1022A0004FF4004042F69C11C0F6000131F81E10B8
:1022B0006A68B0FBF1F0510801EB4000B0FBF2F0AE
:1022C0004FF6EF72A0F11001914207D84FF6F0716E
:1022D0000140C0F34200084423E000BF012126E092
:1022E000FEF7C0FD30B1D5F824E007E0FEF7D0FDE1
:1022F0000028F8D100211AE04FF4004042F69C116A
:10230000C0F6000131F81E104FF6EF72B0FBF1F08D
:10231000696800EB5100B0FBF1F0A0F110019142AF
:1023200004D82968C860002101E000BF01214FF0F6
:102330000110A866002208466A67AA6770BD00BF40
:10234000010000000400000002000000080000007E
:102350002DE9F041804600681546C2690E461140DD
:10236000891BB1FA81F14909A94223D1069C2CB3FA
:10237000611C29D1C1693140891BB1FA81F1490938
:10238000A94217D1C1693140891BB1FA81F14909CC
:10239000A9420FD1C1693140891BB1FA81F14909C4
:1023A000A94207D1C1693140891BB1FA81F14909BC
:1023B000A942DFD00020BDE8F08100BFFEF73EF962
:1023C0000320BDE8F08100BF1F4607E0C069304030
:1023D000801BB0FA80F04009A842EBD1FEF72EF93D
:1023E000C01BA04200F2AE80D8F800000168490787
:1023F000ECD5402EEAD0802EE8D0C169090700F163
:10240000A580C1690905E1D54FF400610162D8F8E2
:10241000000050E8000FD8F8001020F4907041E858
:1024200000020AB3D8F8000050E8000FD8F80010F6
:1024300020F4907041E80002B2B1D8F8000050E8F2
:10244000000FD8F8001020F4907041E800025AB153
:10245000D8F8000050E8000FD8F8001020F4907071
:1024600041E80002002AD2D14FF6FE70CEF6FF708E
:10247000D8F8001051E8021FD8F80020014042E8C7
:102480000213F3B1D8F8001051E8021FD8F8002069
:10249000014042E80213A3B1D8F8001051E8021F2E
:1024A000D8F80020014042E8021353B1D8F80010D8
:1024B00051E8021FD8F80020014042E80213002B27
:1024C000D6D1D8F86C0001282CD1D8F8000050E8FB
:1024D000000FD8F8001020F0100041E800020AB305
:1024E000D8F8000050E8000FD8F8001020F01000D5
:1024F00041E80002B2B1D8F8000050E8000FD8F867
:10250000001020F0100041E800025AB1D8F8000095
:1025100050E8000FD8F8001020F0100041E8000249
:10252000002AD2D120200021C8F88C00C8F86C10F5
:10253000C8F87410C8F89000032088F88410BDE82B
:10254000F08100BF0320BDE8F08100BF08210162D7
:10255000D8F8000050E8000FD8F8001020F4907070
:1025600041E800020AB3D8F8000050E8000FD8F89C
:10257000001020F4907041E80002B2B1D8F80000D9
:1025800050E8000FD8F8001020F4907041E80002E5
:102590005AB1D8F8000050E8000FD8F8001020F425
:1025A000907041E80002002AD2D14FF6FE70CEF6BC
:1025B000FF70D8F8001051E8021FD8F80020014041
:1025C00042E80213F3B1D8F8001051E8021FD8F81E
:1025D0000020014042E80213A3B1D8F8001051E8EE
:1025E000021FD8F80020014042E8021353B1D8F886
:1025F000001051E8021FD8F80020014042E8021301
:10260000002BD6D1D8F86C0001282CD1D8F80000C6
:1026100050E8000FD8F8001020F0100041E8000248
:102620000AB3D8F8000050E8000FD8F8001020F0E6
:10263000100041E80002B2B1D8F8000050E8000FE5
:10264000D8F8001020F0100041E800025AB1D8F884
:10265000000050E8000FD8F8001020F0100041E80A
:102660000002002AD2D12020C8F88C0000200821C6
:10267000C8F86C00C8F87400C8F8901088F8840096
:102680000120BDE8F0810000FEE7000094B0FDF7F6
:10269000E9FF002400200C94CDE90A44CDE9084468
:1026A000FEF76CF8012006904FF48030052107906A
:1026B00002200F9144210D900325CDE91010CDE9A2
:1026C000120006A80E95FEF723FC28B1EFF3108048
:1026D00072B600BFFEE700BF0F20CDE9010501A8DB
:1026E0000421CDE903440594FEF71CFA20B1EFF371
:1026F000108072B6FEE700BF002741F24C000A9737
:10270000C4F20200016840F6000441F020010160BB
:102710000168C4F6000401F02001019101990168EB
:1027200044F2004841F0010101600168002201F01B
:102730000101019101990168C4F2000841F004010E
:10274000016001684FF0100901F004010191019945
:10275000016841F0020101600068102100F00200F0
:10276000019001982046FDF763FF06AD0126204643
:102770002946CDF81890CDE907670997FDF782FE45
:102780004FF48810CDE90707A4F580602946069626
:10279000FDF778FE40F2700008F56C41C2F20000CF
:1027A0004FF482724FF4E06380E8860000F10C0180
:1027B00002254FF4007468C10721C0E90649C0E949
:1027C0000877C0E90A71C0E90C77FEF7F7FD28B178
:1027D000EFF3108072B600BFFEE700BF40F2D400F6
:1027E000C2F200004FF0804118230297CDE90B7729
:1027F000CDE90977A92280E88600C0E9033787611F
:10280000FFF7F4F820B1EFF3108072B6FEE700BFD7
:1028100040F2D4000024C2F2000001A90194039404
:10282000FEF786FE20B1EFF3108072B6FEE700BF20
:102830006020CDE9060440F2D400C2F2000006A9EF
:10284000002208940A94FEF7E9FE28B1EFF3108005
:1028500072B600BFFEE700BF40F2D400C2F2000033
:10286000FEF7B8FE40F2201008F57441C2F20000F5
:1028700000230C274FF4E13280E80E00C0E9033357
:10288000C0E90573C0E90733C0E90933FFF7A0F9D0
:1028900020B1EFF3108072B6FEE700BF40F22010C7
:1028A000C2F200000021FFF74DF928B1EFF31080CC
:1028B00072B600BFFEE700BF40F22010C2F2000077
:1028C0000021FFF7F9F828B1EFF3108072B600BFCE
:1028D000FEE700BF40F22010C2F20000FFF7D0F880
:1028E00020B1EFF3108072B6FEE700BF40F2B410E3
:1028F000C2F200004FF4E13100220C23C0E9008154
:10290000C0E90222C0E90423C0E90622C0E9082286
:102910008262FFF75DF918B1EFF3108072B6FEE73F
:1029200040F2B410C2F200000021FFF70BF918B119
:10293000EFF3108072B6FEE740F2B410C2F200006E
:102940000021FFF7B9F818B1EFF3108072B6FEE777
:1029500040F2B410C2F20000FFF792F820B1EFF39A
:10296000108072B6FEE700BFFEE7F1EE100A4FF6E8
:10297000FF71C0F2C03120EA010040F04070E1EE8A
:10298000100A70470000000000000000010203046C
:10299000060708090000000001020304010002000C
:1029A0000400060008000A000C001000200040008F
:1029B0008000000100000000040000000200000090
:1029C00008000000010101030701000008040204DF
:1029D00008010101F8290008000000201000000093
:1029E00014020008082A0008100000204008000017
:1029F000300200080000000010000000010000008C
:082A00000024F40000000000B6
:04000005080001D915
:00000001FF
